:020000042000DA
:1000000000980020C9040020D1040020E904002049
:1000100000000000000000000000000000000000E0
:1000200000000000000000000000000001050020AA
:100030000000000000000000190500201B05002042
:10004000EB1F0020DF2000203D2F0300CD200020EB
:1000500053200020BD2F0300F1200020F9200020B4
:100060001D0500201D05002033210020DD2F030089
:10007000A77E02001D0500201D0500201D05002093
:100080001D0500201D0500201D050020711A0020FF
:10009000751A0020791A00207D1A0020811A00208C
:020000042000DA
:100160003F000000AF0500202B120020C32D00200F
:100170000000000000000000A77D0200017E0200D8
:100180000F7E02004B7E0200697E0200857E020027
:10019000AD7E02005D1F002095050020190C002097
:1001A000230C002000000000000000003F000000C1
:1001B000F4870020000800001C350020C80700005C
:1001C000F03C00200004000080090800E01200005C
:1001D000000000002000000048000000580000005F
:1001E00068000000080900004409000058090000E8
:1001F0005E090000D02800008E2E000006000000DE
:1002000088130000B51200200D5D0200119102005C
:10021000572303001326030097710200791D002065
:10022000030000002F1C0200CF2D0020040000005E
:1002300087450200BF440200F91B02007B8E0200CA
:10024000CF8E0200D78E0200577F0200C57F0200CA
:100250002A320020BB8002009B81020049820200FA
:10026000E98202000D830200738302008983020089
:100270000B8502003186020033870200E589020007
:100280001F8A0200278D02005B8A02003F8B02005A
:10029000118C02005F8C02009F0B0020ED8C02008D
:1002A000474D0200754D02002F4E02001000000065
:1002B00020030000803E00003F0000000D00000011
:1002C0002700000000000000000000000000000007
:020000042000DA
:1002D000504600030003983A6400F401B80B000C88
:1002E000B80B120030003000CD009A01120024003B
:1002F00030006400B0001800280012001200D0077F
:100300000000FFFF000000000000000000000000EF
:100310001F00000244413134353831000000000034
:1003200000000000000000000000000000000000CD
:0403300000000000C9
:020000042000DA
:10035000FFFF010000C201000000000000000000DB
:100360000000F4010100011B0A071AFFD200021568
:10037000585CDE931B0142CC9A1325009BEDC65EB0
:1003800000010002C5000000000009FF0060525794
:100390002D424C450000000000000000000000005D
:1003A00000000000000000000000444131343538F6
:1003B00078000000000000000000000000000000C5
:1003C000000000000000000000000000000000002D
:1003D000000000000000000000000000000000001D
:1003E0000000000000000000010000CAEA80D00701
:0403F000064064322D
:020000042000DA
:100450000348854602F012FD00480047211C0200B7
:1004600000980020144906200880FF20134901301D
:10047000086005200007818A0906FCD541898908A2
:100480008900418141890906FCD50D4A91683E23C6
:1004900099432E31916000220280018A0F231B02B2
:1004A0001943018201210748C90404C1401E0028E4
:1004B000FBDA62B6704700000034005080E100E0D3
:1004C00000330050FF0B00001548804715480047D7
:1004D00004207146084203D0EFF30980124908470F
:1004E000EFF308801049084704207146084203D002
:1004F000EFF309800D490847EFF308800B490847DF
:1005000004207146084203D0EFF3098008490847E8
:10051000EFF3088006490847FEE7FEE7FEE7000024
:100520006504002051040020410900203505002009
:10053000590E002005221207518A80231943518247
:10054000124903680B6043684B6083688B60C36823
:10055000CB6003690B6143694B6183698B61C3693C
:10056000CB6108620A48836A4B62C36A8B62036B81
:10057000CB62C36B0B63436B4B63806B8863908A66
:10058000800601D500BE7047FEE700000018080095
:1005900000ED00E010B595490020086000F0FAFA7F
:1005A00001208007016B49004908016310BD08B5AF
:1005B0008F49012008708F480821018002F070FCEB
:1005C00000F01EFFFF24013435202146000102F017
:1005D0006DFC01F0EDFB00F035FA87480178017001
:1005E000864801780170864801780170012002F088
:1005F00063FC00F07DFD00F05DFA042000F0EEF8F1
:10060000072000F0EBF80A2000F0E8F8062000F0E0
:10061000E5F80B2000F0E2F8012000F0DFF80220FE
:1006200000F0DCF8002000F0D9F87648006802F00D
:1006300049FC00F0C8FB00F0FAFBA005016821436B
:10064000016000F009FB00F0F3F8FFF7A3FF0027BB
:1006500005242407E7826C484188E0229143A031B9
:100660004180012002F034FC04262089000619D5BF
:1006700001208007006B000414D402F02FFCC00797
:1006800010D1042002F030FC054602F033FC002DAE
:1006900008D004216846009702F032FC002801D0FF
:1006A00000F08BFA00F0C2FA0028DED072B601F03A
:1006B000A5FB0546042806D0022D0BD0032D09D03A
:1006C00001287DD088E051480078012801D0032519
:1006D00000E00225208A304320824D48C06901286D
:1006E00010D9032D19D102F011FC002815D002F009
:1006F00013FC002811D0032002F014FC00280CD0B9
:10070000022007E0032D08D1032002F00BFC002893
:1007100003D001203F49087000E002253E480169EE
:1007200031430161618A202291436182218A022240
:1007300011432182618A022D1ED0314361827F21C3
:100740002288890180231A4322800022521CD2B2BF
:100750000A2AFBD3628A10231A4362822F4A491E57
:10076000516121888022914321802D49022D0F70F3
:100770000AD0032D08D025E031436182618A10221E
:100780009143618226490F701F494A88FF23013334
:100790009A434A806288234B1A804A8801231A436D
:1007A0004A8000970099491C00911429FADB61895D
:1007B00089088900491C618161894906FCD500E0EE
:1007C00005E0678030BF0169B143016104E000F0DA
:1007D0002DFA002800D030BF62B646E7C106C90E28
:1007E000012088401049086070470000FC040800A0
:1007F000008000200033005000000800D0280800CE
:10080000080908002090002020000050780308000C
:10081000E0010020B007080000ED00E0008000408B
:100820003E0308004003080080E200E0704700003B
:100830003E480178002902D08021417070473C4930
:10084000002008703B49C87070473848017800297B
:1008500002D0812141707047354901200870354927
:10086000C870704731480178002902D08221417058
:1008700070472F49022008702E490120C870704728
:100880002A488178002904D0491E0906090E817082
:1008900017D142780021002A04D09207920F0270EB
:1008A000417004E00278002A01D0521E0270120644
:1008B000120E017005D0012A02D0022A01D1D1E71F
:1008C000C3E7704710B5194CA078401CA070207881
:1008D000002805D102F02CFB421CFFF7A9FF227073
:1008E00010BD12490120C870704710490020C8701F
:1008F00070470E48C07870470020EFF31081012246
:1009000082F31088052212071289120605D40A48BC
:10091000028901231A4302811846002900D00121CF
:1009200081F31088704705480078704701800020E7
:1009300078030800B2070800003300503C030800A9
:1009400005221207118A042319431182118A0223F6
:10095000194311821189402319431181184B012138
:100960001960184B08211980518A8023194351823C
:10097000154903680B6143684B6183688B61C368E9
:10098000CB6103690B6243694B6283698B62C36904
:10099000CB6208630D48836A4B63C36A8B63036B46
:1009A000CB63C36B084940310B60436B4B60806B7A
:1009B0008860908A800601D500BE7047FEE700007F
:1009C00080E200E0003300504018080000ED00E035
:1009D00070B5334B00261869F643002801D0304625
:1009E00000E00120C117020F090111430201186143
:1009F0002C480468456822432943026041605969D4
:100A0000002900D10126F117F20E49015E61114360
:100A1000046872014368224319430260416070BD5B
:100A200038B5002403220223120204212046009438
:100A300000F089FD0022012305211046009400F0FA
:100A400082FD38BD10B505242407208A0221884381
:100A50002082A08A0007FCD513484188FF2201327A
:100A600011434180A08880210843A08003210920F0
:100A700002F064FAA0880121C9020843A080A0887E
:100A8000032109028843FF300130A08000F0F0F913
:100A9000FFF7C6FF608A20210843608210BD000076
:100AA0003090002028900020200000509A4900201B
:100AB0004860704770B505200007018930229143D6
:100AC00001810189802211430181018989088900FE
:100AD000491C018101890823194301818F490C8830
:100AE00014430C80448A9C43448205894024254356
:100AF0000581058A0426B5430582858AAD07FCD5A4
:100B0000854E002575600D88012635430D804D8981
:100B1000AE05834D0E8801D52E4300E0AE430E8016
:100B20000D887826B54328350D800D880626354377
:100B30000D80458A1D4345820B8893430B800289B3
:100B4000A24302814889800503D57449052060319C
:100B500088800120800701688215914301607148F7
:100B600001683F22520291434214891801600168D2
:100B700002031143016070BD03216B4809028181AA
:100B8000082242800021491C9629FCD382807047AC
:100B90007047704710B5654802F0D6F910BD70B5C2
:100BA0005E4C6088C006050F02F0D4F961881E22F1
:100BB00091436A001143618070BD10B55C4901200A
:100BC000C863C86B0028FCD101208007C16959485F
:100BD0000268914201D20022026019238A1ADB01C5
:100BE0009A4212D3016002F0BBF9534A118888423D
:100BF00001D9411A00E0091A89B2182905D31080D9
:100C0000012002F0B3F902F0B7F910BD08B5009861
:100C100008BD08B5009808BD08B502F0B3F900900A
:100C200008BD08B502F0B4F9009008BD10B53F202A
:100C300002F0B4F9002805D140488078002803D09C
:100C4000032801D0002010BD012010BD401837211D
:100C5000C0000901401870471FB5684601F011F83F
:100C6000009802F029F91FBD10B5354A002011780F
:100C700000290DD02E490120C863C86B0028FCD183
:100C800001208007C0692F490968884201D20120EC
:100C900010BD0020107002F04BF9022803D002F0C2
:100CA00047F901280BD128490820088005200007B2
:100CB000818A8906FCD4418A8022914341820020A6
:100CC00010BD0020704708B514494A8801231A4313
:100CD0004A8000210091491C00911429FBDB052169
:100CE00009074A8992089200521C4A814A89520691
:100CF000FCD54B89042213434B814880488990439B
:100D00004881888A0006FCD548898008800048818F
:100D100048890006FCD508BD2803080020000050C3
:100D2000001000000002004020300050E2040000EB
:100D3000C0000040F8050800F40508001C06080083
:100D4000008000201835002000330050FFB581B02E
:100D50001F460E464D780C78002002F01FF904283B
:100D600024D000281DD121E04848816A2E2060430C
:100D7000091888880207120F130002F015F90705F9
:100D800005050F050F050F008204920E062A05D2F5
:100D90007278012A12D0072210438880641C6407ED
:100DA000640F28466D1EEDB20028DDD13B4631466A
:100DB000039A019802F0FEF805B0F0BD204602F05B
:100DC000FFF80020F8E770B531480378021D0021D4
:100DD000304D07E0CC00165D002E01D12418A5602F
:100DE000491CC9B29942F5D370BD70B505460C4691
:100DF000103C3F2002F0D2F800280FD0264880682F
:100E0000322806D925498D4201D03C2801D900203D
:100E100070BD2146204802F0D9F806E0204602F0D5
:100E2000DBF801213F2002F0DDF8012070BD10B594
:100E300017490B780A1D002005E0C400145D3F2C03
:100E400004D0401CC0B29842F7D310BD114AC00074
:100E500010324018826010BD81692039897F0229D3
:100E600005D20C4A8900083A515881617047FEE763
:100E70000C480B4901610C4941610C4981610C49E5
:100E8000C1610C4901620C49416270477C04080051
:100E90004C08080080330020FC05080010340000D6
:100EA0001C4B02000084004001DFFFB5C4A8020013
:100EB00000DFF8B57C45030071100020F3B581B068
:100EC000002000900D464A88044601466B46019872
:100ED00002F08EF8060009D10098C488019802F04B
:100EE0008DF8401E844200D2204684B222460B2157
:100EF000019802F089F80746002E06D06A88297802
:100F0000334602F087F80020FEBD7C80009922461F
:100F10000831381D02F084F8384602F087F86888F6
:100F200002F08AF80028EED0019902230A02018912
:100F30000C32044802F086F86988018002F088F8D3
:100F4000E1E7000012300000FFB50646807A81B06C
:100F5000012805D0022340490D68002D02D006E08B
:100F60000023F8E7022870D0012871D03B4D3C4C9B
:100F7000F288A08BB18880B202F070F80090E0692E
:100F80004E23042158434B042268C0181152E069D3
:100F90004E235843344B22683249C0181152E0693D
:100FA0004E23717A5843304B090255319B1E2268FB
:100FB000C01811520098E26940304E2741887A43A8
:100FC0001B11294F19433F1D2368D2199952E1691A
:100FD0004E277943244F4B2252010C372368C919FD
:100FE0005A5221464031E269097B4E27049B7A43DD
:100FF00009021D4F1943BF1C2368D2199952236857
:10100000E1694E246143184C0022143409195A52E4
:10101000164A962111631549327A40390A610D62E8
:10102000049941760299009802F01EF8039800286E
:1010300003D00146009802F017F8009802F01AF861
:10104000009805B0F0BD00E002E0FF25F5358EE721
:10105000024DFA3D8BE7000008800020DC0500000F
:10106000E0010020278000000A000800C0000040C6
:10107000FFB581B01E4614460F46150A104601F012
:101080008DFF00280DD00849A8000858C07B002813
:1010900007D0334622463946019801F0F1FF05B0EA
:1010A000F0BD0020FBE70000C00608000F4A518891
:1010B00007235B029943400201435180704705209A
:1010C0000007018830221143018001880322114367
:1010D000018070470520000701883022914301807C
:1010E0000188890889000180704700008000005055
:1010F00030B5974A9749D005048880231C43048063
:10110000954C65892D0701D4521EFAD2934C0122C9
:101110002260934C0A882280924A49881180018873
:101120009943018030BD0020704770477047704779
:101130000020704701218907086B072210430863CC
:101140007047704730B589498748086088494C2006
:101150000880874C874B203C2382884986484880FA
:10116000884887490180864919314180222141817F
:101170008121890001828449418284490183824915
:10118000113141837F4A8249203291804122814935
:1011900012018A80804ACA807F4D1035CD810A8233
:1011A0004A82921C8A826A1FCA82FF2246320A83BE
:1011B0007A4A4A837A4A592111807949794D2031F6
:1011C0000D8043254D80784D5582D5228A80FF229F
:1011D000D3320A81754A4A81754A8A81764A7549AD
:1011E00011806349754A60394A80CA8810252A43AC
:1011F000CA806C4A0A3A0A815D4D714A403D6A8054
:10120000638208224A815749654A0988403A118217
:1012100053496C4A098811806B490978002901D02B
:101220003021018330BD4008704700B58BB0674A5C
:101230004262674A8262674A4261674AC262674A9B
:101240000260674A0262674A4260674AC261474A6F
:1012500045480021106045484038026B03129A430C
:101260000263426B1F231B049A4303231B04D218FF
:1012700042635E480268C3129A4302600268031325
:101280009A43026068464154491CC9B22829FAD3DE
:1012900001462822564801F0C3FEFFF753FF01F034
:1012A0005FFE54490880002001F060FE01F064FEFA
:1012B0000BB000BD10B52D4A0F212B48090210605C
:1012C0002A484038426B1F231B049A4303231B0404
:1012D000D218426300060268D208D20002600520DC
:1012E0000007028992089200521C02810289082399
:1012F0001A430281028A0A430282174841898905FA
:1013000004D501887822914308310180FFF71AFF44
:101310003948006F0078002804D038480088144904
:101320006039C880012001F0D3FD10BD2648007847
:101330007047254901200870124930200883704702
:101340002149002008700F491048088370470000A9
:10135000A0860100087F04002000005000800040AB
:101360007A030800AE0408004C05540780000040D2
:10137000602C00507F7F0000AC290000002200504C
:1013800009090000002400502204000030D00000B1
:10139000EE110000002500502E0200004420000045
:1013A000402800500D95000002420000E4DC0000DF
:1013B0001092000053780000002A00508B100000AB
:1013C0009DD50000002600500C8000202711002031
:1013D0002B11002031110020351100202D1100208B
:1013E000431100202F11002027120020000200408E
:1013F00020000800F4050800E0010020CE050800E8
:10140000FEB50020F84E03462822002142439219DF
:101410008C00491C13510A29FADB401C0428F3DB19
:10142000FFF7D6FAF04800220838026042601546FD
:101430000024EE486900475A0120A04080B20742CC
:101440001CD0282068438019A1004058411C19D0A5
:10145000002810D0C117224601F018FE2A0101F021
:1014600015FEE14B083B1A685B681043DE4A1943DE
:10147000083A10605160641C0A2CDDDB6D1C042DE1
:10148000D6DBFEBD0095019400BEE3E7F8B5164635
:1014900004460D460A461F460120002101F0F6FDD4
:1014A000220101F0F3FDD04B083B1A685B68104045
:1014B0001940084300D100BE032C00D10424CC49BC
:1014C00060014018690008183E43C680F8BD70B539
:1014D00004460D460A460120002101F0D7FD2201F5
:1014E00001F0D4FDC04A083A136852681840114010
:1014F000084300D100BE032C00D10424BC49600184
:1015000040180121A940818070BD70B504460D4688
:101510000A460120002101F0B9FD220101F0B6FDCB
:10152000B14A083A1368526818401140084300D184
:1015300000BE032C00D10424AD49600140180121F4
:10154000A940418070BDFFB581B00C4605460A46F2
:101550001F46012000210A9E01F098FD2A0101F09A
:1015600095FDA14B083B1A685B6810401940084381
:1015700000D100BE002E2146284602D0FFF7C5FF4D
:1015800001E0FFF7A4FF3B4621462846039AFFF7F8
:101590007DFF05B0F0BD70B5154604460E460A46FF
:1015A0000120002101F072FD220101F06FFD8E4B40
:1015B000083B1A685B6810401940084300D100BE20
:1015C000002C07D0601E8A49400070314018012C61
:1015D00002D002E00020F6E7083601880122B2407E
:1015E0009143B5400D43058070BD70B504460D466E
:1015F0000A460120002101F049FD220101F046FDCB
:10160000794A083A1368526818401140084300D1DB
:1016100000BE032C00D104247549600140180088E5
:101620000121A940084000D0012070BDFFB514463B
:101630000D4606460A4681B00120002101F026FD34
:10164000320101F023FD684B083B1A685B681040CB
:101650001940084300D100BE66A0006800906648AB
:1016600080892346133BFF2201329A400B99904315
:10167000002901D0012700E00027D10701D0002177
:1016800038E0910701D5012134E0510701D502214D
:1016900030E0110701D503212CE0D10601D504214A
:1016A00028E0910601D5052124E0510601D5062147
:1016B00020E0110601D507211CE0D10501D5082144
:1016C00018E0910501D5092114E0510501D50A2141
:1016D00010E0110501D50B210CE0D10401D50C213E
:1016E00008E0910401D50D2104E0510401D50E213B
:1016F00000E00F218F4040493843888188890B9F43
:1017000080098001384388810F8A9743D00701D030
:10171000002038E0900701D5012034E0500701D5C2
:10172000022030E0100701D503202CE0D00601D5BF
:10173000042028E0900601D5052024E0500601D5BC
:10174000062020E0100601D507201CE0D00501D5B9
:10175000082018E0900501D5092014E0500501D5B6
:101760000A2010E0100501D50B200CE0D00401D5B3
:101770000C2008E0900401D50D2004E0500401D5B0
:101780000E2000E00F200A9A824017430F820F8A32
:101790000122104698408743C30701D0002042E051
:1017A000830701D501203EE0430701D502203AE03E
:1017B000030701D5032036E0C30601D5042032E03B
:1017C000830601D505202EE0430601D506202AE038
:1017D000030601D5072026E0C30501D5082022E035
:1017E00083050BD509201EE030900020C033002077
:1017F0000030005001090F1900140050430501D5B5
:101800000A2010E0030501D50B200CE0C30401D52C
:101810000C2008E0830401D50D2004E0400401D52C
:101820000E2000E00F20049B83401F430F82954849
:1018300061000818418B6B4689099B5D89015B1922
:1018400019434183A007C30EFF219940802098408F
:10185000002C0BDA23071B0F083B9D088A4BAD00B9
:10186000ED18EB698B430343EB6107E0A508874B59
:10187000AD00ED182B688B4303432B60E006C00ED0
:1018800082408348026084E67E4940310A8A012111
:10189000133881400A40C80701D0002038E088078B
:1018A00001D5012034E0480701D5022030E00807C7
:1018B00001D503202CE0C80601D5042028E08806C5
:1018C00001D5052024E0480601D5062020E00806C1
:1018D00001D507201CE0C80501D5082018E08805BF
:1018E00001D5092014E0480501D50A2010E00805BB
:1018F00001D50B200CE0C80401D50C2008E08804B9
:1019000001D50D2004E0480401D50E2000E00F2091
:10191000C240D0B2704710B55A4C4034238A0122DD
:10192000133882409343D00701D0002038E090075D
:1019300001D5012034E0500701D5022030E0100726
:1019400001D503202CE0D00601D5042028E0900624
:1019500001D5052024E0500601D5062020E0100620
:1019600001D507201CE0D00501D5082018E090051E
:1019700001D5092014E0500501D50A2010E010051A
:1019800001D50B200CE0D00401D50C2008E0900418
:1019900001D50D2004E0500401D50E2000E00F20F9
:1019A00081400B43238210BD10B5364C4034E3898F
:1019B00001221146133881408B43C80701D0002013
:1019C00038E0880701D5012034E0480701D502201E
:1019D00030E0080701D503202CE0C80601D504201B
:1019E00028E0880601D5052024E0480601D5062018
:1019F00020E0080601D507201CE0C80501D5082015
:101A000018E0880501D5092014E0480501D50A2011
:101A100010E0080501D50B200CE0C80401D50C200E
:101A200008E0880401D50D2004E0480401D50E200B
:101A300000E00F2082401343E38110BD154A80006F
:101A4000801880384163704710B50446FFF7ACFF3B
:101A50001049A00040188038406B002801D0804712
:101A600010BDE106C90E012088400B49086010BD79
:101A70001320E9E71420E7E71520E5E71620E3E760
:101A80001720E1E7C013005000ED00E000E400E0A3
:101A900000E100E0D090002080E200E00843012156
:101AA000890303460B4343490B80434B184308808B
:101AB000092002434A8070473E490A880F239B0150
:101AC00000079A43800D02430A807047394900207D
:101AD0000880704737483949028802231A43028038
:101AE000491E02D302889207FAD40021018140895D
:101AF00070470AE000BF00BF00BF00BF00BF00BFCB
:101B000000BF00BF00BF00BF00BF401EF2D2704741
:101B100070B50222510204464E003046FFF7BEFF68
:101B20001420FFF7E6FF002C01D0092000E0072079
:101B3000FFF7C2FFFFF7CEFF05460120FFF7D9FFF1
:101B4000022200213046FFF7A9FF002C01D0092016
:101B500000E00720FFF7B0FFFFF7BCFF4019154A70
:101B60000021118070BDF0B5124C15482080142062
:101B7000FFF7BFFF01256D02A580E5802088E90001
:101B80000843208020888E10B0432080FFF7A2FFFA
:101B90000746208830432080FFF79CFF02467800EC
:101BA00071424018281A52005118691AA080E18029
:101BB000F0BD00000015005001400000A0860100AB
:101BC0000148000008B58921052000070181012195
:101BD000614A4903118001888022114301800188F4
:101BE0008908890001805D48018A0222114301822F
:101BF000FFF7A8FA01F050FA01F054FA0020694604
:101C000001E00888401C088008889128F9D308BDA5
:101C100008B55349002008804880534A514BD3806F
:101C2000FF23D2331381C880C32151804F4A08213A
:101C300011806946088003E06A461188491C1180BA
:101C4000694609889129F7D36946088003E06A4606
:101C50001188491C1180694609889129F7D3694682
:101C600001E00888401C088008889128F9D308BD45
:101C70003F4A5080918001201080D088C007FCD15D
:101C80007047F1B5FFB0FFB094B011AC3348049485
:101C9000008AA41C1090FFF795FF314801880F912E
:101CA00041880E913049CA880D920A890C92C288E7
:101CB0000B92408B0A902F484088099048888446B0
:101CC000FFF7A6FF00252B46FF2111A8FFF7D0FF45
:101CD00000210A460846049E275C365C7E40F607D3
:101CE000F60F8E401643491CC9B2F2B2082906D13C
:101CF000FFA9C96C4A556D1C0021ADB20A461030CF
:101D0000FF2680B2B600B042E5D95B1C9BB2022B25
:101D1000DAD312491098088214490020088010482C
:101D20000F9901800E9941800F490D9ACA800C9A33
:101D30000A810B9AC2800A9A42830E4A09985080FF
:101D40006046488005200007018880229143018079
:101D50007FB07FB015B0F0BD00020040E030005011
:101D60000024005080800000602800502020005097
:101D7000003500500026005070B516460C4605464A
:101D800001280FD106221749174801F091F90028C0
:101D900008D006221449304601F042F9062020708E
:101DA000002070BD32462146284601F087F970BDFB
:101DB00070B50E480E49C405228880252A4322802A
:101DC0000C4A53891B0701D4401EFAD20A4A01204B
:101DD00010600622044801F023F92088A8432080DF
:101DE00070BD0000A83C03000D800020A08601000B
:101DF000D47F04002000005000800040F8B54E4F12
:101E00004E4C786D009020790025022801D10020E9
:101E10000090FEF729FF00280DD101F055F90028A8
:101E200009D0E0780125002805D005263607B08ABC
:101E3000C00701D004257CE001F050F8002878D1DB
:101E40002079002801D1386D00903D488069002834
:101E500001D0786D0090A1786846009F01F03AF9B2
:101E6000002866D0A178684601F04AF8002860D0C2
:101E700001F036F900285CD0FF2000972D300127B3
:101E8000BF07396A8142FCD3A178684601F022F984
:101E900000280CD0A178684601F032F8002806D05E
:101EA000284A832012780099022A03D003E001F027
:101EB0001DF93EE0B520244A1378012B00D12130D2
:101EC00000231370FB6B0F229B0A9B021343FB63DF
:101ED000FA6B1E4B80021A400243FA63F86B3722FA
:101EE000C002C00A92051043F8630425002901D0FE
:101EF000091D009100986421C00201F0FDF8144909
:101F0000401E08602179002900D0012101F0FAF873
:101F10001048C06A8047386B0004C00FFBD00E48E1
:101F20000168C905FCD501F0F3F8308980218843A8
:101F300030812846F8BD000060020020B20708008A
:101F400050070800780308003D030800FF03E0FF86
:101F500014800020080808000002004070B5012528
:101F6000AD07AC6B2046FEF75CFE8A4901F0C4F871
:101F700027221201511A00D10121874A50601160B5
:101F8000286B0821884308432863844804608448F8
:101F90000068002802D0A04200D200BE70BD10B57B
:101FA000052000074189890708D0418989088900EF
:101FB00041817C494A88520852004A800189802226
:101FC00011430181018A042291430182818A890798
:101FD000FCD501F0A3F8012080070169490700D56D
:101FE00000BE01694907FCD510BDF8B56E4EF088FA
:101FF00000282DD10120F0806C4908200880052799
:102000003F077889800720D0B88A400701D5FEF7BE
:1020100019FD644D2888802108432880644CFF20E6
:10202000608004202080FFF74AF87D21C900E08805
:10203000A288000480188842F9D905202080B08841
:10204000788029888020814329805A49102008609F
:10205000F8BD70B5FFF73EF8FFF7A1FF0026524C20
:102060000520E6800007418A8022914341824F4843
:10207000018949084900018101F038F801208007F1
:10208000816904221143816101F04EF84949102011
:1020900080310125086001F04DF801F051F8414808
:1020A00026704089800510D5607800280DD14248FF
:1020B00065700088C00708D10120FFF729FD8B213A
:1020C0008900884201D90220607070BD10B501F00E
:1020D0003DF800F057F834490120087010BD10B5E4
:1020E00001208007008A000601D500F04BF810BDE2
:1020F00010B501F031F810BD10B50124A407208AF5
:10210000000715D501F02EF8206840004008610056
:10211000084320602068C00FFCD11F488030016850
:102120000906090E01D0012101601F490420087031
:1021300010BD70B52148008885062148AD0E446861
:102140002048006F0078002802D1284601F010F8DE
:102150001D480089144EC00507D520060BD5E007A1
:1021600009D0284601F00AF803E0200603D5E0076D
:1021700001D003203070200403D5E00501D50220F2
:10218000307070BD10B508490120887000F0FCFF68
:1021900010BD0000710200004000004018800020C7
:1021A00014800020200000503C0308000033005041
:1021B0000016005000E200E0001500500020005022
:1021C00000020040E0010020002C005008B5002073
:1021D00002460090174B1D21174800F06BFD08BD0B
:1021E000F8B516460C4607464A8809883E23134828
:1021F00000F028FF0546207900F0CCFF2880AE7063
:10220000002E0BD0002000900346618801220A486E
:1022100000F078FD284600F01BFFF8BD39463A2251
:102220000A31281D00F0FCFE6088022100F0DAFE71
:10223000F0E70000C83300201C800020017400007B
:102240007CB51E4615460C46088800F0A9FF0146DD
:1022500068460171458006804423224669466E48DF
:1022600000F0FCFC02468C2804D0002A04D0694609
:10227000002013E001207CBD67482946006800F07B
:10228000BDFC0646A07800280BD030463A22211D1E
:102290000A3000F0C5FE002269463046FFF7A0FF75
:1022A00009E05E4C3046214600F029FBF480012114
:1022B000284600F097FE00207CBD10B556480C461D
:1022C0001146006800F09AFC218841816188818173
:1022D000417A491C4172002010BD1CB54E480C4685
:1022E0001146006800F08AFC024608300094019014
:1022F00090894B4B09210E3200F0EBFB00201CBDF6
:1023000070B514460D46104600F048FE0646424899
:102310002146006800F072FC0446012E02D0022E15
:1023200029D033E06A780A2A03D0002A01D0014676
:102330000DE0E0883949884215D16089002804D031
:10234000607A012807D9842200E0832221460846CA
:10235000FFF746FF1AE03348E08021460A31204665
:1023600000F001FB12E021462D4A0E31092000F059
:1023700074FB0246EAE72878082807D16A78002A21
:1023800004D000232849204600F0D1FC002070BD75
:1023900070B521480D461146006800F02FFC044638
:1023A000007900F0F7FE2A881F49904216D1A878DC
:1023B00009280CD2062242431219138A002B06D098
:1023C0002072A2896189204600F056FA04E00023B9
:1023D0008222204600F0ABFC002070BD0023812249
:1023E000F7E710B50C480C461146006800F006FCF3
:1023F000234600220C4900F09AFC002010BD1CB5B9
:102400000888094900230090891E0193024800F0C2
:10241000FDFB00201CBD00001C8000200A180000ED
:10242000D8330020032800000474000008B5002001
:1024300002460090284B0F21284800F03BFC08BDC5
:10244000F8B517460D4606464A88098822232448CF
:1024500000F0F8FD0446287900F09CFE2080A7706B
:10246000002F0BD0002000900346698802221B48F1
:1024700000F048FC204600F0EBFDF8BD3146204658
:102480000A2216310E3000F0CBFD31460A220C3103
:10249000201D00F0C5FD314620460A2220311830AB
:1024A00000F0BEFD6888012100F09CFDE2E770B5F8
:1024B0000E4604464288018809480423801D00F026
:1024C000C1FD0546207900F065FE2880AE702846E3
:1024D00000F0BEFD70BD00005434002028800020B4
:1024E000013C00007CB51D4616460C46088800F0ED
:1024F00057FE014668460171468005802A23224620
:102500006946D84800F0AAFB02468C2804D0002A6D
:1025100004D06946002021E001207CBDD14831462D
:10252000006800F06BFB0546A078002819D0214612
:1025300028460A220E31163000F072FD28460A2283
:10254000211D0C3000F06CFD214628460A2218316E
:10255000203000F065FD002269462846FFF770FF35
:102560000AE0C14C2846214600F0C9F9EC802C81D4
:102570000221304600F036FD00207CBD70B5B94820
:102580000D461146006800F039FB04460020A07299
:10259000207900F0FFFD2A88B44990420FD1638A68
:1025A000002B05D0E289A189204600F065F904E0FE
:1025B00000238222204600F0BAFB002070BD0023D9
:1025C0008122F7E770B5A7480D461146006800F074
:1025D00015FB04460120A072207900F0DBFD2A885B
:1025E000A24990420FD1E38C002B05D0628C218C44
:1025F000204600F041F904E000238222204600F04A
:1026000096FB002070BD00238122F7E738B595487E
:102610000C461146006800F0F1FA0546007900F01A
:10262000B9FD2188884207D1E078022804D8A07833
:10263000002803D0012804D081210FE00C20698AF2
:1026400001E0A98B0D20002907D000900123E21C96
:10265000284600F0D2F9002038BD82212846FFF735
:1026600026FFF8E710B57F480C461146006800F0D9
:10267000C5FAC1887C4A914204D121888181618850
:10268000C18110E0784A521E914204D12188C18252
:102690006188018307E0744A521C914206D1218867
:1026A000018461884184C17A491CC172002010BD37
:1026B0001CB56C480C461146006800F09FFA018971
:1026C000694A914207D101460A3100940191C489B7
:1026D000674B8A1D1AE0644A521E914209D1014695
:1026E0000A31634B009401911B1D0246048B1A3280
:1026F0000CE05D4A521C91420CD101460A315C4B00
:1027000000940191448C0833024624320121204672
:1027100000F0DFF900201CBDF8B514460D46104648
:1027200000F03CFC06464F482146006800F066FA7F
:102730000446022E02D0012E64D077E068780A2881
:1027400001D0002872D1484920890027494E4D1CEC
:10275000884215D1E08888420CD1A089002804D095
:10276000E07A012803D9842247E0832245E021460C
:102770000C3131E0B04259D121463D4A10311BE0C5
:102780002946394D6D1E88421CD1E08888420DD102
:10279000208C002802D0214620311DE0E772294616
:1027A000204600F0ACF8E58025813FE0B0423DD105
:1027B0002F4A214608322431012000F04EF9020050
:1027C000ECD01AE0A84231D1E088A8420BD1E08ACF
:1027D000002806D021461631204600F0C4F8E680D5
:1027E00024E0002209E0B04220D1214A21460832EB
:1027F0002431012000F031F9024621460846FFF756
:102800001FFE13E02878082808D00C2801D00D28D6
:102810000CD169782046FFF74AFE07E06A78002A63
:1028200004D000231149204600F081FA0020F8BDB1
:1028300010B50C480C461146006800F0DFF923463D
:1028400000220A4900F073FA002010BD1CB5088868
:10285000064900230090091F0193024800F0D6F9B1
:1028600000201CBD2880002003180000063C00004A
:10287000643400200328000010B5428800791C460B
:1028800001020823FE480C3100F0DCFB0821017036
:102890000121417000218180C180448000F0D8FB7B
:1028A00010BD10B50C460988002910D04288007967
:1028B00006230102F2480C31401D00F0C3FB102139
:1028C0000170218841806188818000F0C1FB10BDCA
:1028D00010B50C460988002910D0428800790623DB
:1028E0000102E7480C31401D00F0ACFB11210170E2
:1028F000218841806188818000F0AAFB10BD10B55D
:10290000428800790C460102DD480823401F0C3143
:1029100000F098FB02460320107001205080801EBA
:102920009080022050709471210AD171104600F0FD
:102930008FFB10BD10B5428800790C460102D048CB
:102940000823401F0C3100F07DFB04210170218819
:102950004180618881800221417000218171C171B3
:1029600000F076FB10BD10B5428800790C460102DC
:10297000C3480823401F0C3100F064FB052101709F
:10298000218841806188818002214170002181710C
:10299000C17100F05DFB10BD70B50D4609886A7904
:1029A0006B888A1801790024090240880C31521E74
:1029B0005B1C9A4216DB0246B1480823401F00F018
:1029C00041FB0146072008706A88521C4A8028880B
:1029D0006A798218521E8A80022048708C71CC71EC
:1029E000084607E00A46014603200223000300F0E0
:1029F00029FB447000F02CFB70BDFFB50E46194654
:102A000042881D460A3100798BB201029C4881B090
:102A1000801C0C310A9F00F015FB00218180018190
:102A2000077046800446C5800120607020462A4613
:102A30000A30039900F0F4FA204600F009FB05B0D3
:102A4000F0BD1CB56B461A71120A5A710C22009225
:102A5000022301AAFFF7D1FF1CBD70B50546002077
:102A600003460EE006245C430E5B002E0ED09E0053
:102A7000B6186418F6782479A64300D085205B1C2C
:102A8000DBB2AB4201D20028ECD070BD9C00A41890
:102A9000A478FF2CF3D18320F1E7F0B505460020A0
:102AA000044611E066008E5B002E0BD1A600B6181E
:102AB000B778FF2F06D1F67806277E439E5B002E5F
:102AC00000D08320641CE4B2AC4201D20028E9D0DB
:102AD000F0BDFFB581B015460F4600240A9E26E0E2
:102AE0000498A100425A7179B01D00F05FFB0028E4
:102AF0001BD0204606223188504329527288411942
:102B00004A8032790A712B5C019AD21A521C4A719E
:102B10000B990978A14206D006225143285C6A5CD1
:102B2000801A491948710B980470641CE4B2BC42C5
:102B3000D6D384E7FFB581B01D461646074600246C
:102B400016E0A0008119CA780A998A420ED1325A39
:102B5000A978E81C00F02AFB002807D00299600041
:102B6000095A002902D102992A880A52641CE4B247
:102B7000BC42E6D363E7F8B500240546002815D02B
:102B80004048C069884211D9286800280ED08F00BB
:102B9000C659002E0AD0002A01D030469047304650
:102BA00000F00AFB29680020C85100E0812420467B
:102BB000F8BD70B58124054600281DD0314EF0695E
:102BC000884219D92868002816D02846FFF7D3FF75
:102BD000040011D10146F26904E08B002868491C09
:102BE000C058C9B28A4202D90028F6D004E00028B1
:102BF00002D1284600F009F9204670BD02460020A7
:102C0000002A02D0080A800010587047FFB581B032
:102C100007461E460D46039800F0C0F9B0421CD08E
:102C200038680399FFF7EAFF040016D0628821880C
:102C30000423284600F006FA05460A982880608892
:102C40000B9A010A3846FFF7B4FFA870284600F037
:102C5000FFF93146039800F0C5F9F0E6F8B50C79B4
:102C600015460E460746FF2C21D07088010AA14266
:102C70000ED02102C0B201433288284604E0000091
:102C800007300000E001002000F09CFA8C250FE0E6
:102C90001A462146384600F0C2F8050008D13868C7
:102CA000A10040580622314600F0BAF900E089251B
:102CB0002846F8BDFFB5074600686F4D81B00E4647
:102CC00000280ED0002406E0214638460A9AFFF775
:102CD00052FF641CE4B2E869A042F5D8384600F01F
:102CE00094F8F0B2049900F073FA002406E0200290
:102CF0003043039900F076F9641CE4B2E869A0421D
:102D0000F5D89CE6FFB581B01F4615460C4608462F
:102D10000A9E00F043F9A84208D13946204600F047
:102D200061F9210A32460198FFF743FF87E6FFB5B4
:102D300081B00746039800251E460C46002800D1A6
:102D4000B5887A882846083083B23988204600F052
:102D500079F90446387900F01DFA20800398A071B3
:102D600000206080A580002E06D0308860802A4632
:102D7000B11DE01D00F054F9204600F069F95EE64F
:102D80000A880270120A42708A788270CA78C27009
:102D90000A7902714A7942718979817107207047F5
:102DA0004278037812021A430A8082788A70C278C5
:102DB000CA7002790A7142794A7180798871072054
:102DC000704710B5FFF702FAFFF730FB10BDF7B5FB
:102DD0000402274606460F370D46384600F0DEF857
:102DE000002805D0EAB23B463046029900F0F6F9D9
:102DF0001D34204600F0D2F8002805D0EAB2234660
:102E00003046029900F0EAF9FEBD10B504460068AC
:102E1000002803D000F0D0F90020206010BDF7B5E5
:102E2000054600680024144E0F4600280BD1F069B7
:102E30000121800000F0D8F9286000280BD0F1694A
:102E4000890000F0D7F9F069B84212D92868BF00AC
:102E5000C059002801D089240CE00121029800F01B
:102E6000C3F90600F7D0029900F0CAF92868C651E4
:102E700000E081242046FEBDE0010020064C012533
:102E8000064E05E0E36807CC2B430C3C9847103412
:102E9000B442F7D3FDF7E0FAD8340020183500200B
:102EA00003B40148019001BD9D1B020003B4014819
:102EB000019001BDDF29030003B40148019001BD69
:102EC0006F39030003B40148019001BD032B0300D7
:102ED00003B40148019001BD218D020003B40148F3
:102EE000019001BDF92B030003B40148019001BD1D
:102EF000BD1E030003B40148019001BD012C030075
:102F000003B40148019001BD7F65020003B401488C
:102F1000019001BD1B30030003B40148019001BDC5
:102F20006B30030003B40148019001BD8F1F030003
:102F300003B40148019001BD7B1B020003B40148AA
:102F4000019001BDA17D020003B40148019001BDC3
:102F5000672D030003B40148019001BDB18C02004C
:102F600003B40148019001BDAB8C020003B40148D9
:102F7000019001BDDF89020003B40148019001BD49
:102F8000598C020003B40148019001BD7B6402002A
:102F900003B40148019001BD8D64020003B40148EF
:102FA000019001BDAD24030003B40148019001BDAF
:102FB0006F3C030003B40148019001BD437A020055
:102FC00003B40148019001BD151D020003B401487E
:102FD000019001BD431D020003B40148019001BDF1
:102FE000238E020003B40148019001BD292403008F
:102FF00003B40148019001BD3DA4020003B401489F
:10300000019001BD0FB0020003B40148019001BD61
:10301000A3A2020003B40148019001BDFBA202007B
:1030200003B40148019001BD8139030003B4014894
:10303000019001BD99A2020003B40148019001BDB5
:103040006B96020003B40148019001BD7D2103008D
:1030500003B40148019001BDAD21030003B4014850
:10306000019001BDEF61020003B40148019001BD70
:103070005350020003B40148019001BD2D500200DD
:1030800003B40148019001BD31D2020003B40148EC
:10309000019001BDF13B030003B40148019001BD63
:1030A0000B8C020003B40148019001BD398B020072
:1030B00003B40148019001BDD939030003B40148AC
:1030C000019001BDE727030003B40148019001BD51
:1030D0002D1E030003B40148019001BD2D270300FC
:1030E00003B40148019001BDF18D020003B4014811
:1030F000019001BD0B91020003B40148019001BD94
:103100000739030003B40148019001BD1B650200AB
:1031100003B40148019001BD452A030003B40148EE
:10312000019001BD9D2A030003B40148019001BD37
:10313000132D030003B40148019001BDED1B0200F3
:1031400003B40148019001BDFB2A030003B4014808
:10315000019001BD452F030003B40148019001BD5A
:103160006F62020003B40148019001BD5F6202007A
:1031700003B40148019001BD198A020003B401485B
:10318000019001BDE78C020003B40148019001BD2C
:103190004F62020003B40148019001BD8BE10200BF
:1031A00003B40148019001BD5FE1020003B401488E
:1031B000019001BD3195020003B40148019001BDA9
:1031C0008F20030003B40148019001BDE7210300F3
:1031D00003B40148019001BD6B23030003B401480F
:1031E000019001BD3DE1020003B40148019001BD21
:1031F000CD1F030003B40148019001BDB3390300A2
:1032000003B40148019001BDB339030002E008C8CE
:10321000121F08C1002AFAD170477047002001E050
:1032200001C1121F002AFBD170470101000A0428C6
:103230000A040203AA0055032A00A001FFFF2C0183
:103240000A0000007D7202000B000000937702006C
:103250000C000000F37602000D00000099720200DD
:103260000E000000CB7202000F0000001B7702006E
:1032700010000000F5720200120000003773020017
:10328000110000007D73020013000000A77302000C
:1032900014000000D1730200150000000376020044
:1032A00016000000357602001B00000017740200B3
:1032B0004D0000008F7602001700000049770200E1
:1032C0001800000033750200190000007775020035
:1032D0001A000000BD7502001C000000B577020056
:1032E0001D000000D57702001E0000006B77020071
:1032F0001F0000009374020020000000E37402002D
:10330000210000001B7802004900000059780200EB
:10331000000800004D0D002001000000657802004B
:10332000090000007D78020005000000A778020077
:1033300006000000D178020002000000357902008A
:1033400007000000F9780200000000002379020065
:10335000030000009579020004000000B779020024
:1033600008000000217A02004C000000A97B020046
:103370004032002026000000BD0E0020490F002032
:10338000C441030070330020AC05080006000100B2
:1033900000000000B83300202006080002000100F1
:1033A000FFFF0000EB0D002002FC0000958F0200E3
:1033B00003FC0000A18F0200A033002003000000E6
:1033C000FF003F00FF03FF01343400204C34002095
:1033D0002080002003000800292A0002242A00027D
:1033E000252A0002272A0002262A0002282A000293
:1033F000232A00022A2A0002502A00020374000035
:103400009123002008300000E32300200330000057
:10341000BB22002005300000DB22002000740000E9
:103420004122002003380000FF230020003000006C
:103430000123002000000000000000000C340020E8
:1034400002000000FC330020020000001C340020B9
:1034500003000000B8340020D03400202C8000206D
:1034600003000800062AFF0A062AFF04072AFF02B3
:10347000033C00007D250020043C00000D260020B8
:10348000053C0000C5250020083000003128002040
:10349000033000006526002005300000B126002022
:1034A000003C0000E5240020033800004D280020E7
:1034B000003000001927002000000000000000007C
:1034C000703400200400000090340020020000004E
:1034D000A0340020030000001C3500201C35002013
:1034E000E00B00001C3200201C3500200080002072
:1034F000340000001C3200201C35002020900020E9
:10350000C40000001C32002008090800D028080070
:0C351000300700001C320020800C00007E
:040000052000045182
:00000001FF
