:020000042000DA
:1000000000980020A5040020AD040020C5040020B5
:1000100000000000000000000000000000000000E0
:10002000000000000000000000000000DD040020CF
:100030000000000000000000F5040020F70400208C
:10004000572600204B2700200D31030039270020C0
:10005000BF2600208D3103005D270020652700208A
:10006000F9040020F90400209F270020AD3103008F
:1000700057810200F9040020F9040020F90400204F
:10008000F9040020F9040020F9040020DD200020FC
:10009000E1200020E5200020E9200020ED200020C4
:020000042000DA
:100160003F0000008B050020971800202F3400204E
:10017000000000000000000063800200BD8002005B
:100180002D0C0020FB800200198102003581020045
:100190005D810200C925002071050020F90B0020B7
:1001A000030C002000000000000000003F000000E1
:1001B000F487002000080000540E0800B00700007B
:1001C000480A08000004000010160800E0120000B1
:1001D000000000002000000048000000580000005F
:1001E000240800006800000098000000C80000001B
:1001F000CE000000202A00008E2E00000600000025
:100200008813000021190020E9600200FD9302001C
:100210002B13002019280300A5740200E5230020F9
:1002200003000000D52002003B3400200400000041
:10023000D74902000F490200831D020063910200AA
:10024000B7910200BF910200078202007182020092
:100250000A3A0020AD830200938402004185020027
:1002600015860200378602005F860200758602004E
:10027000F9870200258902005D8A0200D38C020002
:10028000098D02000F900200438D0200278E0200AC
:10029000F98E0200478F02007F0B0020D58F0200ED
:1002A00049510200775102002F5202001000000055
:1002B00020030000803E000000000000000000005D
:020000042000DA
:1002C000504600030003983A6400F401B80B000C98
:1002D000B80B120030003000CD009A01120024004B
:1002E00030006400B0001800280012001200D0078F
:1002F0000000FFFF00000000000000000000000000
:100300001F000002444131343538302D30310000B7
:1003100000000000000000000000000000000000DD
:0403200000000000D9
:020000042000DA
:10034000FFFF010000C201000000000000000000EB
:100350000000F4010100011B0A071AFFD200021578
:10036000585CDE931B0142CC9A1325009BEDC65EC0
:1003700000010002C5000000000009FF00605257A4
:100380002D424C450000000000000000000000006D
:100390000000000000000000000044413134353806
:1003A00078000000000000000000000000000000D5
:1003B000000000000000000000000000000000003D
:1003C000000000000000000000000000000000002D
:1003D0000000000000000000010000CAEA80D00711
:0403E000064064323D
:020000042000DA
:100440000348854603F050F800480047C7200200E3
:10045000009800200F4906200880FF200E49013037
:1004600008600E4988683E2290432E308860002242
:10047000052000070280018A0F231B021943018215
:1004800001210748C90404C1401E0028FBDA62B6F6
:10049000704700000034005080E100E0003300505D
:1004A000FF0B00001548804715480047042071469F
:1004B000084203D0EFF3098012490847EFF30880A0
:1004C0001049084704207146084203D0EFF3098021
:1004D0000D490847EFF308800B490847042071468F
:1004E000084203D0EFF3098008490847EFF308807A
:1004F00006490847FEE7FEE7FEE700005504002036
:100500004104002021090020110500208F0E002049
:1005100005221207518A8023194351821249036828
:100520000B6043684B6083688B60C368CB60036972
:100530000B6143694B6183698B61C369CB6108625D
:100540000A48836A4B62C36A8B62036BCB62C36BDC
:100550000B63436B4B63806B8863908A800601D585
:1005600000BE7047FEE700000018080000ED00E044
:1005700010B596490020086000F0FCFA01208007C1
:10058000016B49004908016310BD08B5904901207D
:10059000087090480821018002F0B8FF01F066FA67
:1005A000FF2401340D202146800102F0B5FF01F047
:1005B00035FF00F037FA88480178017087480178E4
:1005C0000170874801780170012002F0ABFF01F053
:1005D000C5F800F05FFA042000F0F0F8072000F002
:1005E000EDF80A2000F0EAF8062000F0E7F80B200A
:1005F00000F0E4F8012000F0E1F8022000F0DEF85D
:10060000002000F0DBF87748006802F091FF00F06E
:10061000EAFB00F01CFC01F063F8A005016821432F
:10062000016000F026FB00F0F3F8FFF7A1FF0027C0
:1006300005242407E7826C484188E0229143A031D9
:100640004180012002F07AFF04262089000619D596
:1006500001208007006B000414D402F075FFC0076E
:1006600010D1042002F076FF054602F079FF002D3C
:1006700008D004216846009702F078FF002801D0D6
:1006800000F08BFA00F0C2FA0028DED072B601F05A
:10069000EBFE0546042806D0022D0BD0032D09D011
:1006A00001287DD088E051480078012801D0032539
:1006B00000E00225208A304320824D48C06901288D
:1006C00010D9032D19D102F057FF002815D002F0E0
:1006D00059FF002811D0032002F05AFF00280CD047
:1006E000022007E0032D08D1032002F051FF00286B
:1006F00003D001203F49087000E002253E4801690F
:1007000031430161618A202291436182218A022260
:1007100011432182618A022D1ED0314361827F21E3
:100720002288890180231A4322800022521CD2B2DF
:100730000A2AFBD3628A10231A4362822F4A491E77
:10074000516121888022914321802D49022D0F7013
:100750000AD0032D08D025E031436182618A10223E
:100760009143618226490F701F494A88FF23013354
:100770009A434A806288234B1A804A8801231A438D
:100780004A8000970099491C00911429FADB61897D
:1007900089088900491C618161894906FCD500E00E
:1007A00005E0678030BF0169B143016104E000F0FA
:1007B0002DFA002800D030BF62B646E7C106C90E48
:1007C0000120884010490860704700008C03080031
:1007D000FC2808000033005000000800202A080010
:1007E0002408080004900020200000505402080053
:1007F000E0010020C406080000ED00E00080004099
:100800002E2908003029080080E200E0704700002F
:100810003E480178002902D08021417070473C4950
:10082000002008703B49C87070473848017800299B
:1008300002D0812141707047354901200870354947
:10084000C870704731480178002902D08221417078
:1008500070472F49022008702E490120C870704748
:100860002A488178002904D0491E0906090E8170A2
:1008700017D142780021002A04D09207920F02700B
:10088000417004E00278002A01D0521E0270120664
:10089000120E017005D0012A02D0022A01D1D1E73F
:1008A000C3E7704710B5194CA078401CA0702078A1
:1008B000002805D102F072FE421CFFF7A9FF22704A
:1008C00010BD12490120C870704710490020C8703F
:1008D00070470E48C07870470020EFF31081012266
:1008E00082F31088052212071289120605D40A48DD
:1008F000028901231A4302811846002900D00121F0
:1009000081F310887047054800787047FD2808007B
:1009100054020800C6060800003300502C290800C5
:1009200005221207118A042319431182118A022316
:10093000194311821189402319431181184B012158
:100940001960184B08211980518A8023194351825C
:10095000154903680B6143684B6183688B61C36809
:10096000CB6103690B6243694B6283698B62C36924
:10097000CB6208630D48836A4B63C36A8B63036B66
:10098000CB63C36B084940310B60436B4B60806B9A
:100990008860908A800601D500BE7047FEE700009F
:1009A00080E200E0003300504018080000ED00E055
:1009B00070B5334B00261869F643002801D0304645
:1009C00000E00120C117020F090111430201186163
:1009D0002C480468456822432943026041605969F4
:1009E000002900D10126F117F20E49015E61114381
:1009F000046872014368224319430260416070BD7C
:100A000038B5002403220223120204212046009458
:100A100001F0CFF80022012305211046009401F0D7
:100A2000C8F838BD10B505242407208A0221884360
:100A30002082A08A0007FCD513484188FF2201329A
:100A400011434180A08880210843A0800321092010
:100A500002F0AAFDA0880121C9020843A080A08855
:100A6000032109028843FF300130A08000F01BFA07
:100A7000FFF7C6FF608A20210843608210BD000096
:100A8000700708006807080020000050A9490020EE
:100A90004860704770B505200007018930229143F6
:100AA000018101898022114301810189890889001E
:100AB000491C018101890823194301819E490C8841
:100AC00014430C80448A9C43448205894024254376
:100AD0000581058A0426B5430582858AAD07FCD5C4
:100AE000944E002575600D88012635430D804D8993
:100AF000AE05924D0E8801D52E4300E0AE430E8028
:100B00000D887826B54328350D800D880626354397
:100B10000D80458A1D4345820B8893430B800289D3
:100B2000A24302814889800503D5834905206031AD
:100B30008880012080070168821591430160804808
:100B400001683F22520291434214891801600168F2
:100B500002031143016070BD03217A4809028181BB
:100B6000082242800021491C9629FCD382807047CC
:100B70007047704710B5744802F01CFD10BD70B589
:100B80006D4C6088C006050F02F01AFD61881E22B8
:100B900091436A001143618070BD10B56B4901201B
:100BA000C863C86B0028FCD101208007C169684870
:100BB0000268914201D20022026019238A1ADB01E5
:100BC0009A4212D3016002F001FD624A1188884204
:100BD00001D9411A00E0091A89B2182905D31080F9
:100BE000012002F0F9FC02F0FDFC10BD08B50098F0
:100BF00008BD08B5009808BD08B502F0F9FC0090E2
:100C000008BD08B502F0FAFC009008BD10B53F2001
:100C100002F0FAFC002805D14F488078002803D064
:100C2000032801D0002010BD012010BD08B54B499C
:100C300001204A695206D20F13D04A699206D20F98
:100C40000FD000220A610092FF225F32009B5B1CE2
:100C500000939342FAD34969C907C90F02D002F041
:100C6000D9FC002008BD40183721C00009014018F8
:100C700070471FB5684601F03AFB009802F052FC3D
:100C80001FBD10B5364A0020117800290DD02F491C
:100C90000120C863C86B0028FCD101208007C0690F
:100CA00030490968884201D2012010BD002010702F
:100CB00002F074FC022803D002F070FC01280BD172
:100CC00029490820088005200007818A8906FCD46C
:100CD000418A802291434182002010BD002070474C
:100CE00008B515494A8801231A434A80002100911A
:100CF000491C00911429FBDB052109074A89920848
:100D00009200521C4A814A895206FCD54B89042222
:100D100013434B814880488990434881888A000664
:100D2000FCD5488980088000488148890006FCD5A8
:100D300008BD000004290800200000500010000039
:100D40000002004020300050E2040000C0000040DB
:100D50007C04080078040800A0040800001000507B
:100D6000FC280800E83E002000330050FFB581B0A9
:100D70001F460E464D780C78002002F045FC0428F2
:100D800024D000281DD121E05F48816E2E206043D1
:100D9000091888880207120F130002F041FC0705AA
:100DA00005050F050F050F008204920E062A05D2D5
:100DB0007278012A12D0072210438880641C6407CD
:100DC000640F28466D1EEDB20028DDD13B4631464A
:100DD000039A019802F02AFC05B0F0BD204602F00B
:100DE0002BFC0020F8E770B548480378021D00216D
:100DF000474D07E0CC00165D002E01D12418A560F8
:100E0000491CC9B29942F5D370BD70B505460C4670
:100E1000103C3F2002F0F8FB00280FD03D488068CE
:100E2000322806D93C498D4201D03C2801D9002006
:100E300070BD2146374802F005FC06E0204602F06E
:100E400007FC01213F2002F009FC012070BD10B514
:100E50002E490B780A1D002005E0C400145D3F2CCC
:100E600004D0401CC0B29842F7D310BD284AC0003D
:100E700010324018826010BD028908892749101A73
:100E800080B2884201D901207047002070478169F3
:100E90002039897F082905D21D4A890020325158FE
:100EA00081617047FEE71F481D4901611E4941618C
:100EB0001E4981611E49C1611E4901621E4941628C
:100EC0001E4981621E49C1621E4901631E49416378
:100ED0001E4981631E49C1631C4912485C31403080
:100EE00001601C4941601C4981601C49C1600120AE
:100EF0001B49C00608601B49CA691202120ACA616E
:100F00001749803908607047D802080004060800B5
:100F1000583B0020800408001034000030750000A9
:100F2000942703000084004062B600DF28A302007B
:100F3000704701DF1CCA0200F8BD02DF40CB02008F
:100F4000F5E703DF84D4020004DF89B0BC3302007C
:100F5000F8BD05DFF8BD06DFEC0C030070BD07DF50
:100F600080E100E000ED00E070B516460D46104649
:100F700002F04AFB002869D0340A304602F044FBF4
:100F8000012812D0A87A1E2811D029460A310E282D
:100F900045D019DC801E030002F042FB0B255829C6
:100FA000582D58315839583D5800022070BD3146EF
:100FB000274802F059FB0021204602F05BFB02218A
:100FC000304602F04BFB41E018283CD006DC1028EC
:100FD00019D012282BD0162838D130E0522822D030
:100FE000D22833D127E0204602F04AFB2EE02046EB
:100FF00002F04CFB2AE0204602F04EFB26E02046A1
:1010000002F050FB22E0204602F052FB1EE0204698
:1010100002F054FB1AE0204602F056FB16E0204690
:1010200002F058FB12E0204602F05AFB0EE0204688
:1010300002F05CFB0AE0204602F05EFB06E0204680
:1010400002F060FB02E0204602F062FB002070BD6F
:1010500001280000F8B50D46064681002B48EA88B5
:101060004458521C20686B89018F294F51430091CD
:10107000014640314A89C989511A8AB2991A89B2FE
:10108000B94214D29A4212D0294602F047FB2D8968
:101090002049009802F048FB2818801C4034E08268
:1010A0003002401C80B2042102F0D8FAF8BD282199
:1010B000304602F03FFBF8BDF8B5054687001348FF
:1010C0000C46C059C9880068114E02464032538907
:1010D000D2899A1A92B28B1A9BB2B34211D20B4E9A
:1010E0008A420ED002F02CFBF05905225F30611CC1
:1010F00002F02CFB2802401C80B2052102F0AEFA5F
:10110000F8BD2821284602F015FBF8BD4C03080065
:10111000FF7F00001027000070B50446007800250E
:101120000D2801D00A2200E002225A494B7A002BF6
:1011300006D00D2804D0637C032B01D0432551E059
:10114000097A8A4339D10D2809D00E2802D00F28F8
:1011500003D134E0607C032804D3402542E0607C66
:101160000328FAD8A07C0428F7D20A2908D0607C8A
:10117000012822D0022820D06078032809D811E065
:1011800002F0EAFA012806D16078032803D000288B
:1011900001D0492526E002F0DFFA002802D160786C
:1011A0000228F6D83020035D22462046E17C313209
:1011B000143000F019F8054614E0422512E002F060
:1011C000CBFA012807D16078052804D1A01D02F0D0
:1011D000C9FA0028DDD002F0BFFA002802D16078F9
:1011E0000228D6D8284670BDFFB5002086B0012160
:1011F0006A461170044605910021002C06D0089D16
:10120000099A1F239A4234D9402032E01C23069DBC
:10121000079AF7E76B185E78330002F001FA1D2693
:101220001010101010101010102626262626262624
:101230002626262626261010101010102600059BA4
:1012400003E06F46FF5CB74204D05B1E5BB2002B2D
:10125000F7DA03E0002B01DB4A2006E0059B6F462E
:10126000FE54059B5B1CDBB205936B5C491C591853
:10127000C9B2914201D20028CCD0914202D04A207A
:101280000AB0F0BD641CE4B2022CF9D20028B3D03D
:10129000F6E700009805080070B5EFF3108501200F
:1012A00080F31088264802F063FA0446002D1DD012
:1012B000012080F31088002C23D020462038C08BDA
:1012C000204988421DD16189208902F057FA050022
:1012D0000ED021461031A38962892089A8470028B1
:1012E00006D001280DD002280BD105E00020E0E750
:1012F000204602F049FA04E0114821460C3002F081
:10130000A1F9EFF31084012080F310880C480068E5
:10131000002802D1012002F03DFA002C03D0012068
:1013200080F3108870BD0020FAE710B5BC21064894
:1013300002F036FA0549012002F038FA10BD00002B
:10134000A805080038830000040608009912002050
:10135000F3B581B001980C460102CA1D0E3102237B
:10136000344802F029FA04700199054602273248F0
:101370008E00002C06D0042C16D0062C10D0072C82
:101380003FD108E0815905224968897C1140697084
:101390008059C77335E0084602F014FA687030E0EF
:1013A00080590F21C1732CE0044680594068417C6C
:1013B000012902D1007E01280FD0019802F008FA1D
:1013C00001210028A0590BD04268D07D00281CD0F4
:1013D00001281AD004280DD00FE0002068700DE01D
:1013E0004068C27D022A01D0042A06D1007C02286E
:1013F0000BD102E0107C022807D06F70A1590320A6
:10140000C873284602F0EAF9FEBD6970F6E70146A6
:101410000A780120042A01D9002070474A78002A5E
:1014200001D0012AF8D10A79082AF5D84979082982
:10143000F2D87047021C000028050800FFB589B0EB
:101440000D4600206946059008720B98000A00902E
:1014500002F0BEF907460B9802F0D6F800287DD0BE
:101460000B982978000A8400784E012963D004295A
:1014700004D0062948D0072968D125E03059C17B1E
:10148000032901D0042961D1697800291AD0406864
:101490001022A91C02F05AF9002F06D03159C87B3E
:1014A000032807D0042808D050E03059C07B032817
:1014B00003D04BE00B20C87348E00521009802F0F0
:1014C00093F943E00120B6E03059C07B0E283DD1AE
:1014D000009802F077F9002103E02A18401C91706F
:1014E000C0B21028F9D3688A69460883294606A83D
:1014F00008221431023002F029F906ABAA1C394641
:10150000009802F077F921E03059C07B0F281DD1F7
:10151000AA1C0A21009802F073F9002F04D0394662
:10152000009802F073F911E000231A46394600983A
:1015300002F072F90AE0012F08D10B9802F064F86A
:1015400001281CD0002801D0022005906846007AAE
:10155000002811D002AA0521009800E00CE002F05A
:101560004FF96846027A60200243684602720123FE
:101570003946009802F050F905980DB0F0BD305989
:10158000C07B0228E2D16878002851D002210B9854
:1015900002F064F8305907224068A91C173002F0A5
:1015A000D5F8E878002804D130594068407C0128FB
:1015B0003AD0009802F036F9002837D0297A0098FE
:1015C00002F036F9002833D0009802F037F90121F3
:1015D000009802F039F900282CD030594068417E3B
:1015E00000292BD0042929D0C17E027D1140C1766B
:1015F00030594068017F427D114001776846007A8A
:101600000028A7D13059022142680098173202F011
:10161000F7F8305941684031897B002913D0042103
:101620000098FFF795FE91E7022004E0062002E013
:10163000082000E00320694608728BE70021C1768C
:1016400030594068D9E70B21C1737FE728050800AE
:1016500010B50C4602F0FEF821888A002949895805
:101660000968002902D0284BC968995010BD10B5EF
:10167000144602F0F5F8210A8A00224989580968BF
:10168000002902D0204BC968995010BDFFB50F4604
:10169000100A1C498000095881B009681E46154689
:1016A000002901D0CC6803E0174900220C580A50E9
:1016B000002C0DD0201F40881449884208D1A06812
:1016C000002802D0204602F0D1F8204602F0D4F8DB
:1016D00033462A463946019802F0D4F805B0F0BDE9
:1016E00070B50B480378021D00210A4D07E0CC00BD
:1016F000165D012E01D12418A560491CC9B299427A
:10170000F5D370BD4C030800182908003883000089
:1017100004060800B03D00200F4A518807235B02F1
:10172000994340020143518070470520000701881A
:101730003022114301800188032211430180704748
:101740000520000701883022914301800188890823
:1017500089000180704700008000005030B5974A32
:101760009749D005048880231C430480954C6589E3
:101770002D0701D4521EFAD2934C01222260934CC1
:101780000A882280924A4988118001889943018001
:1017900030BD002070477047704770470020704789
:1017A00001218907086B07221043086370477047BF
:1017B00030B589498748086088494C200880874CA3
:1017C000874B203C2382884986484880884887493F
:1017D000018086491931418022214181812189007E
:1017E00001828449418284490183824911314183C4
:1017F0007F4A8249203291804122814912018A80A8
:10180000804ACA807F4D1035CD810A824A82921C5F
:101810008A826A1FCA82FF2246320A837A4A4A8330
:101820007A4A592111807949794D20310D8043251B
:101830004D80784D5582D5228A80FF22D3320A818D
:10184000754A4A81754A8A81764A75491180634989
:10185000754A60394A80CA8810252A43CA806C4A72
:101860000A3A0A815D4D714A403D6A8063820822CE
:101870004A815749654A0988403A118253496C4A5E
:10188000098811806B490978002901D03021018332
:1018900030BD4008704700B58BB0674A4262674A66
:1018A0008262674A4261674AC262674A0260674A67
:1018B0000262674A4260674AC261474A454800215E
:1018C000106045484038026B03129A430263426B32
:1018D0001F231B049A4303231B04D21842635E4850
:1018E0000268C3129A430260026803139A430260BB
:1018F00068464154491CC9B22829FAD30146282216
:10190000564801F023FFFFF753FF01F05FFE5449F3
:101910000880002001F060FE01F064FE0BB000BD05
:1019200010B52D4A0F212B48090210602A48403873
:10193000426B1F231B049A4303231B04D2184263E8
:1019400000060268D208D200026005200007028962
:1019500092089200521C0281028908231A430281D4
:10196000028A0A43028217484189890504D5018801
:101970007822914308310180FFF71AFF3948006F40
:101980000078002804D03848008814496039C8809D
:10199000012001F0D3FD10BD26480078704725498D
:1019A0000120087012493020088370472149002027
:1019B00008700F491048088370470000A086010096
:1019C000087F0400200000500080004056020800FC
:1019D0004A0308004C05540780000040602C00506A
:1019E0007F7F0000AC2900000022005009090000A0
:1019F000002400502204000030D00000EE1100004E
:101A0000002500502E020000442000004028005015
:101A10000D95000002420000E4DC0000109200007E
:101A200053780000002A00508B1000009DD5000064
:101A3000002600501C29080093170020971700204B
:101A40009D170020A117002099170020AF17002034
:101A50009B1700209318002000020040200008007F
:101A600078040800E001002052040800FEB50020C0
:101A7000F84E034628220021424392198C00491C4B
:101A800013510A29FADB401C0428F3DBFEF790FF10
:101A9000F048002208380260426015460024EE48F3
:101AA0006900475A0120A04080B207421CD028207C
:101AB00068438019A1004058411C19D0002810D05B
:101AC000C117224601F0E4FE2A0101F0E1FEE14BDC
:101AD000083B1A685B681043DE4A1943083A1060F5
:101AE0005160641C0A2CDDDB6D1C042DD6DBFEBDB1
:101AF0000095019400BEE3E7F8B5164604460D468E
:101B00000A461F460120002101F0C2FE220101F019
:101B1000BFFED04B083B1A685B6810401940084371
:101B200000D100BE032C00D10424CC496001401830
:101B3000690008183E43C680F8BD70B504460D46DE
:101B40000A460120002101F0A3FE220101F0A0FEBF
:101B5000C04A083A1368526818401140084300D13F
:101B600000BE032C00D10424BC49600140180121AF
:101B7000A940818070BD70B504460D460A4601201B
:101B8000002101F085FE220101F082FEB14A083AEF
:101B90001368526818401140084300D100BE032C5E
:101BA00000D10424AD49600140180121A9404180C1
:101BB00070BDFFB581B00C4605460A461F460120A0
:101BC00000210A9E01F064FE2A0101F061FEA14B92
:101BD000083B1A685B6810401940084300D100BEFA
:101BE000002E2146284602D0FFF7C5FF01E0FFF78F
:101BF000A4FF3B4621462846039AFFF77DFF05B028
:101C0000F0BD70B5154604460E460A460120002177
:101C100001F03EFE220101F03BFE8E4B083B1A68AC
:101C20005B6810401940084300D100BE002C07D06B
:101C3000601E8A49400070314018012C02D002E039
:101C40000020F6E7083601880122B2409143B540F2
:101C50000D43058070BD70B504460D460A4601204F
:101C6000002101F015FE220101F012FE794A083A26
:101C70001368526818401140084300D100BE032C7D
:101C800000D1042475496001401800880121A94051
:101C9000084000D0012070BDFFB514460D46064631
:101CA0000A4681B00120002101F0F2FD320101F06D
:101CB000EFFD684B083B1A685B6810401940084309
:101CC00000D100BE66A00068009066488089234667
:101CD000133BFF2201329A400B999043002901D017
:101CE000012700E00027D10701D0002138E091074B
:101CF00001D5012134E0510701D5022130E011075F
:101D000001D503212CE0D10601D5042128E091065C
:101D100001D5052124E0510601D5062120E0110658
:101D200001D507211CE0D10501D5082118E0910556
:101D300001D5092114E0510501D50A2110E0110552
:101D400001D50B210CE0D10401D50C2108E0910450
:101D500001D50D2104E0510401D50E2100E00F2131
:101D60008F4040493843888188890B9F80098001D2
:101D7000384388810F8A9743D00701D0002038E08C
:101D8000900701D5012034E0500701D5022030E052
:101D9000100701D503202CE0D00601D5042028E04F
:101DA000900601D5052024E0500601D5062020E04C
:101DB000100601D507201CE0D00501D5082018E049
:101DC000900501D5092014E0500501D50A2010E046
:101DD000100501D50B200CE0D00401D50C2008E043
:101DE000900401D50D2004E0500401D50E2000E040
:101DF0000F200A9A824017430F820F8A0122104651
:101E000098408743C30701D0002042E0830701D5F3
:101E100001203EE0430701D502203AE0030701D547
:101E2000032036E0C30601D5042032E0830601D545
:101E300005202EE0430601D506202AE0030601D541
:101E4000072026E0C30501D5082022E083050BD535
:101E500009201EE070070800C03D0020003000503F
:101E600001090F1900140050430501D50A2010E0A4
:101E7000030501D50B200CE0C30401D50C2008E0BC
:101E8000830401D50D2004E0400401D50E2000E0BC
:101E90000F20049B83401F430F8295486100081860
:101EA000418B6B4689099B5D89015B19194341830D
:101EB000A007C30EFF21994080209840002C0BDA28
:101EC00023071B0F083B9D088A4BAD00ED18EB69FB
:101ED0008B430343EB6107E0A508874BAD00ED188A
:101EE0002B688B4303432B60E006C00E824083487F
:101EF000026084E67E4940310A8A0121133881401C
:101F00000A40C80701D0002038E0880701D5012029
:101F100034E0480701D5022030E0080701D503204E
:101F20002CE0C80601D5042028E0880601D505204C
:101F300024E0480601D5062020E0080601D5072048
:101F40001CE0C80501D5082018E0880501D5092046
:101F500014E0480501D50A2010E0080501D50B2042
:101F60000CE0C80401D50C2008E0880401D50D2040
:101F700004E0480401D50E2000E00F20C240D0B29A
:101F8000704710B55A4C4034238A012213388240DE
:101F90009343D00701D0002038E0900701D50120FD
:101FA00034E0500701D5022030E0100701D50320AE
:101FB0002CE0D00601D5042028E0900601D50520AC
:101FC00024E0500601D5062020E0100601D50720A8
:101FD0001CE0D00501D5082018E0900501D50920A6
:101FE00014E0500501D50A2010E0100501D50B20A2
:101FF0000CE0D00401D50C2008E0900401D50D20A0
:1020000004E0500401D50E2000E00F2081400B4376
:10201000238210BD10B5364C4034E38901221146AD
:10202000133881408B43C80701D0002038E088076F
:1020300001D5012034E0480701D5022030E008072F
:1020400001D503202CE0C80601D5042028E088062D
:1020500001D5052024E0480601D5062020E0080629
:1020600001D507201CE0C80501D5082018E0880527
:1020700001D5092014E0480501D50A2010E0080523
:1020800001D50B200CE0C80401D50C2008E0880421
:1020900001D50D2004E0480401D50E2000E00F20FA
:1020A00082401343E38110BD154A800080188038B8
:1020B0004163704710B50446FFF7ACFF1049A0001C
:1020C00040188038406B002801D0804710BDE106E1
:1020D000C90E012088400B49086010BD1320E9E7B4
:1020E0001420E7E71520E5E71620E3E71720E1E7EE
:1020F000C013005000ED00E000E400E000E100E06B
:102100001008080080E200E008430121890303462B
:102110000B4343490B80434B18430880092002437B
:102120004A8070473E490A880F239B0100079A4363
:10213000800D02430A8070473949002008807047AB
:1021400037483949028802231A430280491E02D3C4
:1021500002889207FAD400210181408970470AE081
:1021600000BF00BF00BF00BF00BF00BF00BF00BF77
:1021700000BF00BF00BF401EF2D2704770B5022200
:10218000510204464E003046FFF7BEFF1420FFF711
:10219000E6FF002C01D0092000E00720FFF7C2FF76
:1021A000FFF7CEFF05460120FFF7D9FF02220021ED
:1021B0003046FFF7A9FF002C01D0092000E00720DE
:1021C000FFF7B0FFFFF7BCFF4019154A002111804F
:1021D00070BDF0B5124C154820801420FFF7BFFFEA
:1021E00001256D02A580E5802088E9000843208054
:1021F00020888E10B0432080FFF7A2FF074620887A
:1022000030432080FFF79CFF02467800714240185F
:10221000281A52005118691AA080E180F0BD000010
:102220000015005001400000A08601000148000098
:1022300008B589210520000701810121614A490370
:10224000118001888022114301800188890889005A
:1022500001805D48018A022211430182FFF7A8FA3A
:1022600001F01CFB01F020FB0020694601E008881A
:10227000401C088008889128F9D308BD08B5534947
:10228000002008804880534A514BD380FF23D2332B
:102290001381C880C32151804F4A082111806946AB
:1022A000088003E06A461188491C11806946098844
:1022B0009129F7D36946088003E06A461188491CD2
:1022C0001180694609889129F7D3694601E0088899
:1022D000401C088008889128F9D308BD3F4A5080E7
:1022E000918001201080D088C007FCD17047F1B5E3
:1022F000FFB0FFB094B011AC33480494008AA41C22
:102300001090FFF795FF314801880F9141880E9199
:102310003049CA880D920A890C92C2880B92408B70
:102320000A902F484088099048888446FFF7A6FF06
:1023300000252B46FF2111A8FFF7D0FF00210A46F8
:102340000846049E275C365C7E40F607F60F8E40FA
:102350001643491CC9B2F2B2082906D1FFA9C96CBB
:102360004A556D1C0021ADB20A461030FF2680B2DE
:10237000B600B042E5D95B1C9BB2022BDAD31249FE
:102380001098088214490020088010480F99018095
:102390000E9941800F490D9ACA800C9A0A810B9AB6
:1023A000C2800A9A42830E4A09985080604648804B
:1023B0000520000701888022914301807FB07FB013
:1023C00015B0F0BD00020040E03000500024005085
:1023D0008080000060280050202000500035005010
:1023E0000026005070B516460C46054601280FD150
:1023F00006221749174801F05DFA002808D0062286
:102400001449304601F0A2F906202070002070BD6A
:1024100032462146284601F053FA70BD70B50E4889
:102420000E49C405228880252A4322800C4A5389FC
:102430001B0701D4401EFAD20A4A0120106006226E
:10244000044801F083F92088A843208070BD000073
:10245000383E03001D290800A0860100D47F040037
:102460002000005000800040F8B54E4F4E4C786D73
:10247000009020790025022801D100200090FEF76D
:1024800000FC00280DD101F021FA002809D0E078E5
:102490000125002805D005263607B08AC00701D0DF
:1024A00004257CE001F050F8002878D1207900283C
:1024B00001D1386D00903D488069002801D0786DC9
:1024C0000090A1786846009F01F006FA002866D0C7
:1024D000A178684601F04AF8002860D001F002FABD
:1024E00000285CD0FF2000972D300127BF07396AF4
:1024F0008142FCD3A178684601F0EEF900280CD0A7
:10250000A178684601F032F8002806D0284A8320D6
:1025100012780099022A03D003E001F0E9F93EE0C5
:10252000B520244A1378012B00D1213000231370E9
:10253000FB6B0F229B0A9B021343FB63FA6B1E4B40
:1025400080021A400243FA63F86B3722C002C00AC5
:1025500092051043F8630425002901D0091D00915C
:1025600000986421C00201F0DFF81449401E0860A1
:102570002179002900D0012101F0C0F91048C06A7A
:102580008047386B0004C00FFBD00E480168C905B6
:10259000FCD501F0B9F93089802188433081284683
:1025A000F8BD000060020020C6060800A80508006B
:1025B000540208002D290800FF03E0FF2429080029
:1025C0001C0708000002004070B50125AD07AC6B88
:1025D0002046FEF716FB8A4901F0A6F827221201D1
:1025E000511A00D10121874A50601160286B0821DF
:1025F00088430843286384480460844800680028AE
:1026000002D0A04200D200BE70BD10B50520000768
:102610004189890708D041898908890041817C491D
:102620004A88520852004A80018980221143018160
:10263000018A042291430182818A8907FCD501F035
:1026400069F9012080070169490700D500BE0169C9
:102650004907FCD510BDF8B56E4EF08800282DD185
:102660000120F0806C490820088005273F07788901
:10267000800720D0B88A400701D5FEF7D3F9644D12
:102680002888802108432880644CFF206080042033
:102690002080FFF74AF87D21C900E088A288000465
:1026A00080188842F9D905202080B0887880298850
:1026B0008020814329805A4910200860F8BD70B5F8
:1026C000FFF73EF8FFF7A1FF0026524C0520E680F9
:1026D0000007418A8022914341824F48018949087D
:1026E0004900018101F004F9012080078169042279
:1026F0001143816101F014F949491020803101250D
:10270000086001F013F901F017F94148267040897B
:10271000800510D5607800280DD14248657000888A
:10272000C00708D10120FFF729FD8B2189008842CD
:1027300001D90220607070BD10B501F003F900F0FE
:1027400057F834490120087010BD10B501208007EA
:10275000008A000601D500F04BF810BD10B501F05D
:10276000F7F810BD10B50124A407208A000715D57D
:1027700001F0F4F820684000400861000843206040
:102780002068C00FFCD11F48803001680906090E7F
:1027900001D0012101601F490420087010BD70B5EF
:1027A0002148008885062148AD0E44682048006F06
:1027B0000078002802D1284601F0D6F81D4800898B
:1027C000144EC00507D520060BD5E00709D02846D2
:1027D00001F0D0F803E0200603D5E00701D0032084
:1027E0003070200403D5E00501D50220307070BDA3
:1027F00010B508490120887001F0C2F810BD000032
:102800007102000040000040282908002429080027
:10281000200000502C290800003300500016005002
:1028200000E200E0001500500020005000020040CF
:10283000E0010020002C005008B500200246009066
:10284000174B1D21174800F06BFD08BDF8B5164663
:102850000C4607464A8809883E23134800F0ACFF1F
:102860000546207901F092F82880AE70002E0BD03A
:10287000002000900346618801220A4800F078FD9C
:10288000284600F0ABFFF8BD39463A220A31281D30
:1028900000F05CFF6088022100F0E0FEF0E700003D
:1028A000C83D002034290800017400007CB51E4694
:1028B00015460C46088801F06FF80146684601711C
:1028C000458006804423224669466E4800F0FCFCA1
:1028D00002468C2804D0002A04D06946002013E068
:1028E00001207CBD67482946006800F0BDFC064613
:1028F000A07800280BD030463A22211D0A3000F083
:1029000025FF002269463046FFF7A0FF09E05E4C34
:102910003046214600F029FBF4800121284600F0D2
:102920009DFE00207CBD10B556480C46114600683F
:1029300000F09AFC2188418161888181417A491C9B
:102940004172002010BD1CB54E480C46114600686F
:1029500000F08AFC024608300094019090894B4BAD
:1029600009210E3200F0EBFB00201CBD70B51446AF
:102970000D46104600F048FE0646424821460068D3
:1029800000F072FC0446012E02D0022E29D033E062
:102990006A780A2A03D0002A01D001460DE0E088B7
:1029A0003949884215D16089002804D0607A01280D
:1029B00007D9842200E0832221460846FFF746FF1C
:1029C0001AE03348E08021460A31204600F001FB3E
:1029D00012E021462D4A0E31092000F074FB024618
:1029E000EAE72878082807D16A78002A04D000236B
:1029F0002849204600F0D1FC002070BD70B5214868
:102A00000D461146006800F02FFC0446007900F0E6
:102A1000BDFF2A881F49904216D1A87809280CD2F8
:102A2000062242431219138A002B06D02072A28973
:102A30006189204600F056FA04E0002382222046F5
:102A400000F0ABFC002070BD00238122F7E710B539
:102A50000C480C461146006800F006FC2346002294
:102A60000C4900F09AFC002010BD1CB508880949EB
:102A700000230090891E0193024800F0FDFB002016
:102A80001CBD0000342908000A180000D83D0020B1
:102A9000032800000474000008B5002002460090DE
:102AA000284B0F21284800F03BFC08BDF8B517461D
:102AB0000D4606464A8809882223244800F07CFEF9
:102AC0000446287900F062FF2080A770002F0BD009
:102AD000002000900346698802221B4800F048FC51
:102AE000204600F07BFEF8BD314620460A22163112
:102AF0000E3000F02BFE31460A220C31201D00F072
:102B000025FE314620460A222031183000F01EFEF4
:102B10006888012100F0A2FDE2E770B50E46044688
:102B20004288018809480423801D00F045FE0546BF
:102B3000207900F02BFF2880AE70284600F04EFE72
:102B400070BD0000543E002040290800013C0000F8
:102B50007CB51D4616460C46088800F01DFF014650
:102B600068460171468005802A2322466946D84876
:102B700000F0AAFB02468C2804D0002A04D0694643
:102B8000002021E001207CBDD1483146006800F0E2
:102B90006BFB0546A078002819D0214628460A225A
:102BA0000E31163000F0D2FD28460A22211D0C30CD
:102BB00000F0CCFD214628460A221831203000F0D2
:102BC000C5FD002269462846FFF770FF0AE0C14CA8
:102BD0002846214600F0C9F9EC802C8102213046BC
:102BE00000F03CFD00207CBD70B5B9480D46114693
:102BF000006800F039FB04460020A072207900F044
:102C0000C5FE2A88B44990420FD1638A002B05D0B3
:102C1000E289A189204600F065F904E000238222C0
:102C2000204600F0BAFB002070BD00238122F7E7A8
:102C300070B5A7480D461146006800F015FB044624
:102C40000120A072207900F0A1FE2A88A2499042BA
:102C50000FD1E38C002B05D0628C218C204600F034
:102C600041F904E000238222204600F096FB002078
:102C700070BD00238122F7E738B595480C46114610
:102C8000006800F0F1FA0546007900F07FFE218827
:102C9000884207D1E078022804D8A078002803D021
:102CA000012804D081210FE00C20698A01E0A98B62
:102CB0000D20002907D000900123E21C284600F0D7
:102CC000D2F9002038BD82212846FFF726FFF8E719
:102CD00010B57F480C461146006800F0C5FAC1885F
:102CE0007C4A914204D1218881816188C18110E0B0
:102CF000784A521E914204D12188C18261880183A1
:102D000007E0744A521C914206D1218801846188EF
:102D10004184C17A491CC172002010BD1CB56C48A9
:102D20000C461146006800F09FFA0189694A9142F9
:102D300007D101460A3100940191C489674B8A1D6D
:102D40001AE0644A521E914209D101460A31634B8E
:102D5000009401911B1D0246048B1A320CE05D4A5F
:102D6000521C91420CD101460A315C4B00940191F6
:102D7000448C0833024624320121204600F0DFF95A
:102D800000201CBDF8B514460D46104600F03CFC72
:102D900006464F482146006800F066FA0446022EB7
:102DA00002D0012E64D077E068780A2801D000288C
:102DB00072D1484920890027494E4D1C884215D1BF
:102DC000E08888420CD1A089002804D0E07A01284C
:102DD00003D9842247E0832245E021460C3131E0CB
:102DE000B04259D121463D4A10311BE02946394DA8
:102DF0006D1E88421CD1E08888420DD1208C0028AD
:102E000002D0214620311DE0E7722946204600F01D
:102E1000ACF8E58025813FE0B0423DD12F4A214604
:102E200008322431012000F04EF90200ECD01AE003
:102E3000A84231D1E088A8420BD1E08A002806D010
:102E400021461631204600F0C4F8E68024E0002236
:102E500009E0B04220D1214A214608322431012024
:102E600000F031F9024621460846FFF71FFE13E045
:102E70002878082808D00C2801D00D280CD16978B2
:102E80002046FFF74AFE07E06A78002A04D00023B4
:102E90001149204600F081FA0020F8BD10B50C4819
:102EA0000C461146006800F0DFF9234600220A496B
:102EB00000F073FA002010BD1CB5088806490023F5
:102EC0000090091F0193024800F0D6F900201CBDB4
:102ED0004029080003180000063C0000643E002062
:102EE0000328000010B5428800791C46010208231F
:102EF000FE480C3100F060FC082101700121417096
:102F000000218180C180448000F068FC10BD10B5B4
:102F10000C460988002910D0428800790623010256
:102F2000F2480C31401D00F047FC1021017021884F
:102F300041806188818000F051FC10BD10B50C46C5
:102F40000988002910D04288007906230102E74849
:102F50000C31401D00F030FC1121017021884180AE
:102F60006188818000F03AFC10BD10B5428800797C
:102F70000C460102DD480823401F0C3100F01CFC08
:102F800002460320107001205080801E9080022095
:102F900050709471210AD171104600F01FFC10BDD1
:102FA00010B5428800790C460102D0480823401F22
:102FB0000C3100F001FC04210170218841806188FE
:102FC00081800221417000218171C17100F006FCF5
:102FD00010BD10B5428800790C460102C348082391
:102FE000401F0C3100F0E8FB052101702188418071
:102FF000618881800221417000218171C17100F0DE
:10300000EDFB10BD70B50D4609886A796B888A188A
:1030100001790024090240880C31521E5B1C9A423F
:1030200016DB0246B1480823401F00F0C5FB0146ED
:10303000072008706A88521C4A8028886A7982189A
:10304000521E8A80022048708C71CC71084607E0BD
:103050000A46014603200223000300F0ADFB447042
:1030600000F0BCFB70BDFFB50E46194642881D46F8
:103070000A3100798BB201029C4881B0801C0C316E
:103080000A9F00F099FB0021818001810770468032
:103090000446C5800120607020462A460A30039904
:1030A00000F054FB204600F099FB05B0F0BD1CB5C4
:1030B0006B461A71120A5A710C220092022301AA5D
:1030C000FFF7D1FF1CBD70B50546002003460EE09A
:1030D00006245C430E5B002E0ED09E00B6186418CA
:1030E000F6782479A64300D085205B1CDBB2AB4286
:1030F00001D20028ECD070BD9C00A418A478FF2C4D
:10310000F3D18320F1E7F0B505460020044611E035
:1031100066008E5B002E0BD1A600B618B778FF2F85
:1031200006D1F67806277E439E5B002E00D08320D2
:10313000641CE4B2AC4201D20028E9D0F0BDFFB576
:1031400081B015460F4600240A9E26E00498A1008F
:10315000425A7179B01D00F025FC00281BD0204692
:103160000622318850432952728841194A803279A7
:103170000A712B5C019AD21A521C4A710B99097878
:10318000A14206D006225143285C6A5C801A491984
:1031900048710B980470641CE4B2BC42D6D384E737
:1031A000FFB581B01D4616460746002416E0A00074
:1031B0008119CA780A998A420ED1325AA978E81C34
:1031C00000F0F0FB002807D002996000095A00299E
:1031D00002D102992A880A52641CE4B2BC42E6D3A6
:1031E00063E7F8B500240546002815D04048C069BB
:1031F000884211D9286800280ED08F00C659002EA9
:103200000AD0002A01D030469047304600F034FB07
:1032100029680020C85100E081242046F8BD70B51F
:103220008124054600281DD0314EF069884219D905
:103230002868002816D02846FFF7D3FF040011D1D4
:103240000146F26904E08B002868491CC058C9B2E5
:103250008A4202D90028F6D004E0002802D128468C
:1032600000F009F9204670BD02460020002A02D075
:10327000080A800010587047FFB581B007461E4607
:103280000D46039800F0C0F9B0421CD0386803998D
:10329000FFF7EAFF040016D062882188042328463D
:1032A00000F08AFA05460A98288060880B9A010A7D
:1032B0003846FFF7B4FFA870284600F08FFA314671
:1032C000039800F0CBF9F0E6F8B50C7915460E46F8
:1032D0000746FF2C21D07088010AA1420ED021029E
:1032E000C0B201433288284604E0000007300000E5
:1032F000E001002000F05CFB8C250FE01A4621461F
:10330000384600F0C2F8050008D13868A1004058DE
:103310000622314600F01AFA00E089252846F8BD59
:10332000FFB5074600686F4D81B00E4600280ED0ED
:10333000002406E0214638460A9AFFF752FF641C33
:10334000E4B2E869A042F5D8384600F094F8F0B24B
:10335000049900F033FB002406E020023043039977
:1033600000F07CF9641CE4B2E869A042F5D89CE660
:10337000FFB581B01F4615460C4608460A9E00F070
:1033800043F9A84208D13946204600F067F9210ADE
:1033900032460198FFF743FF87E6FFB581B0074645
:1033A000039800251E460C46002800D1B5887A886F
:1033B0002846083083B23988204600F0FDF90446DB
:1033C000387900F0E3FA20800398A0710020608033
:1033D000A580002E06D0308860802A46B11DE01DF1
:1033E00000F0B4F9204600F0F9F95EE60A880270B0
:1033F000120A42708A788270CA78C2700A790271A1
:103400004A7942718979817107207047427803783F
:1034100012021A430A8082788A70C278CA700279CE
:103420000A7142794A71807988710720704710B516
:10343000FFF702FAFFF730FB10BDF7B5040227468D
:1034400006460F370D46384600F0DEF8002805D056
:10345000EAB23B463046029900F0B6FA1D342046E7
:1034600000F0D2F8002805D0EAB22346304602998F
:1034700000F0AAFAFEBD10B504460068002803D08B
:1034800000F0FAF90020206010BDF7B5054600688D
:103490000024144E0F4600280BD1F0690121800052
:1034A00000F098FA286000280BD0F169890000F03C
:1034B00077F9F069B84212D92868BF00C0590028CE
:1034C00001D089240CE00121029800F083FA060063
:1034D000F7D0029900F084FA2868C65100E08124F0
:1034E0002046FEBDE0010020064C0125064E05E009
:1034F000E36807CC2B430C3C98471034B442F7D315
:10350000FCF7A2FFD83E0020E83E002003B40148AB
:10351000019001BD551B020003B40148019001BD9B
:10352000CF2B030003B40148019001BD0F3B030002
:1035300003B40148019001BDCB2C030003B4014842
:10354000019001BD0990020003B40148019001BD42
:10355000C12D030003B40148019001BD09210300FE
:1035600003B40148019001BDC92D030003B4014813
:10357000019001BD2B69020003B40148019001BD17
:10358000EB31030003B40148019001BD3D3203005B
:1035900003B40148019001BDD721030003B40148E1
:1035A000019001BD1F21020003B40148019001BD3B
:1035B0005D80020003B40148019001BD2F2F03007C
:1035C00003B40148019001BD998F020003B4014882
:1035D000019001BD938F020003B40148019001BD29
:1035E000CD8C020003B40148019001BD418F02005F
:1035F00003B40148019001BD2768020003B40148EB
:10360000019001BD3968020003B40148019001BD79
:10361000B326030003B40148019001BDB780020046
:1036200003B40148019001BDFD3D030003B401480E
:10363000019001BD197D020003B40148019001BD54
:103640000522020003B40148019001BD2F220200AF
:1036500003B40148019001BD0B91020003B401487D
:10366000019001BD3126030003B40148019001BD62
:10367000A528030003B40148019001BDD5AF0200A5
:1036800003B40148019001BDA1A5020003B40148A3
:10369000019001BDE3A5020003B40148019001BD02
:1036A00087A8020003B40148019001BDA7A9020048
:1036B00003B40148019001BD93AA020003B401487C
:1036C000019001BD95AB020003B40148019001BD1A
:1036D000F9AB020003B40148019001BD69AC0200DE
:1036E00003B40148019001BD17AD020003B40148C5
:1036F000019001BD77AD020003B40148019001BD06
:10370000F1AD020003B40148019001BD85AE020095
:1037100003B40148019001BD11AF020003B4014898
:10372000019001BD3350020003B40148019001BD76
:10373000A73A030003B40148019001BD55480200B7
:1037400003B40148019001BD1F50020003B40148B9
:10375000019001BD213B030003B40148019001BD6C
:103760007F0C030003B40148019001BDAB0C0300C2
:1037700003B40148019001BDBF22020003B4014817
:10378000019001BDEB26030003B40148019001BD87
:103790003524030003B40148019001BDDD2003007E
:1037A00003B40148019001BD533B030003B4014839
:1037B000019001BD9D20030003B40148019001BDAB
:1037C000B123030003B40148019001BD49E50200A3
:1037D00003B40148019001BDF9E3020003B40148BC
:1037E000019001BDE123030003B40148019001BD34
:1037F0004BCD020003B40148019001BD99D10200F4
:1038000003B40148019001BDABD0020003B40148EC
:10381000019001BD69D0020003B40148019001BDCF
:1038200077CF020003B40148019001BD01CC020032
:1038300003B40148019001BD29CC020003B4014842
:10384000019001BD15D2020003B40148019001BDF1
:103850008DD2020003B40148019001BDB9380200C5
:1038600003B40148019001BDCD44020003B40148F6
:10387000019001BD7758020003B40148019001BDD9
:10388000D722030003B40148019001BD2D4202007C
:1038900003B40148019001BD8D3D030003B401480C
:1038A000019001BDF38E020003B40148019001BDF7
:1038B000218E020003B40148019001BD773B030053
:1038C00003B40148019001BDD729030003B40148A6
:1038D000019001BD7920030003B40148019001BDAE
:1038E0002129030003B40148019001BDD9900200D1
:1038F00003B40148019001BDF793020003B40148ED
:10390000019001BDC768020003B40148019001BDE8
:103910000D2C030003B40148019001BD652C030088
:1039200003B40148019001BDDB2E030003B401483C
:10393000019001BD231D020003B40148019001BDA7
:10394000C32C030003B40148019001BD15310300ED
:1039500003B40148019001BD3B66020003B4014875
:10396000019001BD2B66020003B40148019001BD26
:10397000038D020003B40148019001BDCF8F020006
:1039800003B40148019001BD1B66020003B4014865
:10399000019001BDE3E3020003B40148019001BDC1
:1039A000B7E3020003B40148019001BD1D98020075
:1039B00003B40148019001BD1B24030003B4014876
:1039C000019001BD8725030003B40148019001BDAA
:1039D00095E3020003B40148019001BD15220300E4
:1039E00003B40148019001BD533B030002E008C845
:1039F000121F08C1002AFAD170477047002001E069
:103A000001C1121F002AFBD170470101000A0428DE
:103A10000A040203AA0055032A00A001FFFF2C019B
:103A20000A000000857502000B0000006B7A02009E
:103A30000C000000CB7902000D000000A17502000F
:103A40000E000000D37502000F000000F3790200A1
:103A500010000000FD750200120000001776020041
:103A6000110000005D76020013000000877602005E
:103A700014000000B176020015000000D7780200A3
:103A800016000000097902001B000000F776020012
:103A90004D0000005779020017000000217A020053
:103AA000180000001378020019000000537802008B
:103AB0001A000000957802001C0000008D7A0200B8
:103AC0001D000000AD7A02001E000000437A0200D3
:103AD0001F0000007377020020000000C37702007F
:103AE00021000000F37A020049000000317B02004F
:103AF000000800006D0D0020010000003B7B02006B
:103B000009000000537B0200050000007D7B0200DD
:103B100006000000A77B0200020000000B7C0200F0
:103B200007000000CF7B020000000000F97B0200CC
:103B3000030000006B7C0200040000008D7C02008A
:103B400008000000F77C02004C0000006D7E0200BF
:103B5000203A00202600000054430300503B002080
:103B6000320408000600010000000000B03B002005
:103B7000A404080002000100790E0020690F002053
:103B8000511300200F1400203D1400205510002078
:103B9000B910002019110020FFFF00000B0E0020BB
:103BA00002FC00007D92020003FC000089920200EA
:103BB000983B00200300000005040000511600207F
:103BC000060400009339020007040000D9390200FE
:103BD000080400001F3A020002040000B73B020084
:103BE00000040000093C0200040400006F3C0200D5
:103BF00003040000D93C0200010400004B3D020018
:103C000009040000D73A02000A040000413B020008
:103C10000B0400004D3F0200210400009942020005
:103C200026040000EB47020000080000EF3F0200FE
:103C30003F000000CF4102004B000000C93D0200E0
:103C40004E000000213E0200230400007F3E0200DF
:103C500024040000B93E0200270400009B43020038
:103C600028040000C5430200250400003D43020073
:103C70002B040000F1430200310400001144020053
:103C80003204000059440200350400008D44020053
:103C9000290400006F1600202A04000025450200B8
:103CA0002C0400006D4502002D040000F7450200C1
:103CB0002E0400002B4602002F0400006346020081
:103CC000330400009346020034040000154702004C
:103CD0003604000045470200300400009747020008
:103CE000010800002D420200010800008D1600208E
:103CF00000080000EF3F020000000000000000008C
:103D000000000000000000000000000000000000B3
:103D100000000000000000000000000000000000A3
:103D20000000000000000000000000000000000093
:103D30000000000000000000000000000000000083
:103D40000000000000000000000000000000000073
:103D50000000000000000000000000000000000063
:103D60000000000000000000000000000000000053
:103D70000000000000000000000000000000000043
:103D80000000000000000000000000000000000033
:103D90000000000000000000E83C002002000000DD
:103DA0000000000000000000B83B002026000000DA
:103DB000F83C0020A83D002064030800160006001F
:103DC000FF003F00FF03FF01343E00204C3E002077
:103DD0003829080003000600292A0002242A0002CC
:103DE000252A0002272A0002262A0002282A000289
:103DF000232A00022A2A0002502A0002037400002B
:103E0000FD290020083000004F2A00200330000068
:103E100027290020053000004729002000740000F9
:103E2000AD280020033800006B2A0020003000007D
:103E30006D29002000000000000000000C3E002062
:103E400002000000FC3D0020020000001C3E00209B
:103E500003000000B83E0020D03E002044290800A6
:103E600003000600062AFF0A062AFF04072AFF02AB
:103E7000033C0000E92B0020043C0000792C0020CA
:103E8000053C0000312C0020083000009D2E002051
:103E900003300000D12C0020053000001D2D002033
:103EA000003C0000512B002003380000B92E0020F8
:103EB00000300000852D0020000000000000000000
:103EC000703E002004000000903E00200200000030
:103ED000A03E00200300000068070800202A080018
:0C3EE000E0050000FC390020800C000010
:040000052000044192
:00000001FF
