:020000042000DA
:1000000000980020A5040020AD040020C5040020B5
:1000100000000000000000000000000000000000E0
:10002000000000000000000000000000DD040020CF
:100030000000000000000000F5040020F70400208C
:100040002F2E0020232F00200D310300112F002020
:10005000972E00208D310300352F00203D2F0020EA
:10006000F9040020F9040020772F0020AD310300AF
:1000700057810200F9040020F9040020F90400204F
:10008000F9040020F9040020F9040020592100207F
:100090005D210020612100206521002069210020D0
:020000042000DA
:100160003F0000008B0500209F180020073C002066
:10017000000000000000000063800200BD8002005B
:10018000350C0020FB80020019810200358102003D
:100190005D810200A12D002071050020010C0020CE
:1001A0000B0C002000000000000000003F000000D9
:1001B000F487002000080000680E0800B007000067
:1001C0005C0A08000004000024160800E012000089
:1001D000000000002000000048000000580000005F
:1001E000380800006800000098000000C800000007
:1001F000CE000000202A00008E2E00000600000025
:100200008813000029190020E9600200FD93020014
:100210003313002019280300A5740200892A002046
:1002200003000000D5200200133C00200400000061
:10023000D74902000F490200831D020063910200AA
:10024000B7910200BF910200078202007182020092
:10025000E2410020AD830200938402004185020048
:1002600015860200378602005F860200758602004E
:10027000F9870200258902005D8A0200D38C020002
:10028000098D02000F900200438D0200278E0200AC
:10029000F98E0200478F0200870B0020D58F0200E5
:1002A00049510200775102002F5202001000000055
:1002B00020030000803E000000000000000000005D
:020000042000DA
:1002C000504600030003983A6400F401B80B000C98
:1002D000B80B120030003000CD009A01120024004B
:1002E00030006400B0001800280012001200D0078F
:1002F0000000FFFF00000000000000000000000000
:100300001F000002444131343538302D30310000B7
:1003100000000000000000000000000000000000DD
:0403200000000000D9
:020000042000DA
:10034000FFFF010000C201000000000000000000EB
:100350000000F4010100011B0A071AFFD200021578
:10036000585CDE931B0142CC9A1325009BEDC65EC0
:1003700000010002C5000000000009FF00605257A4
:100380002D424C450000000000000000000000006D
:100390000000000000000000000044413134353806
:1003A00078000000000000000000000000000000D5
:1003B000000000000000000000000000000000003D
:1003C000000000000000000000000000000000002D
:1003D0000000000000000000010000CAEA80D00711
:0403E000064064323D
:020000042000DA
:100440000348854603F03CFC00480047C7200200F3
:10045000009800200F4906200880FF200E49013037
:1004600008600E4988683E2290432E308860002242
:10047000052000070280018A0F231B021943018215
:1004800001210748C90404C1401E0028FBDA62B6F6
:10049000704700000034005080E100E0003300505D
:1004A000FF0B00001548804715480047042071469F
:1004B000084203D0EFF3098012490847EFF30880A0
:1004C0001049084704207146084203D0EFF3098021
:1004D0000D490847EFF308800B490847042071468F
:1004E000084203D0EFF3098008490847EFF308807A
:1004F00006490847FEE7FEE7FEE700005504002036
:10050000410400202909002011050020970E002039
:1005100005221207518A8023194351821249036828
:100520000B6043684B6083688B60C368CB60036972
:100530000B6143694B6183698B61C369CB6108625D
:100540000A48836A4B62C36A8B62036BCB62C36BDC
:100550000B63436B4B63806B8863908A800601D585
:1005600000BE7047FEE700000018080000ED00E044
:1005700010B598490020086000F000FB01208007BA
:10058000016B49004908016310BD08B5924901207B
:10059000087092480821018003F0A4FB01F0A2FA40
:1005A000FF210D200131800103F0A2FB02F0A1FA2E
:1005B000002801D102F084FA00F038FA8848017866
:1005C0000170884801780170874801780170012026
:1005D00003F094FB01F0C6F800F060FA042000F08C
:1005E000F2F8072000F0EFF80A2000F0ECF80620FF
:1005F00000F0E9F80B2000F0E6F8012000F0E3F845
:10060000022000F0E0F8002000F0DDF877480068F4
:1006100003F07AFB00F0EBFB00F01DFC01F064F846
:1006200001208007016882151143016000F025FB5D
:1006300000F0F2F8FFF79CFF002705242407E7826B
:100640006B484188E0229143A0314180012003F0B2
:1006500061FB04262089000619D501208007006B64
:10066000000414D403F05CFBC00710D1042003F095
:100670005DFB054603F060FB002D08D004216846B1
:10068000009703F05FFB002801D000F08AFA00F029
:10069000C1FA0028DED072B602F0D2FA054604286C
:1006A00006D0022D0BD0032D09D001287ED088E082
:1006B00050480078012801D0032500E00225208A57
:1006C000304320824C48C069012810D9032D19D12C
:1006D00003F03EFB002815D003F040FB002811D0AA
:1006E000032003F041FB00280CD0022007E0032D7B
:1006F00008D1032003F038FB002803D001203F4934
:10070000087000E002253E48016931430161618AB9
:10071000202291436182218A022211432182618A2F
:10072000022D1ED0314361827F21228889018023DE
:100730001A4322800022521CD2B20A2AFBD3628AB8
:1007400010231A4362822F4A491E51612188802258
:10075000914321802C49022D0F700AD0032D08D01F
:1007600023E031436182618A1022914361822649EC
:100770000F701F494A88FF2301339A434A806288D9
:10078000224B1A804A8801231A434A800097009915
:10079000491C00911429FADB618989088900491CE8
:1007A000618161894906FCD5678000E004E030BFC3
:1007B0000169B143016104E000F02CFA002800D087
:1007C00030BF62B646E7C106C90E01208840104915
:1007D000086070478C030800E800080000330050F0
:1007E00000000800202A08003808080004900020B3
:1007F0002000005054020800E0010020C406080058
:1008000000ED00E0008000403E290800402908007B
:1008100080E200E0704700003E480178002902D0E5
:100820008021417070473C49002008703B49C870E6
:10083000704738480178002902D081214170704703
:100840003549012008703549C87070473148017832
:10085000002902D08221417070472F490220087080
:100860002E490120C87070472A488178002904D099
:10087000491E0906090E817017D142780021002A0D
:1008800004D09207920F0270417004E00278002AAF
:1008900001D0521E02701206120E017005D0012AFC
:1008A00002D0022A01D1D1E7C3E7704710B5194C35
:1008B000A078401CA0702078002805D103F05AFAD7
:1008C000421CFFF7A9FF227010BD12490120C87019
:1008D000704710490020C87070470E48C0787047B4
:1008E0000020EFF31081012282F310880522120705
:1008F0001289120605D40A48028901231A4302818B
:100900001846002900D0012181F31088704705485E
:10091000007870471029080054020800C606080035
:10092000003300503C29080005221207118A0423D5
:1009300019431182118A022319431182118940231C
:1009400019431181184B01211960184B0821198096
:10095000518A802319435182154903680B6143680A
:100960004B6183688B61C368CB6103690B62436928
:100970004B6283698B62C369CB6208630D48836AEB
:100980004B63C36A8B63036BCB63C36B0849403112
:100990000B60436B4B60806B8860908A800601D54A
:1009A00000BE7047FEE7000080E200E00033005028
:1009B0004018080000ED00E070B5334B00261869C0
:1009C000F643002801D0304600E00120C117020F95
:1009D00009011143020118612C480468456822434B
:1009E0002943026041605969002900D10126F117AD
:1009F000F20E49015E6111430468720143682243AB
:100A000019430260416070BD38B5002403220223FF
:100A1000120204212046009401F009F9002201236A
:100A200005211046009401F002F938BD10B50524E7
:100A30002407208A022188432082A08A0007FCD54F
:100A400013484188FF22013211434180A088802150
:100A50000843A0800321092003F092F9A088012116
:100A6000C9020843A080A088032109028843FF30FF
:100A70000130A08000F01BFAFFF7C6FF608A20213A
:100A80000843608210BD0000700708006807080076
:100A900020000050A94900204860704770B505202B
:100AA000000701893022914301810189802211438D
:100AB0000181018989088900491C01810189082374
:100AC000194301819E490C8814430C80448A9C433D
:100AD00044820589402425430581058A0426B543BF
:100AE0000582858AAD07FCD5944E002575600D887A
:100AF000012635430D804D89AE05924D0E8801D5F6
:100B00002E4300E0AE430E800D887826B54328358D
:100B10000D800D88062635430D80458A1D4345828C
:100B20000B8893430B800289A24302814889800588
:100B300003D5834905206031888001208007016842
:100B4000821591430160804801683F22520291431F
:100B5000421489180160016802031143016070BDED
:100B600003217A4809028181082242800021491C20
:100B70009629FCD3828070477047704710B574483F
:100B800003F004F910BD70B56D4C6088C006050F08
:100B900003F002F961881E2291436A0011436180CB
:100BA00070BD10B56B490120C863C86B0028FCD12B
:100BB00001208007C16968480268914201D2002281
:100BC000026019238A1ADB019A4212D3016003F0F2
:100BD000E9F8624A1188884201D9411A00E0091AED
:100BE00089B2182905D31080012003F0E1F803F041
:100BF000E5F810BD08B5009808BD08B5009808BD17
:100C000008B503F0E1F8009008BD08B503F0E2F87C
:100C1000009008BD10B53F2003F0E2F8002805D190
:100C20004F488078002803D0032801D0002010BD51
:100C3000012010BD08B54B4901204A695206D20F68
:100C400013D04A699206D20F0FD000220A61009297
:100C5000FF225F32009B5B1C00939342FAD34969E9
:100C6000C907C90F02D003F0C1F8002008BD401821
:100C70003721C0000901401870471FB5684601F0D0
:100C800074FB009803F03AF81FBD10B5364A0020F7
:100C9000117800290DD02F490120C863C86B0028A6
:100CA000FCD101208007C06930490968884201D21F
:100CB000012010BD0020107003F05CF8022803D062
:100CC00003F058F801280BD1294908200880052095
:100CD0000007818A8906FCD4418A8022914341829F
:100CE000002010BD0020704708B515494A8801232F
:100CF0001A434A8000210091491C00911429FBDB12
:100D0000052109074A8992089200521C4A814A89A2
:100D10005206FCD54B89042213434B8148804889F5
:100D200090434881888A0006FCD548898008800065
:100D3000488148890006FCD508BD00001429080038
:100D40002000005000100000000200402030005041
:100D5000E2040000C00000407C04080078040800A1
:100D6000A004080000100050E80008001847002008
:100D700000330050FFB581B01F460E464D780C7809
:100D8000002003F02DF8042824D000281DD121E0F4
:100D90005F48816E2E206043091888880207120F71
:100DA000130003F029F8070505050F050F050F00CF
:100DB0008204920E062A05D27278012A12D00722E6
:100DC00010438880641C6407640F28466D1EEDB2D2
:100DD0000028DDD13B463146039A019803F012F812
:100DE00005B0F0BD204603F013F80020F8E770B519
:100DF00048480378021D0021474D07E0CC00165DEE
:100E0000002E01D12418A560491CC9B29942F5D31E
:100E100070BD70B505460C46103C3F2002F0E0FF67
:100E200000280FD03D488068322806D93C498D42C1
:100E300001D03C2801D9002070BD2146374802F07E
:100E4000EDFF06E0204602F0EFFF01213F2002F017
:100E5000F1FF012070BD10B52E490B780A1D00204E
:100E600005E0C400145D3F2C04D0401CC0B2984281
:100E7000F7D310BD284AC00010324018826010BD60
:100E8000028908892749101A80B2884201D90120B5
:100E900070470020704781692039897F082905D271
:100EA0001D4A89002032515881617047FEE71F4872
:100EB0001D4901611E4941611E4981611E49C1618F
:100EC0001E4901621E4941621E4981621E49C1627A
:100ED0001E4901631E4941631E4981631E49C16366
:100EE0001C4912485C31403001601C4941601C497A
:100EF00081601C49C16001201B49C00608601B4974
:100F0000CA691202120ACA6117498039086070471B
:100F1000D8020800040608003043002080040800BE
:100F20001034000030750000942703000084004056
:100F300062B600DF28A30200704701DF1CCA02006E
:100F4000F8BD02DF40CB0200F5E703DF84D40200E6
:100F500004DF89B0BC330200F8BD05DFF8BD06DF51
:100F6000EC0C030070BD07DF80E100E000ED00E065
:100F700070B516460D46104602F032FF002869D0C3
:100F8000340A304602F02CFF012812D0A87A1E281D
:100F900011D029460A310E2845D019DC801E0300E5
:100FA00002F02AFF0B255829582D58315839583D41
:100FB0005800022070BD3146274802F041FF002151
:100FC000204602F043FF0221304602F033FF41E0A9
:100FD00018283CD006DC102819D012282BD016284F
:100FE00038D130E0522822D0D22833D127E0204611
:100FF00002F032FF2EE0204602F034FF2AE02046C5
:1010000002F036FF26E0204602F038FF22E02046BC
:1010100002F03AFF1EE0204602F03CFF1AE02046B4
:1010200002F03EFF16E0204602F040FF12E02046AC
:1010300002F042FF0EE0204602F044FF0AE02046A4
:1010400002F046FF06E0204602F048FF02E020469C
:1010500002F04AFF002070BD01280000F8B50D46DF
:10106000064681002B48EA884458521C20686B8948
:10107000018F294F51430091014640314A89C98966
:10108000511A8AB2991A89B2B94214D29A4212D02C
:10109000294602F02FFF2D892049009802F030FFE9
:1010A0002818801C4034E0823002401C80B20421A9
:1010B00002F0C0FEF8BD2821304602F027FFF8BD3F
:1010C000F8B50546870013480C46C059C988006822
:1010D000114E024640325389D2899A1A92B28B1A23
:1010E0009BB2B34211D20B4E8A420ED002F014FFD3
:1010F000F05905225F30611C02F014FF2802401CE9
:1011000080B2052102F096FEF8BD2821284602F0A3
:10111000FDFEF8BD4C030800FF7F00001027000013
:1011200070B50446007800250D2801D00A2200E0A1
:1011300002225A494B7A002B06D00D2804D0637C3A
:10114000032B01D0432551E0097A8A4339D10D2878
:1011500009D00E2802D00F2803D134E0607C032888
:1011600004D3402542E0607C0328FAD8A07C042800
:10117000F7D20A2908D0607C012822D0022820D08A
:101180006078032809D811E002F0D2FE012806D1C8
:101190006078032803D0002801D0492526E002F01A
:1011A000C7FE002802D160780228F6D83020035DFF
:1011B00022462046E17C3132143000F019F8054611
:1011C00014E0422512E002F0B3FE012807D1607856
:1011D000052804D1A01D02F0B1FE0028DDD002F0E8
:1011E000A7FE002802D160780228D6D8284670BD14
:1011F000FFB5002086B001216A46117004460591B2
:101200000021002C06D0089D099A1F239A4234D948
:10121000402032E01C23069D079AF7E76B185E78A2
:10122000330002F0E9FD1D261010101010101010F0
:101230001026262626262626262626262626101090
:10124000101010102600059B03E06F46FF5CB742AC
:1012500004D05B1E5BB2002BF7DA03E0002B01DB4E
:101260004A2006E0059B6F46FE54059B5B1CDBB2E3
:1012700005936B5C491C5918C9B2914201D20028F0
:10128000CCD0914202D04A200AB0F0BD641CE4B236
:10129000022CF9D20028B3D0F6E700009805080028
:1012A00070B5EFF31085012080F31088264802F016
:1012B0004BFE0446002D1DD0012080F31088002C29
:1012C00023D020462038C08B204988421DD1618917
:1012D000208902F03FFE05000ED021461031A3897F
:1012E00062892089A847002806D001280DD002284D
:1012F0000BD105E00020E0E7204602F031FE04E0DB
:10130000114821460C3002F089FDEFF310840120D2
:1013100080F310880C480068002802D1012002F0F8
:1013200025FE002C03D0012080F3108870BD002022
:10133000FAE710B5BC21064802F01EFE054901205F
:1013400002F020FE10BD0000A80508003883000050
:1013500004060800A1120020F3B581B001980C46E4
:101360000102CA1D0E310223344802F011FE04703E
:1013700001990546022732488E00002C06D0042C25
:1013800016D0062C10D0072C3FD108E08159052239
:101390004968897C114069708059C77335E00846F7
:1013A00002F0FCFD687030E080590F21C1732CE021
:1013B000044680594068417C012902D1007E012801
:1013C0000FD0019802F0F0FD01210028A0590BD0A8
:1013D0004268D07D00281CD001281AD004280DD0E6
:1013E0000FE0002068700DE04068C27D022A01D045
:1013F000042A06D1007C02280BD102E0107C0228CE
:1014000007D06F70A1590320C873284602F0D2FD9F
:10141000FEBD6970F6E701460A780120042A01D969
:10142000002070474A78002A01D0012AF8D10A79B1
:10143000082AF5D849790829F2D87047021C00001B
:1014400028050800FFB589B00D46002069460590C3
:1014500008720B98000A009002F0A6FD07460B9850
:1014600002F0BEFC00287DD00B982978000A840089
:10147000784E012963D0042904D0062948D00729D1
:1014800068D125E03059C17B032901D0042961D1FD
:10149000697800291AD040681022A91C02F042FD88
:1014A000002F06D03159C87B032807D0042808D064
:1014B00050E03059C07B032803D04BE00B20C873A9
:1014C00048E00521009802F07BFD43E00120B6E0F2
:1014D0003059C07B0E283DD1009802F05FFD0021FD
:1014E00003E02A18401C9170C0B21028F9D3688A12
:1014F00069460883294606A808221431023002F002
:1015000011FD06ABAA1C3946009802F05FFD21E0F0
:101510003059C07B0F281DD1AA1C0A21009802F067
:101520005BFD002F04D03946009802F05BFD11E00E
:1015300000231A463946009802F05AFD0AE0012FAE
:1015400008D10B9802F04CFC01281CD0002801D0D7
:10155000022005906846007A002811D002AA0521D1
:10156000009800E00CE002F037FD6846027A602047
:1015700002436846027201233946009802F038FDA2
:1015800005980DB0F0BD3059C07B0228E2D16878D3
:10159000002851D002210B9802F04CFC3059072250
:1015A0004068A91C173002F0BDFCE878002804D17F
:1015B00030594068407C01283AD0009802F01EFD66
:1015C000002837D0297A009802F01EFD002833D079
:1015D000009802F01FFD0121009802F021FD002873
:1015E0002CD030594068417E00292BD0042929D0C5
:1015F000C17E027D1140C17630594068017F427D35
:10160000114001776846007A0028A7D1305902219D
:1016100042680098173202F0DFFC305941684031CF
:10162000897B002913D004210098FFF795FE91E7EC
:10163000022004E0062002E0082000E003206946C2
:1016400008728BE70021C17630594068D9E70B2139
:10165000C1737FE72805080010B50C4602F0E6FCD0
:1016600021888A00294989580968002902D0284B15
:10167000C968995010BD10B5144602F0DDFC210A6E
:101680008A00224989580968002902D0204BC9687C
:10169000995010BDFFB50F46100A1C49800009582B
:1016A00081B009681E461546002901D0CC6803E0C8
:1016B000174900220C580A50002C0DD0201F4088DA
:1016C0001449884208D1A068002802D0204602F0C0
:1016D000B9FC204602F0BCFC33462A463946019844
:1016E00002F0BCFC05B0F0BD70B50B480378021DDC
:1016F00000210A4D07E0CC00165D012E01D124180F
:10170000A560491CC9B29942F5D370BD4C030800CD
:1017100028290800388300000406080088450020B6
:101720000F4A518807235B029943400201435180CD
:10173000704705200007018830221143018001888D
:1017400003221143018070470520000701883022E1
:101750009143018001888908890001807047000059
:101760008000005030B5974A9749D00504888023FF
:101770001C430480954C65892D0701D4521EFAD272
:10178000934C01222260934C0A882280924A498815
:10179000118001889943018030BD00207047704757
:1017A000704770470020704701218907086B0722A6
:1017B000104308637047704730B58949874808600F
:1017C00088494C200880874C874B203C23828849DD
:1017D0008648488088488749018086491931418078
:1017E00022214181812189000182844941828449E9
:1017F00001838249113141837F4A8249203291809D
:101800004122814912018A80804ACA807F4D103569
:10181000CD810A824A82921C8A826A1FCA82FF2272
:1018200046320A837A4A4A837A4A59211180794991
:10183000794D20310D8043254D80784D5582D5223C
:101840008A80FF22D3320A81754A4A81754A8A8189
:10185000764A754911806349754A60394A80CA8859
:1018600010252A43CA806C4A0A3A0A815D4D714AA2
:10187000403D6A80638208224A815749654A098847
:10188000403A118253496C4A098811806B490978A2
:10189000002901D03021018330BD4008704700B5D8
:1018A0008BB0674A4262674A8262674A4261674A0E
:1018B000C262674A0260674A0262674A4260674AD8
:1018C000C261474A45480021106045484038026BD4
:1018D00003129A430263426B1F231B049A430323A0
:1018E0001B04D21842635E480268C3129A43026026
:1018F000026803139A43026068464154491CC9B206
:101900002829FAD301462822564802F00BFBFFF79C
:1019100053FF02F047FA54490880002002F048FAC9
:1019200002F04CFA0BB000BD10B52D4A0F212B4828
:10193000090210602A484038426B1F231B049A4357
:1019400003231B04D218426300060268D208D200A7
:10195000026005200007028992089200521C028151
:10196000028908231A430281028A0A430282174825
:101970004189890504D50188782291430831018085
:10198000FFF71AFF3948006F0078002804D0384864
:10199000008814496039C880012002F0BBF910BDED
:1019A00026480078704725490120087012493020E8
:1019B000088370472149002008700F4910480883A8
:1019C00070470000A0860100087F0400200000503E
:1019D00000800040560208004A0308004C055407E6
:1019E00080000040602C00507F7F0000AC29000088
:1019F00000220050090900000024005022040000C9
:101A000030D00000EE110000002500502E02000032
:101A100044200000402800500D95000002420000C4
:101A2000E4DC00001092000053780000002A00500F
:101A30008B1000009DD5000000260050E900080032
:101A40009B1700209F170020A5170020A917002032
:101A5000A1170020B7170020A31700209B18002013
:101A6000000200402000080078040800E001002087
:101A70005204080030B5F7480023016DDB4300290C
:101A800001D01A4600E00122F249026508390C68CB
:101A90004D680C602A434A60426F002A01D01A4602
:101AA00000E0012242670C6852024D680C602A4334
:101AB0004A60026E002A01D01A4600E00122026646
:101AC0000C6812014D680C602A434A60C26D002AFE
:101AD00000D10123C3650A68D8004B680A60184327
:101AE000486030BDFEB50020DA4E034628220021B2
:101AF000424392198C00491C13510A29FADB401CFD
:101B00000428F3DBFFF7B6FFFEF756FFD1480022AB
:101B100008380260426015460024CF486900475AE1
:101B20000120A04080B207421CD0282068438019C1
:101B3000A1004058411C19D0002810D0C1172246DE
:101B400002F092FA2A0102F08FFAC24B083B1A689F
:101B50005B681043BF4A1943083A10605160641C27
:101B60000A2CDDDB6D1C042DD6DBFEBD0095019437
:101B700000BEE3E7F8B5164604460D460A461F4682
:101B80000120002102F070FA220102F06DFAB14B3F
:101B9000083B1A685B6810401940084300D100BE3A
:101BA000032C00D10424AD496001401869000818D5
:101BB0003E43C680F8BD70B504460D460A46012076
:101BC000002102F051FA220102F04EFAA14A083A2D
:101BD0001368526818401140084300D100BE032C1E
:101BE00000D104249D49600140180121A940818051
:101BF00070BD70B504460D460A460120002102F072
:101C000033FA220102F030FA924A083A1368526815
:101C100018401140084300D100BE032C00D1042419
:101C20008E49600140180121A940418070BDFFB577
:101C300081B00C4605460A461F46012000210A9E37
:101C400002F012FA2A0102F00FFA824B083B1A68DE
:101C50005B6810401940084300D100BE002E2146A9
:101C6000284602D0FFF7C5FF01E0FFF7A4FF3B467F
:101C700021462846039AFFF77DFF05B0F0BD70B5F9
:101C8000154604460E460A460120002102F0ECF9F2
:101C9000220102F0E9F96F4B083B1A685B681040BB
:101CA0001940084300D100BE002C07D0601E6B49CC
:101CB000400070314018012C02D002E00020F6E70D
:101CC000083601880122B2409143B5400D4305809A
:101CD00070BD70B504460D460A460120002102F091
:101CE000C3F9220102F0C0F95A4A083A136852684F
:101CF00018401140084300D100BE032C00D1042439
:101D000056496001401800880121A940084000D0D0
:101D1000012070BDFFB514460D4606460A4681B047
:101D20000120002102F0A0F9320102F09DF9494B97
:101D3000083B1A685B6810401940084300D100BE98
:101D400047A000680090474880892346133BFF2244
:101D500001329A400B999043002901D0012700E0FD
:101D60000027D10701D0002138E0910701D50121DA
:101D700034E0510701D5022130E0110701D50321DC
:101D80002CE0D10601D5042128E0910601D50521DA
:101D900024E0510601D5062120E0110601D50721D6
:101DA0001CE0D10501D5082118E0910501D50921D4
:101DB00014E0510501D50A2110E0110501D50B21D0
:101DC0000CE0D10401D50C2108E0910401D50D21CE
:101DD00004E0510401D50E2100E00F218F4021497C
:101DE0003843888188890B9F800980013843888126
:101DF0000F8A9743D00701D0002042E0900701D519
:101E000001203EE0500701D502203AE0100701D53D
:101E1000032036E0D00601D5042032E0900601D53B
:101E200005202EE0500601D506202AE0100601D537
:101E3000072026E0D00501D5082022E0900501D535
:101E400009201EE0500501D50A201AE010050BD527
:101E50000B2016E070070800984500200030005065
:101E600001090F1900140050D00401D50C2008E01E
:101E7000900401D50D2004E0500401D50E2000E0AF
:101E80000F200A9A824017430F820F8A01221046C0
:101E900098408743C30701D0002038E0830701D56D
:101EA000012034E0430701D5022030E0030701D5CB
:101EB00003202CE0C30601D5042028E0830601D5C9
:101EC000052024E0430601D5062020E0030601D5C5
:101ED00007201CE0C30501D5082018E0830501D5C3
:101EE000092014E0430501D50A2010E0030501D5BF
:101EF0000B200CE0C30401D50C2008E0830401D5BD
:101F00000D2004E0400401D50E2000E00F20049BCA
:101F100083401F430F82954861000818418B6B4630
:101F200089099B5D89015B1919434183A007C30E91
:101F3000FF21994080209840002C0BDA23071B0FCB
:101F4000083B9D088A4BAD00ED18EB698B430343BA
:101F5000EB6107E0A508874BAD00ED182B688B43BC
:101F600003432B60E006C00E82408348026084E693
:101F70007E4940310A8A0121133881400A40C8074E
:101F800001D0002038E0880701D5012034E048075F
:101F900001D5022030E0080701D503202CE0C80657
:101FA00001D5042028E0880601D5052024E0480654
:101FB00001D5062020E0080601D507201CE0C80551
:101FC00001D5082018E0880501D5092014E048054E
:101FD00001D50A2010E0080501D50B200CE0C8044B
:101FE00001D50C2008E0880401D50D2004E0480448
:101FF00001D50E2000E00F20C240D0B2704710B5CE
:102000005A4C4034238A0122133882409343D0072C
:1020100001D0002038E0900701D5012034E05007BE
:1020200001D5022030E0100701D503202CE0D006B6
:1020300001D5042028E0900601D5052024E05006B3
:1020400001D5062020E0100601D507201CE0D005B0
:1020500001D5082018E0900501D5092014E05005AD
:1020600001D50A2010E0100501D50B200CE0D004AA
:1020700001D50C2008E0900401D50D2004E05004A7
:1020800001D50E2000E00F2081400B43238210BDBC
:1020900010B5364C4034E389012211461338814093
:1020A0008B43C80701D0002038E0880701D5012004
:1020B00034E0480701D5022030E0080701D50320AD
:1020C0002CE0C80601D5042028E0880601D50520AB
:1020D00024E0480601D5062020E0080601D50720A7
:1020E0001CE0C80501D5082018E0880501D50920A5
:1020F00014E0480501D50A2010E0080501D50B20A1
:102100000CE0C80401D50C2008E0880401D50D209E
:1021100004E0480401D50E2000E00F208240134364
:10212000E38110BD154A80008018803841637047F4
:1021300010B50446FFF7ACFF1049A00040188038E6
:10214000406B002801D0804710BDE106C90E012078
:1021500088400B49086010BD1320E9E71420E7E729
:102160001520E5E71620E3E71720E1E7C01300504C
:1021700000ED00E000E400E000E100E010080800ED
:1021800080E200E008430121890303460B434349F1
:102190000B80434B18430880092002434A80704754
:1021A0003E490A880F239B0100079A43800D024392
:1021B0000A807047394900200880704737483949FC
:1021C000028802231A430280491E02D30288920722
:1021D000FAD400210181408970470AE000BF00BFA6
:1021E00000BF00BF00BF00BF00BF00BF00BF00BFF7
:1021F00000BF401EF2D2704770B502225102044661
:102200004E003046FFF7BEFF1420FFF7E6FF002C1C
:1022100001D0092000E00720FFF7C2FFFFF7CEFF43
:1022200005460120FFF7D9FF022200213046FFF7C3
:10223000A9FF002C01D0092000E00720FFF7B0FF24
:10224000FFF7BCFF4019154A0021118070BDF0B5A1
:10225000124C154820801420FFF7BFFF01256D02A6
:10226000A580E5802088E9000843208020888E1022
:10227000B0432080FFF7A2FF07462088304320802C
:10228000FFF79CFF0246780071424018281A52005E
:102290005118691AA080E180F0BD000000150050BF
:1022A00001400000A08601000148000008B5892116
:1022B0000520000701810121614A4903118001883D
:1022C00080221143018001888908890001805D48CE
:1022D000018A022211430182FFF76EFA01F0CAFE61
:1022E00001F0CEFE0020694601E00888401C08800D
:1022F00008889128F9D308BD08B553490020088003
:102300004880534A514BD380FF23D2331381C88076
:10231000C32151804F4A082111806946088003E09B
:102320006A461188491C1180694609889129F7D3AA
:102330006946088003E06A461188491C1180694695
:1023400009889129F7D3694601E00888401C088074
:1023500008889128F9D308BD3F4A50809180012018
:102360001080D088C007FCD17047F1B5FFB0FFB036
:1023700094B011AC33480494008AA41C1090FFF769
:1023800095FF314801880F9141880E913049CA88E4
:102390000D920A890C92C2880B92408B0A902F48AA
:1023A0004088099048888446FFF7A6FF00252B4601
:1023B000FF2111A8FFF7D0FF00210A460846049E1E
:1023C000275C365C7E40F607F60F8E401643491CAC
:1023D000C9B2F2B2082906D1FFA9C96C4A556D1CD1
:1023E0000021ADB20A461030FF2680B2B600B042DE
:1023F000E5D95B1C9BB2022BDAD3124910980882F4
:1024000014490020088010480F9901800E994180DE
:102410000F490D9ACA800C9A0A810B9AC2800A9AB7
:1024200042830E4A09985080604648800520000784
:1024300001888022914301807FB07FB015B0F0BD4C
:1024400000020040E0300050002400508080000076
:102450006028005020200050003500500026005019
:1024600010B54F4841780078FFF7A5FB10BD10B5B7
:102470004B4841780078FFF7BCFB10BDF8B50E461D
:10248000154647490278079F0A7040781C464870F5
:10249000FFF7EDFF0520000781880122D2021143DA
:1024A0008180404801884908490001800188FF2255
:1024B00081329143F201114301800188402291430E
:1024C000AA0111430180018804229143A200114313
:1024D0000180018802229143069A52001143018033
:1024E0000188012292039143BA03114301800188BC
:1024F00018229143089AD2001143018001880122D9
:1025000011430180F8BD27490A88520852000A8009
:102510000A88FF2381339A43C00102430A80088856
:10252000012210430880704710B51E4801884908F1
:10253000490001800520000781880122D2029143D1
:102540008180174841780078FFF753FB10BD15488C
:102550000188490849000180704710B511490023DE
:102560000A88D205920F012A01D9040C8C80488078
:1025700008888004FCD50120C880012A01D98888F8
:1025800003044888C01810BD10B50446FFF768FF63
:102590002046FFF7E2FF0446FFF769FF204610BD23
:1025A0002408080000120050F74AD160906070477C
:1025B00010B50120FFF7A7FF05200002FFF7E4FF99
:1025C000C0B210BD70B50024F04DFFF7F1FFC00799
:1025D00004D0641CAC42F8D30020C04370BD70B579
:1025E000FFF7F0FF002817D1FFF78DFFFFF738FF47
:1025F0009F20FFF7B2FF0020FFF7AFFF0504002088
:10260000FFF7ABFF04022C430020FFF7A6FF204397
:102610000546FFF72CFF284670BD70B5FFF7DFFFBA
:10262000D94CDB4A002114234B43D5589B185B68D7
:102630001D4003409D420ED1142308B24B4320801D
:102640009B189D68A560DB68E360142358438018DD
:10265000606048B270BD491C89B20429E3D30020F0
:102660006060401E70BD70B5FFF7ACFF002815D14B
:10267000FFF749FFC54E00250620FFF785FF002420
:10268000FFF796FFC10703D1800701D5002070BD79
:10269000641CB442F4D36D1C322DEDD30020C04332
:1026A00070BD70B5FFF78EFF002815D1FFF72BFF27
:1026B000B64E00255020FFF767FF0024FFF778FF94
:1026C000C10703D1800701D5002070BD641CB4424E
:1026D000F4D36D1C322DEDD30020C04370BD70B516
:1026E000FFF770FF002811D1FFF70DFFA74E00255F
:1026F0000420FFF749FF0024FFF75AFF800707D0A7
:10270000641CB442F8D36D1C322DF1D30020C043B9
:1027100070BD10B50446FFF755FF002808D1012011
:10272000FFF7F1FEE01DF930FFF72EFFFFF74AFF3C
:1027300010BD70B5064694480D4680685119814217
:1027400001D9441B00E01446FFF73CFF00281AD1D2
:102750000220FFF7D8FEFFF783FE03212846090673
:102760000843FFF7FAFE0020FFF7CDFE002505E045
:102770000020FFF7F2FE30706D1C761CA542F7D3E7
:10278000FFF775FE204670BD70B505467E480E46C3
:10279000C0681446824200D984B2FFF713FF0028B4
:1027A0001ED1FFF760FF00281AD10220FFF7ABFE11
:1027B000FFF756FE0121304649060843FFF7CDFEDC
:1027C0000020FFF7A0FE05E028786D1CFFF7C5FE8E
:1027D000641EA4B2002CF7D1FFF749FEFFF7F2FE0A
:1027E00070BD70B50D460446FFF73DFF002802D0CE
:1027F0000020C04370BD0220FFF785FE280620435D
:10280000FFF7C2FEFFF7DEFE70BD10B5FFF72BFF2E
:10281000002802D00020C04310BD0020FFF773FE47
:10282000C720FFF7B1FEFFF7CDFE40B210BD10B5D7
:102830000024FFF7C7FE002811D10120FFF763FE37
:10284000FFF70EFE09200003FFF787FE0020FFF7C9
:1028500084FE0020FFF781FE84B2FFF708FE20B25D
:1028600010BD70B500252C46FFF7ACFE002818D12E
:10287000FFF749FEFFF7F4FD4B20FFF76EFE022045
:10288000FFF741FE0020FFF768FE0020FFF765FE1E
:10289000002604463046FFF760FE30430546FFF74A
:1028A000E6FD2846214670BDF7B582B0364F0E468C
:1028B0000091F96814460D46304601F021FB401C9A
:1028C0006843451E0020FFF71EFEB868801BA0422B
:1028D00000D204462646002719E000988019A84235
:1028E00002D900982E1A761C0298B2B2C01900992B
:1028F000FFF74AFF002803D00020C04305B0F0BD19
:10290000681C00902048BF19C0682D18E61BA7421C
:10291000E3D33846F2E710B5FFF754FE002805D19F
:10292000FFF7F1FDB920FFF72FFE002010BD10B515
:102930000020FFF7E8FDAB20FFF726FE002010BDCA
:1029400070B5114C05466068002806D0FFF78BFE75
:10295000002805D00020C04370BD0520C04370BDD5
:10296000FFF726FE6168097C884329400843FFF78A
:10297000D0FE70BD10B504484068407CFFF7E0FF12
:10298000002807D040B210BD28080800400D030001
:10299000A0450020FFF739FFF5E770B50546394837
:1029A0000E46C0681446824200D984B2FFF70AFE80
:1029B00000281DD1FFF757FE002819D10220FFF78C
:1029C000A2FDFFF74DFD0121304649060843FFF700
:1029D000C4FD0020FFF797FD04E02846FFF7BDFD8A
:1029E000641EA4B2002CF8D1FFF741FDFFF7EAFD09
:1029F00070BDF7B582B0234F0E460091F9681446BA
:102A00000D46304601F07CFA401C6843451E00200C
:102A1000FFF779FDB868801BA04200D20446264625
:102A2000002717E000988019A84202D900982E1AB2
:102A3000761CB2B200990298FFF7AFFF002802D0CF
:102A40000020C0435AE7681C00900E48BF19C068B8
:102A50002D18E61BA742E5D338464FE71FB56A4657
:102A60005173107300200090019003460246014606
:102A7000029003A8FFF702FDFFF759FFFFF7CDFD16
:102A800004B080E72808080070B516460C460546D5
:102A900001280FD106226349634801F0F7FA0028A4
:102AA00008D006226049304601F03CFA062020702A
:102AB000002070BD32462146284601F0EDFA70BD77
:102AC00070B55A485A49C405228880252A43228075
:102AD000584A53891B0701D4401EFAD2564A012096
:102AE00010600622504801F01DFA2088A84320807B
:102AF00070BD70B5002405200007018A88B002224D
:102B000091430182818A0907FCD5418A2022114321
:102B1000418200F04FF8182101A801F02DFA1F2181
:102B20001822090301A8FFF704FE684600797028FF
:102B300003D068464079522814D104A806223F49A0
:102B4000054601F0A3FA00280CD006223549284694
:102B500001F09CFA002805D006222946324801F0EF
:102B6000E1F90124FFF7D7FEFFF7DEFC0120032285
:102B700000900023120203210220FFF758F80025DD
:102B8000012676022B463246294602200095FFF7A1
:102B90004EF800233246092102200095FFF747F83E
:102BA00000233246042102200095FFF740F820461A
:102BB00008B070BD7FB5012003252D0200900823C9
:102BC0002A4603210220FFF732F8002407232A4671
:102BD000214602200094FFF72AF806232A460921FD
:102BE00002200094FFF723F805230022042102208D
:102BF0000094FFF71CF8022168460173032141731A
:102C00000023009401941A46194603A80294FFF782
:102C100035FCFF2101314802FFF7C6FCFFF787FEB4
:102C20007FBD0000383E03002C290800A08601006B
:102C3000D47F04002000005000800040F0450020B8
:102C4000F8B54E4F4E4C786D009020790025022843
:102C500001D100200090FEF718F800280DD101F0F6
:102C600021FA002809D0E0780125002805D00526A2
:102C70003607B08AC00701D004257CE001F050F887
:102C8000002878D12079002801D1386D00903D4886
:102C90008069002801D0786D0090A1786846009F77
:102CA00001F006FA002866D0A178684601F04AF8DB
:102CB000002860D001F002FA00285CD0FF200097C5
:102CC0002D300127BF07396A8142FCD3A1786846BD
:102CD00001F0EEF900280CD0A178684601F032F836
:102CE000002806D0284A832012780099022A03D0AF
:102CF00003E001F0E9F93EE0B520244A1378012B06
:102D000000D1213000231370FB6B0F229B0A9B0222
:102D10001343FB63FA6B1E4B80021A400243FA63B3
:102D2000F86B3722C002C00A92051043F8630425ED
:102D3000002901D0091D009100986421C00201F012
:102D4000DFF81449401E08602179002900D00121D4
:102D500001F0C0F91048C06A8047386B0004C00F0A
:102D6000FBD00E480168C905FCD501F0B9F93089DE
:102D70008021884330812846F8BD00006002002091
:102D8000C6060800A8050800540208003D290800EE
:102D9000FF03E0FF342908001C0708000002004080
:102DA00070B50125AD07AC6B2046FDF72EFF8A49B3
:102DB00001F0A6F827221201511A00D10121874AF9
:102DC00050601160286B08218843084328638448B9
:102DD000046084480068002802D0A04200D200BEEF
:102DE00070BD10B5052000074189890708D04189C9
:102DF0008908890041817C494A88520852004A80EA
:102E00000189802211430181018A042291430182B8
:102E1000818A8907FCD501F069F9012080070169E1
:102E2000490700D500BE01694907FCD510BDF8B5BA
:102E30006E4EF08800282DD10120F0806C490820CA
:102E4000088005273F077889800720D0B88A400787
:102E500001D5FDF7EBFD644D2888802108432880CB
:102E6000644CFF20608004202080FEF762FC7D21FE
:102E7000C900E088A288000480188842F9D905209A
:102E80002080B088788029888020814329805A4911
:102E900010200860F8BD70B5FEF756FCFFF7A1FFE3
:102EA0000026524C0520E6800007418A802291438B
:102EB00041824F48018949084900018101F004F924
:102EC00001208007816904221143816101F014F916
:102ED0004949102080310125086001F013F901F003
:102EE00017F9414826704089800510D56078002880
:102EF0000DD1424865700088C00708D10120FFF756
:102F00007BF98B218900884201D90220607070BD55
:102F100010B501F003F900F057F8344901200870AA
:102F200010BD10B501208007008A000601D500F011
:102F30004BF810BD10B501F0F7F810BD10B5012425
:102F4000A407208A000715D501F0F4F82068400096
:102F500040086100084320602068C00FFCD11F4872
:102F6000803001680906090E01D0012101601F4966
:102F70000420087010BD70B52148008885062148DE
:102F8000AD0E44682048006F0078002802D1284622
:102F900001F0D6F81D480089144EC00507D520065B
:102FA0000BD5E00709D0284601F0D0F803E0200651
:102FB00003D5E00701D003203070200403D5E005DD
:102FC00001D50220307070BD10B50849012088700D
:102FD00001F0C2F810BD0000710200004000004086
:102FE0003829080034290800200000503C29080036
:102FF000003300500016005000E200E000150050C1
:103000000020005000020040E0010020002C005091
:1030100008B5002002460090174B1D21174800F00C
:103020006BFD08BDF8B516460C4607464A88098868
:103030003E23134800F0ACFF0546207901F092F8DA
:103040002880AE70002E0BD00020009003466188CF
:1030500001220A4800F078FD284600F0ABFFF8BDD9
:1030600039463A220A31281D00F05CFF60880221AF
:1030700000F0E0FEF0E70000F845002044290800D9
:10308000017400007CB51E4615460C46088801F008
:103090006FF8014668460171458006804423224648
:1030A00069466E4800F0FCFC02468C2804D0002AD9
:1030B00004D06946002013E001207CBD6748294602
:1030C000006800F0BDFC0646A07800280BD0304612
:1030D0003A22211D0A3000F025FF002269463046C1
:1030E000FFF7A0FF09E05E4C3046214600F029FBC7
:1030F000F4800121284600F09DFE00207CBD10B523
:1031000056480C461146006800F09AFC218841811F
:1031100061888181417A491C4172002010BD1CB533
:103120004E480C461146006800F08AFC0246083002
:103130000094019090894B4B09210E3200F0EBFB7B
:1031400000201CBD70B514460D46104600F048FE28
:10315000064642482146006800F072FC0446012EF3
:1031600002D0022E29D033E06A780A2A03D0002A3E
:1031700001D001460DE0E0883949884215D16089C7
:10318000002804D0607A012807D9842200E0832235
:1031900021460846FFF746FF1AE03348E080214603
:1031A0000A31204600F001FB12E021462D4A0E3183
:1031B000092000F074FB0246EAE72878082807D1C6
:1031C0006A78002A04D000232849204600F0D1FC68
:1031D000002070BD70B521480D461146006800F012
:1031E0002FFC0446007900F0BDFF2A881F49904259
:1031F00016D1A87809280CD2062242431219138A44
:10320000002B06D02072A2896189204600F056FA70
:1032100004E000238222204600F0ABFC002070BDB9
:1032200000238122F7E710B50C480C4611460068D0
:1032300000F006FC234600220C4900F09AFC002016
:1032400010BD1CB50888094900230090891E019310
:10325000024800F0FDFB00201CBD000044290800CE
:103260000A1800000846002003280000047400002B
:1032700008B5002002460090284B0F21284800F096
:103280003BFC08BDF8B517460D4606464A88098836
:103290002223244800F07CFE0446287900F062FFD7
:1032A0002080A770002F0BD0002000900346698873
:1032B00002221B4800F048FC204600F07BFEF8BDCF
:1032C000314620460A2216310E3000F02BFE3146E0
:1032D0000A220C31201D00F025FE314620460A222C
:1032E0002031183000F01EFE6888012100F0A2FD98
:1032F000E2E770B50E460446428801880948042377
:10330000801D00F045FE0546207900F02BFF288047
:10331000AE70284600F04EFE70BD000084460020CE
:10332000EC000800013C00007CB51D4616460C462A
:10333000088800F01DFF014668460171468005803F
:103340002A2322466946D84800F0AAFB02468C2868
:1033500004D0002A04D06946002021E001207CBD71
:10336000D1483146006800F06BFB0546A078002884
:1033700019D0214628460A220E31163000F0D2FD1F
:1033800028460A22211D0C3000F0CCFD214628469B
:103390000A221831203000F0C5FD00226946284677
:1033A000FFF770FF0AE0C14C2846214600F0C9F93A
:1033B000EC802C810221304600F03CFD00207CBDD9
:1033C00070B5B9480D461146006800F039FB044657
:1033D0000020A072207900F0C5FE2A88B4499042EE
:1033E0000FD1638A002B05D0E289A189204600F025
:1033F00065F904E000238222204600F0BAFB002099
:1034000070BD00238122F7E770B5A7480D4611462D
:10341000006800F015FB04460120A072207900F03E
:10342000A1FE2A88A24990420FD1E38C002B05D03F
:10343000628C218C204600F041F904E000238222B6
:10344000204600F096FB002070BD00238122F7E7A4
:1034500038B595480C461146006800F0F1FA05466B
:10346000007900F07FFE2188884207D1E0780228A9
:1034700004D8A078002803D0012804D081210FE0CF
:103480000C20698A01E0A98B0D20002907D000904B
:103490000123E21C284600F0D2F9002038BD822129
:1034A0002846FFF726FFF8E710B57F480C4611467F
:1034B000006800F0C5FAC1887C4A914204D1218895
:1034C00081816188C18110E0784A521E914204D105
:1034D0002188C1826188018307E0744A521C9142AD
:1034E00006D12188018461884184C17A491CC17256
:1034F000002010BD1CB56C480C461146006800F059
:103500009FFA0189694A914207D101460A31009424
:103510000191C489674B8A1D1AE0644A521E914288
:1035200009D101460A31634B009401911B1D0246EB
:10353000048B1A320CE05D4A521C91420CD10146B8
:103540000A315C4B00940191448C083302462432CA
:103550000121204600F0DFF900201CBDF8B514461B
:103560000D46104600F03CFC06464F4821460068D8
:1035700000F066FA0446022E02D0012E64D077E0F5
:1035800068780A2801D0002872D14849208900278C
:10359000494E4D1C884215D1E08888420CD1A08943
:1035A000002804D0E07A012803D9842247E083224E
:1035B00045E021460C3131E0B04259D121463D4A27
:1035C00010311BE02946394D6D1E88421CD1E08820
:1035D00088420DD1208C002802D0214620311DE0E8
:1035E000E7722946204600F0ACF8E58025813FE0EF
:1035F000B0423DD12F4A214608322431012000F04B
:103600004EF90200ECD01AE0A84231D1E088A8427D
:103610000BD1E08A002806D021461631204600F062
:10362000C4F8E68024E0002209E0B04220D1214A1B
:10363000214608322431012000F031F902462146AA
:103640000846FFF71FFE13E02878082808D00C284A
:1036500001D00D280CD169782046FFF74AFE07E01B
:103660006A78002A04D000231149204600F081FA2C
:103670000020F8BD10B50C480C461146006800F05B
:10368000DFF9234600220A4900F073FA002010BD3A
:103690001CB50888064900230090091F01930248C1
:1036A00000F0D6F900201CBDEC0008000318000053
:1036B000063C0000944600200328000010B5428814
:1036C00000791C4601020823FE480C3100F060FC22
:1036D000082101700121417000218180C180448056
:1036E00000F068FC10BD10B50C460988002910D008
:1036F0004288007906230102F2480C31401D00F097
:1037000047FC10210170218841806188818000F090
:1037100051FC10BD10B50C460988002910D0428814
:10372000007906230102E7480C31401D00F030FC0F
:1037300011210170218841806188818000F03AFC6C
:1037400010BD10B5428800790C460102DD480823FF
:10375000401F0C3100F01CFC0246032010700120B9
:103760005080801E9080022050709471210AD17187
:10377000104600F01FFC10BD10B5428800790C46C1
:103780000102D0480823401F0C3100F001FC042145
:10379000017021884180618881800221417000216F
:1037A0008171C17100F006FC10BD10B5428800792E
:1037B0000C460102C3480823401F0C3100F0E8FB0F
:1037C000052101702188418061888180022141703A
:1037D00000218171C17100F0EDFB10BD70B50D4687
:1037E00009886A796B888A1801790024090240885F
:1037F0000C31521E5B1C9A4216DB0246B14808236C
:10380000401F00F0C5FB0146072008706A88521C63
:103810004A8028886A798218521E8A80022048705D
:103820008C71CC71084607E00A460146032002234A
:10383000000300F0ADFB447000F0BCFB70BDFFB5B1
:103840000E46194642881D460A3100798BB20102A4
:103850009C4881B0801C0C310A9F00F099FB00212C
:1038600081800181077046800446C5800120607018
:1038700020462A460A30039900F054FB204600F007
:1038800099FB05B0F0BD1CB56B461A71120A5A714E
:103890000C220092022301AAFFF7D1FF1CBD70B5D4
:1038A0000546002003460EE006245C430E5B002E16
:1038B0000ED09E00B6186418F6782479A64300D07E
:1038C00085205B1CDBB2AB4201D20028ECD070BD7E
:1038D0009C00A418A478FF2CF3D18320F1E7F0B565
:1038E00005460020044611E066008E5B002E0BD1D9
:1038F000A600B618B778FF2F06D1F67806277E43C4
:103900009E5B002E00D08320641CE4B2AC4201D246
:103910000028E9D0F0BDFFB581B015460F46002460
:103920000A9E26E00498A100425A7179B01D00F069
:1039300025FC00281BD020460622318850432952FE
:10394000728841194A8032790A712B5C019AD21A25
:10395000521C4A710B990978A14206D006225143A4
:10396000285C6A5C801A491948710B980470641CC1
:10397000E4B2BC42D6D384E7FFB581B01D461646FB
:103980000746002416E0A0008119CA780A998A42E5
:103990000ED1325AA978E81C00F0F0FB002807D0BD
:1039A00002996000095A002902D102992A880A5214
:1039B000641CE4B2BC42E6D363E7F8B500240546D4
:1039C000002815D04048C069884211D928680028CD
:1039D0000ED08F00C659002E0AD0002A01D03046E2
:1039E0009047304600F034FB29680020C85100E0C1
:1039F00081242046F8BD70B58124054600281DD0DD
:103A0000314EF069884219D92868002816D0284616
:103A1000FFF7D3FF040011D10146F26904E08B00E7
:103A20002868491CC058C9B28A4202D90028F6D079
:103A300004E0002802D1284600F009F9204670BDB4
:103A400002460020002A02D0080A80001058704761
:103A5000FFB581B007461E460D46039800F0C0F939
:103A6000B0421CD038680399FFF7EAFF040016D073
:103A7000628821880423284600F08AFA05460A98BD
:103A8000288060880B9A010A3846FFF7B4FFA870B7
:103A9000284600F08FFA3146039800F0CBF9F0E6A3
:103AA000F8B50C7915460E460746FF2C21D07088D4
:103AB000010AA1420ED02102C0B201433288284639
:103AC00004E0000007300000E001002000F05CFB93
:103AD0008C250FE01A462146384600F0C2F8050052
:103AE00008D13868A10040580622314600F01AFA81
:103AF00000E089252846F8BDFFB5074600686F4DF0
:103B000081B00E4600280ED0002406E0214638463B
:103B10000A9AFFF752FF641CE4B2E869A042F5D8A4
:103B2000384600F094F8F0B2049900F033FB00241A
:103B300006E020023043039900F07CF9641CE4B2F3
:103B4000E869A042F5D89CE6FFB581B01F4615464E
:103B50000C4608460A9E00F043F9A84208D13946AF
:103B6000204600F067F9210A32460198FFF743FF2B
:103B700087E6FFB581B00746039800251E460C4630
:103B8000002800D1B5887A882846083083B2398861
:103B9000204600F0FDF90446387900F0E3FA208071
:103BA0000398A07100206080A580002E06D0308888
:103BB00060802A46B11DE01D00F0B4F9204600F0F7
:103BC000F9F95EE60A880270120A42708A788270F9
:103BD000CA78C2700A7902714A7942718979817111
:103BE000072070474278037812021A430A808278CD
:103BF0008A70C278CA7002790A7142794A718079F2
:103C000088710720704710B5FFF702FAFFF730FB05
:103C100010BDF7B50402274606460F370D46384655
:103C200000F0DEF8002805D0EAB23B4630460299A3
:103C300000F0B6FA1D34204600F0D2F8002805D076
:103C4000EAB223463046029900F0AAFAFEBD10B54A
:103C500004460068002803D000F0FAF90020206034
:103C600010BDF7B5054600680024144E0F46002825
:103C70000BD1F0690121800000F098FA286000283B
:103C80000BD0F169890000F077F9F069B84212D9D8
:103C90002868BF00C059002801D089240CE0012108
:103CA000029800F083FA0600F7D0029900F084FA37
:103CB0002868C65100E081242046FEBDE0010020B6
:103CC000064C0125064E05E0E36807CC2B430C3C6F
:103CD00098471034B442F7D3FCF7B6FB08470020EE
:103CE0001847002003B40148019001BD551B020094
:103CF00003B40148019001BDCF2B030003B4014878
:103D0000019001BD0F3B030003B40148019001BDC8
:103D1000CB2C030003B40148019001BD09900200BF
:103D200003B40148019001BDC12D030003B4014853
:103D3000019001BD0921030003B40148019001BDB8
:103D4000C92D030003B40148019001BD2B69020095
:103D500003B40148019001BDEB31030003B40148F5
:103D6000019001BD3D32030003B40148019001BD43
:103D7000D721030003B40148019001BD1F210200B7
:103D800003B40148019001BD5D80020003B4014805
:103D9000019001BD2F2F030003B40148019001BD24
:103DA000998F020003B40148019001BD938F020076
:103DB00003B40148019001BDCD8C020003B4014859
:103DC000019001BD418F020003B40148019001BD83
:103DD0002768020003B40148019001BD3968020060
:103DE00003B40148019001BDB326030003B40148A8
:103DF000019001BDB780020003B40148019001BDEC
:103E0000FD3D030003B40148019001BD197D02008E
:103E100003B40148019001BD0522020003B401482A
:103E2000019001BD2F22020003B40148019001BDA1
:103E30000B91020003B40148019001BD312603003B
:103E400003B40148019001BDA528030003B4014853
:103E5000019001BDD5AF020003B40148019001BD3E
:103E6000A1A5020003B40148019001BDE3A5020031
:103E700003B40148019001BD87A8020003B40148C2
:103E8000019001BDA7A9020003B40148019001BD42
:103E900093AA020003B40148019001BD95AB020052
:103EA00003B40148019001BDF9AB020003B401481D
:103EB000019001BD69AC020003B40148019001BD4D
:103EC00017AD020003B40148019001BD77AD0200B7
:103ED00003B40148019001BDF1AD020003B40148F3
:103EE000019001BD85AE020003B40148019001BDFF
:103EF00011AF020003B40148019001BD335002002C
:103F000003B40148019001BDA73A030003B401487E
:103F1000019001BD5548020003B40148019001BD64
:103F20001F50020003B40148019001BD213B030072
:103F300003B40148019001BD7F0C030003B40148A4
:103F4000019001BDAB0C030003B40148019001BD19
:103F5000BF22020003B40148019001BDEB2603001B
:103F600003B40148019001BD3524030003B40148A6
:103F7000019001BDDD20030003B40148019001BDA3
:103F8000533B030003B40148019001BD9D20030091
:103F900003B40148019001BDB123030003B40148FB
:103FA000019001BD49E5020003B40148019001BD43
:103FB000F9E3020003B40148019001BDE1230300CD
:103FC00003B40148019001BD4BCD020003B4014888
:103FD000019001BD99D1020003B40148019001BDD7
:103FE000ABD0020003B40148019001BD69D00200CA
:103FF00003B40148019001BD77CF020003B401482A
:10400000019001BD01CC020003B40148019001BD43
:1040100029CC020003B40148019001BD15D2020071
:1040200003B40148019001BD8DD2020003B40148E0
:10403000019001BDB938020003B40148019001BDEF
:10404000CD44020003B40148019001BD775802003D
:1040500003B40148019001BDD722030003B4014815
:10406000019001BD2D42020003B40148019001BD41
:104070008D3D030003B40148019001BDF38E0200A1
:1040800003B40148019001BD218E020003B4014830
:10409000019001BD773B030003B40148019001BDCD
:1040A000D729030003B40148019001BD7920030022
:1040B00003B40148019001BD2129030003B4014864
:1040C000019001BDD990020003B40148019001BDE7
:1040D000F793020003B40148019001BDC7680200D4
:1040E00003B40148019001BD0D2C030003B4014845
:1040F000019001BD652C030003B40148019001BD8E
:10410000DB2E030003B40148019001BD231D020012
:1041100003B40148019001BDC32C030003B401485E
:10412000019001BD1531030003B40148019001BDA8
:104130003B66020003B40148019001BD2B660200FA
:1041400003B40148019001BD038D020003B401488E
:10415000019001BDCF8F020003B40148019001BD61
:104160001B66020003B40148019001BDE3E30200B5
:1041700003B40148019001BDB7E3020003B4014854
:10418000019001BD1D98020003B40148019001BDDA
:104190001B24030003B40148019001BD87250300DF
:1041A00003B40148019001BD95E3020003B4014846
:1041B000019001BD1522030003B40148019001BD27
:1041C000533B030002E008C8121F08C1002AFAD1BD
:1041D00070477047002001E001C1121F002AFBD187
:1041E00070470101000A04280A040203AA005503CB
:1041F0002A00A001FFFF2C010A00000085750200C3
:104200000B0000006B7A02000C000000CB7902006A
:104210000D000000A17502000E000000D375020021
:104220000F000000F379020010000000FD7502008D
:104230001200000017760200110000005D760200F7
:10424000130000008776020014000000B17602001F
:1042500015000000D778020016000000097902005E
:104260001B000000F77602004D00000057790200A5
:1042700017000000217A02001800000013780200E5
:1042800019000000537802001A000000957802001F
:104290001C0000008D7A02001D000000AD7A0200B3
:1042A0001E000000437A02001F0000007377020026
:1042B00020000000C377020021000000F37A020012
:1042C00049000000317B020000080000750D00204D
:1042D000010000003B7B020009000000537B02004C
:1042E000050000007D7B020006000000A77B0200A5
:1042F000020000000B7C020007000000CF7B0200E0
:1043000000000000F97B0200030000006B7C02004B
:10431000040000008D7C020008000000F77C020011
:104320004C0000006D7E0200F841002026000000D5
:104330005443030028430020320408000600010013
:104340000000000088430020A404080002000100CF
:10435000810E0020710F0020591300201714002037
:10436000451400205D100020C11000202111002004
:10437000FFFF0000130E002002FC00007D920200EF
:1043800003FC00008992020070430020030000003B
:1043900005040000591600200604000093390200AD
:1043A00007040000D9390200080400001F3A020087
:1043B00002040000B73B020000040000093C0200B8
:1043C000040400006F3C020003040000D93C02001A
:1043D000010400004B3D020009040000D73A02002E
:1043E0000A040000413B02000B0400004D3F0200A4
:1043F000210400009942020026040000EB4702005D
:1044000000080000EF3F02003F000000CF41020023
:104410004B000000C93D02004E000000213E02009A
:10442000230400007F3E020024040000B93E020085
:10443000270400009B43020028040000C54302003B
:10444000250400003D4302002B040000F14302005C
:1044500031040000114402003204000059440200FB
:10446000350400008D440200290400007716002066
:104470002A040000254502002C0400006D450200BE
:104480002D040000F74502002E0400002B46020018
:104490002F0400006346020033040000934602002C
:1044A00034040000154702003604000045470200AE
:1044B0003004000097470200010800002D4202006E
:1044C000010800009516002000080000EF3F0200E0
:1044D00000000000000000000000000000000000DC
:1044E00000000000000000000000000000000000CC
:1044F00000000000000000000000000000000000BC
:1045000000000000000000000000000000000000AB
:10451000000000000000000000000000000000009B
:10452000000000000000000000000000000000008B
:10453000000000000000000000000000000000007B
:10454000000000000000000000000000000000006B
:10455000000000000000000000000000000000005B
:10456000000000000000000000000000000000004B
:10457000C044002002000000000000000000000015
:104580009043002026000000D044002080450020F9
:104590006403080016000600FF003F00FF03FF0150
:1045A0001130EF00FFFFFF000000020000010000DB
:1045B0002C0000001230EF00FFFFFF00000004009D
:1045C000000100002C00000000421F0000FFFF005F
:1045D0000000020000010000040000001120C200E1
:1045E000FFFFFF0000000200000100000C000000BF
:1045F000FFFFFFFFFFFF0000644600207C46002015
:104600004829080003000600292A0002242A000283
:10461000252A0002272A0002262A0002282A000250
:10462000232A00022A2A0002502A000203740000F2
:10463000D531002008300000273200200330000070
:10464000FF300020053000001F3100200074000002
:104650008530002003380000433200200030000085
:104660004531002000000000000000003C46002012
:10467000020000002C460020020000004C460020F2
:1046800003000000E8460020004700204E290800F3
:1046900003000600062AFF0A062AFF04072AFF0273
:1046A000033C0000C1330020043C000051340020D2
:1046B000053C000009340020083000007536002059
:1046C00003300000A934002005300000F53400203C
:1046D000003C000029330020033800009136002000
:1046E000003000005D3500200000000000000000E8
:1046F000A046002004000000C04600200200000088
:10470000D04600200300000068070800202A0800A7
:0C471000E0050000D4410020800C0000F7
:040000052000044192
:00000001FF
