:020000042000DA
:1000000000980020C9040020D1040020E904002049
:1000100000000000000000000000000000000000E0
:1000200000000000000000000000000001050020AA
:100030000000000000000000190500201B05002042
:10004000572000204B2100203D2F030039210020A4
:10005000BF200020BD2F03005D2100206F21002064
:100060001D0500201D050020D1210020DD2F0300EB
:10007000A77E02001D0500201D0500201D05002093
:100080001D0500201D0500201D050020491A002027
:100090004D1A0020511A0020551A0020591A00202C
:020000042000DA
:1001600032000000AF050020031200201D230020F4
:100170000000000000000000A77D0200017E0200D8
:100180000F7E02004B7E0200697E0200857E020027
:10019000AD7E0200C91F002095050020150C00202F
:1001A0001F0C002000000000000000003F000000C5
:1001B000F48B002000040000140D08004C01000026
:1001C00008090800000400006C0E0800200500006B
:1001D000000000002000000048000000580000005F
:1001E00068000000260300003A0300004E030000F0
:1001F00054030000D02800008E2E000001000000F3
:10020000881300008D1200200D5D02001191020084
:10021000572303001326030097710200511D00208D
:10022000030000002F1C0200252300200400000012
:1002300087450200BF440200F91B02007B8E0200CA
:10024000CF8E0200D78E0200577F0200C57F0200CA
:1002500058360020BB8002009B81020049820200C8
:10026000E98202000D830200738302008983020089
:100270000B8502003186020033870200E589020007
:100280001F8A0200278D02005B8A02003F8B02005A
:10029000118C02005F8C02009B0B0020ED8C020091
:1002A000474D0200754D02002F4E02001000000065
:1002B00020030000803E00003F0000000D00000011
:1002C0002700000000000000000000000000000007
:020000042000DA
:1002D000504600030003983A6400F401B80B000C88
:1002E000B80B120030003000CD009A01120024003B
:1002F00030006400B0001800280012001200D0077F
:100300000000FFFF000000000000000000000000EF
:100310001F00000244413134353831000000000034
:1003200000000000000000000000000000000000CD
:0403300000000000C9
:020000042000DA
:10035000FFFF010000C201000000000000000000DB
:100360000000F4010100011B0A0F1AFFD200021560
:10037000585CDE931B0142CC9A1325009BEDC65EB0
:1003800000010002C5000000000009FF0060525794
:100390002D424C450000000000000000000000005D
:1003A0000000000000000000000044617461526120
:1003B00074654D6F6E69746F72000000000000007C
:1003C000000000000000000000000000000000002D
:1003D000000000000000000000000000000000001D
:1003E0000000000000000000010000CAEA80D00701
:0403F000064064322D
:020000042000DA
:100450000348854602F0DCFE00480047211C0200EC
:1004600000980020144906200880FF20134901301D
:10047000086005200007818A0906FCD541898908A2
:100480008900418141890906FCD50D4A91683E23C6
:1004900099432E31916000220280018A0F231B02B2
:1004A0001943018201210748C90404C1401E0028E4
:1004B000FBDA62B6704700000034005080E100E0D3
:1004C00000330050FF0B00001548804715480047D7
:1004D00004207146084203D0EFF30980124908470F
:1004E000EFF308801049084704207146084203D002
:1004F000EFF309800D490847EFF308800B490847DF
:1005000004207146084203D0EFF3098008490847E8
:10051000EFF3088006490847FEE7FEE7FEE7000024
:1005200065040020510400205509002035050020F5
:10053000310E002005221207518A8023194351826F
:10054000124903680B6043684B6083688B60C36823
:10055000CB6003690B6143694B6183698B61C3693C
:10056000CB6108620A48836A4B62C36A8B62036B81
:10057000CB62C36B0B63436B4B63806B8863908A66
:10058000800601D500BE7047FEE700000018080095
:1005900000ED00E010B59A490020086000F0F8FA7C
:1005A00001208007016B49004908016310BD1CB59B
:1005B00094490120087094490820088002F03AFE0E
:1005C00000F00AFFFF24013435202146000102F02B
:1005D00037FE01F0D9FB00F03FFA8C48017801703A
:1005E0008B4801780170012002F030FE00F06CFDB4
:1005F00000F05EFA042000F0FCF8072000F0F9F8A3
:100600000A2000F0F6F8062000F0F3F80B2000F0C6
:10061000F0F8012000F0EDF8022000F0EAF80020E8
:1006200000F0E7F87B48006802F016FE00F0B7FB28
:1006300000F0E9FBA00501682143016000F0FAFA2F
:1006400000F000F902F06CF8FFF7A4FF0025052484
:100650002407E58270484188E0229143A03141801F
:10066000012002F0FFFD02F0D0FC042620890006E4
:1006700019D501208007006B000414D402F0F8FDA6
:10068000C00710D1042002F0F9FD074602F0FCFD7E
:10069000002F08D0042101A8019502F0FBFD0028DD
:1006A00001D000F088FA02F0D4FB5C4F387C0028BF
:1006B00002D002F0AEFB3D7402F079FD0028D5D1E6
:1006C00072B601F087FB69460870042806D002283C
:1006D0000AD0032808D001287ED088E0504800784E
:1006E00001280CD003200870208A304320824D4816
:1006F000C0690128087813D9032802D049E00220F4
:10070000F1E702F0CDFD002843D002F0CFFD002834
:100710003FD0032002F0D0FD00283AD0022006E0AE
:10072000032836D102F0C8FD002832D001203E490E
:1007300008703E48016931430161618A202291437A
:100740006182218A02221143218269460A78618AE4
:10075000022A21D0314361827F21238889018027A9
:100760003B43238000235B1CDBB20A2BFBD3638A51
:1007700010273B4363822E4B491E596121888023F9
:10078000994321802B49022A0D700CD0032A0AD0EC
:1007900027E002206946CBE731436182618A10235A
:1007A00099436182EEE71C494A88FF2301339A434B
:1007B0004A806288204B1A804A8801231A434A8063
:1007C00001950199491C01911429FADB6189890875
:1007D0008900491C618100E008E061894906FAD579
:1007E000658030BF0169B143016100E030BF62B68E
:1007F0003CE7C106C90E01208840104908607047D7
:10080000FC0408002484002000330050000008008D
:10081000D02808002090002020000050D691002011
:1008200078030800E0010020B007080000ED00E0B8
:1008300000800040568400205884002080E200E0C0
:10084000704700003E480178002902D080214170A5
:1008500070473C49002008703B49C87070473848D1
:100860000178002902D0812141707047354901206B
:1008700008703549C870704731480178002902D0A6
:100880008221417070472F49022008702E490120B3
:10089000C87070472A488178002904D0491E09068B
:1008A000090E817017D142780021002A04D09207E6
:1008B000920F0270417004E00278002A01D0521EAB
:1008C00002701206120E017005D0012A02D0022A0F
:1008D00001D1D1E7C3E7704710B5194CA078401C8F
:1008E000A0702078002805D102F0ECFC421CFFF734
:1008F000A9FF227010BD12490120C870704710492D
:100900000020C87070470E48C07870470020EFF391
:100910001081012282F31088052212071289120623
:1009200005D40A48028901231A4302811846002986
:1009300000D0012181F31088704705480078704786
:100940002584002078030800B20708000033005017
:100950005484002005221207118A042319431182AE
:10096000118A0223194311821189402319431181ED
:10097000184B01211960184B08211980518A8023D6
:1009800019435182154903680B6143684B618368C1
:100990008B61C368CB6103690B6243694B628369F6
:1009A0008B62C369CB6208630D48836A4B63C36A79
:1009B0008B63036BCB63C36B084940310B60436BA4
:1009C0004B60806B8860908A800601D500BE7047BE
:1009D000FEE7000080E200E000330050401808000D
:1009E00000ED00E070B52D4B00261869F643002895
:1009F00001D0304600E00120C117020F0901114368
:100A000002011861264804684568224329430260B0
:100A100041605969002900D10126F117F20E490100
:100A20005E61114304687201436822431943026006
:100A3000416070BD38B50024032202231202042154
:100A40002046009400F06BFD002201230521104692
:100A5000009400F064FD38BD10B505242407208AF9
:100A6000022188432082A08A0007FCD50D484188D6
:100A7000FF22013211434180A08880210843A080D9
:100A80000321092002F024FC00F0DEF9FFF7D2FF79
:100A9000608A20210843608210BD00000880002089
:100AA00000800020200000509249002048607047DC
:100AB00070B5052000070189302291430181018929
:100AC000802211430181018989088900491C018123
:100AD000018908231943018187490C8814430C803C
:100AE000448A9C4344820589402425430581058A24
:100AF0000426B5430582858AAD07FCD57D4E0025C9
:100B000075600D88012635430D804D89AE057B4DFE
:100B10000E8801D52E4300E0AE430E800D88782666
:100B2000B54328350D800D88062635430D80458A4E
:100B30001D4345820B8893430B800289A2430281A7
:100B40004889800503D56C490520603188800120E3
:100B500080070168821591430160694801683F225E
:100B60005202914342148918016001680203114343
:100B7000016070BD0321634809028181082242801F
:100B80000021491C9629FCD382807047704770472A
:100B900010B55D4802F0A2FB10BD70B5564C6088E0
:100BA000C006050F02F0A0FB61881E2291436A0077
:100BB0001143618070BD10B554490120C863C86BF2
:100BC0000028FCD101208007C16951480268914288
:100BD00001D20022026019238A1ADB019A4212D341
:100BE000016002F087FB4B4A1188884201D9411A03
:100BF00000E0091A89B2182905D31080012002F0FB
:100C00007FFB02F083FB10BD08B5009808BD08B556
:100C1000009808BD08B502F07FFB009008BD08B53C
:100C200002F080FB009008BD40183721C000090188
:100C3000401870471FB5684601F00FF8009802F0A1
:100C400005FB1FBD10B5344A0020117800290DD0D6
:100C50002E490120C863C86B0028FCD10120800701
:100C6000C0692E490968884201D2012010BD0020C8
:100C7000107002F027FB022803D002F023FB0128AA
:100C80000BD127490820088005200007818A8906A2
:100C9000FCD4418A802291434182002010BD002073
:100CA000704708B514494A8801231A434A80002135
:100CB0000091491C00911429FBDB052109074A8991
:100CC00092089200521C4A814A895206FCD54B89EF
:100CD000042213434B814880488990434881888A85
:100CE0000006FCD5488980088000488148890006B4
:100CF000FCD508BD2C84002020000050001000000E
:100D00000002004020300050E2040000C00000401B
:100D1000F8050800F405080024840020A43B002006
:100D200000330050FFB581B01F460E464D780C7859
:100D3000002002F0FDFA042824D000281DD121E073
:100D40004848816A2E206043091888880207120FDC
:100D5000130002F0F3FA070505050F050F050F0054
:100D60008204920E062A05D27278012A12D0072236
:100D700010438880641C6407640F28466D1EEDB222
:100D80000028DDD13B463146039A019802F0DCFA97
:100D900005B0F0BD204602F0DDFA0020F8E770B59E
:100DA00031480378021D0021304D07E0CC00165D6C
:100DB000002E01D12418A560491CC9B29942F5D36F
:100DC00070BD70B505460C46103C3F2002F0B0FAED
:100DD00000280FD026488068322806D925498D4240
:100DE00001D03C2801D9002070BD2146204802F0E6
:100DF000B7FA06E0204602F0B9FA01213F2002F0DE
:100E0000BBFA012070BD10B517490B780A1D0020F0
:100E100005E0C400145D3F2C04D0401CC0B29842D1
:100E2000F7D310BD114AC00010324018826010BDC7
:100E300081692039897F022905D20C4A8900083A44
:100E4000515881617047FEE70C480B4901610C491C
:100E500041610C4981610C49C1610C4901620C4935
:100E6000416270477C0408004C080800B03700203D
:100E7000FC050800103400001C4B020000840040F8
:100E800001DFFFB5C4A8020000DFF8B57C45030010
:100E900049100020F3B581B0002000900D464A882B
:100EA000044601466B46019802F06CFA060009D12F
:100EB0000098C488019802F06BFA401E844200D268
:100EC000204684B222460B21019802F067FA0746B9
:100ED000002E06D06A882978334602F065FA002091
:100EE000FEBD7C80009922460831381D02F062FA6E
:100EF000384602F065FA688802F068FA0028EED0F9
:100F0000019902230A0201890C32044802F064FAB2
:100F10006988018002F066FAE1E700001230000003
:100F2000FFB50646807A81B0012805D002234049EA
:100F30000D68002D02D006E00023F8E7022870D0EB
:100F4000012871D03B4D3C4CF288A08BB18880B217
:100F500002F04EFA0090E0694E23042158434B04FE
:100F60002268C0181152E0694E235843344B22685E
:100F70003249C0181152E0694E23717A5843304B00
:100F8000090255319B1E2268C01811520098E2696F
:100F900040304E2741887A431B11294F19433F1D8A
:100FA0002368D2199952E1694E277943244F4B2285
:100FB00052010C372368C9195A5221464031E2695F
:100FC000097B4E27049B7A4309021D4F1943BF1C1E
:100FD0002368D21999522368E1694E246143184C61
:100FE0000022143409195A52164A962111631549E0
:100FF000327A40390A610D6204994176029900986B
:1010000002F0FCF90398002803D00146009802F092
:10101000F5F9009802F0F8F9009805B0F0BD00E08D
:1010200002E0FF25F5358EE7024DFA3D8BE7000023
:1010300040840020DC050000E00100202780000043
:101040000A000800C0000040FFB581B01E461446EB
:101050000F46150A104602F06BF900280DD008491A
:10106000A8000858C07B002807D0334622463946DE
:10107000019802F0CFF905B0F0BD0020FBE70000B9
:10108000C00608000F4A518807235B0299434002BB
:101090000143518070470520000701883022114329
:1010A0000180018803221143018070470520000759
:1010B00001883022914301800188890889000180DC
:1010C000704700008000005030B5974A9749D0051E
:1010D000048880231C430480954C65892D0701D426
:1010E000521EFAD2934C01222260934C0A8822802D
:1010F000924A4988118001889943018030BD0020BF
:10110000704770477047704700207047012189077A
:10111000086B0722104308637047704730B5894950
:101120008748086088494C200880874C874B203CC2
:1011300023828849864848808848874901808649B3
:101140001931418022214181812189000182844914
:101150004182844901838249113141837F4A824916
:10116000203291804122814912018A80804ACA80BE
:101170007F4D1035CD810A824A82921C8A826A1F75
:10118000CA82FF2246320A837A4A4A837A4A59211E
:1011900011807949794D20310D8043254D80784D5E
:1011A0005582D5228A80FF22D3320A81754A4A812C
:1011B000754A8A81764A754911806349754A603952
:1011C0004A80CA8810252A43CA806C4A0A3A0A8192
:1011D0005D4D714A403D6A80638208224A815749C9
:1011E000654A0988403A118253496C4A098811803E
:1011F0006B490978002901D03021018330BD4008B6
:10120000704700B58BB0674A4262674A8262674A9C
:101210004261674AC262674A0260674A0262674A7D
:101220004260674AC261474A45480021106045480C
:101230004038026B03129A430263426B1F231B0464
:101240009A4303231B04D21842635E480268C31208
:101250009A430260026803139A430260684641544D
:10126000491CC9B22829FAD301462822564802F05F
:10127000A1F8FFF753FF02F03DF854490880002021
:1012800002F03EF802F042F80BB000BD10B52D4A56
:101290000F212B48090210602A484038426B1F2357
:1012A0001B049A4303231B04D218426300060268FE
:1012B000D208D2000260052000070289920892003D
:1012C000521C0281028908231A430281028A0A43BE
:1012D000028217484189890504D501887822914303
:1012E00008310180FFF71AFF3948006F00780028A5
:1012F00004D03848008814496039C880012001F0C2
:10130000B1FF10BD264800787047254901200870BC
:1013100012493020088370472149002008700F4986
:101320001048088370470000A0860100087F040071
:1013300020000050008000407A030800AE0408003E
:101340004C05540780000040602C00507F7F000057
:10135000AC290000002200500909000000240050C0
:101360002204000030D00000EE11000000250050E3
:101370002E02000044200000402800500D9500007F
:1013800002420000E4DC00001092000053780000EC
:10139000002A00508B1000009DD500000026005050
:1013A00044840020FF1000200311002009110020B8
:1013B0000D110020051100201B1100200711002035
:1013C000FF1100200002004020000800F405080082
:1013D000E0010020CE050800FEB50020F84E0346CF
:1013E00028220021424392198C00491C13510A29DA
:1013F000FADB401C0428F3DBFFF7F4FAF048002284
:1014000008380260426015460024EE486900475AD9
:101410000120A04080B207421CD0282068438019D8
:10142000A1004058411C19D0002810D0C1172246F5
:1014300001F0F6FF2A0101F0F3FFE14B083B1A68C7
:101440005B681043DE4A1943083A10605160641C1F
:101450000A2CDDDB6D1C042DD6DBFEBD009501944E
:1014600000BEE3E7F8B5164604460D460A461F4699
:101470000120002101F0D4FF220101F0D1FFD04B67
:10148000083B1A685B6810401940084300D100BE51
:10149000032C00D10424CC496001401869000818CD
:1014A0003E43C680F8BD70B504460D460A4601208D
:1014B000002101F0B5FF220101F0B2FFC04A083A55
:1014C0001368526818401140084300D100BE032C35
:1014D00000D10424BC49600140180121A940818049
:1014E00070BD70B504460D460A460120002101F08A
:1014F00097FF220101F094FFB14A083A136852683D
:1015000018401140084300D100BE032C00D1042430
:10151000AD49600140180121A940418070BDFFB56F
:1015200081B00C4605460A461F46012000210A9E4E
:1015300001F076FF2A0101F073FFA14B083B1A6806
:101540005B6810401940084300D100BE002E2146C0
:10155000284602D0FFF7C5FF01E0FFF7A4FF3B4696
:1015600021462846039AFFF77DFF05B0F0BD70B510
:10157000154604460E460A460120002101F050FFA0
:10158000220101F04DFF8E4B083B1A685B6810404A
:101590001940084300D100BE002C07D0601E8A49C4
:1015A000400070314018012C02D002E00020F6E724
:1015B000083601880122B2409143B5400D430580B1
:1015C00070BD70B504460D460A460120002101F0A9
:1015D00027FF220101F024FF794A083A1368526874
:1015E00018401140084300D100BE032C00D1042450
:1015F00075496001401800880121A940084000D0C9
:10160000012070BDFFB514460D4606460A4681B05E
:101610000120002101F004FF320101F001FF684BBD
:10162000083B1A685B6810401940084300D100BEAF
:1016300066A000680090664880892346133BFF221D
:1016400001329A400B999043002901D0012700E014
:101650000027D10701D0002138E0910701D50121F1
:1016600034E0510701D5022130E0110701D50321F3
:101670002CE0D10601D5042128E0910601D50521F1
:1016800024E0510601D5062120E0110601D50721ED
:101690001CE0D10501D5082118E0910501D50921EB
:1016A00014E0510501D50A2110E0110501D50B21E7
:1016B0000CE0D10401D50C2108E0910401D50D21E5
:1016C00004E0510401D50E2100E00F218F40404974
:1016D0003843888188890B9F80098001384388813D
:1016E0000F8A9743D00701D0002038E0900701D53A
:1016F000012034E0500701D5022030E0100701D569
:1017000003202CE0D00601D5042028E0900601D566
:10171000052024E0500601D5062020E0100601D562
:1017200007201CE0D00501D5082018E0900501D560
:10173000092014E0500501D50A2010E0100501D55C
:101740000B200CE0D00401D50C2008E0900401D55A
:101750000D2004E0500401D50E2000E00F200A9A6D
:10176000824017430F820F8A012210469840874318
:10177000C30701D0002042E0830701D501203EE0ED
:10178000430701D502203AE0030701D5032036E0E4
:10179000C30601D5042032E0830601D505202EE0E2
:1017A000430601D506202AE0030601D5072026E0DE
:1017B000C30501D5082022E083050BD509201EE0D2
:1017C00008800020F03700200030005001090F1978
:1017D00000140050430501D50A2010E0030501D58F
:1017E0000B200CE0C30401D50C2008E0830401D5D4
:1017F0000D2004E0400401D50E2000E00F20049BE2
:1018000083401F430F82954861000818418B6B4647
:1018100089099B5D89015B1919434183A007C30EA8
:10182000FF21994080209840002C0BDA23071B0FE2
:10183000083B9D088A4BAD00ED18EB698B430343D1
:10184000EB6107E0A508874BAD00ED182B688B43D3
:1018500003432B60E006C00E82408348026084E6AA
:101860007E4940310A8A0121133881400A40C80765
:1018700001D0002038E0880701D5012034E0480776
:1018800001D5022030E0080701D503202CE0C8066E
:1018900001D5042028E0880601D5052024E048066B
:1018A00001D5062020E0080601D507201CE0C80568
:1018B00001D5082018E0880501D5092014E0480565
:1018C00001D50A2010E0080501D50B200CE0C80462
:1018D00001D50C2008E0880401D50D2004E048045F
:1018E00001D50E2000E00F20C240D0B2704710B5E5
:1018F0005A4C4034238A0122133882409343D00744
:1019000001D0002038E0900701D5012034E05007D5
:1019100001D5022030E0100701D503202CE0D006CD
:1019200001D5042028E0900601D5052024E05006CA
:1019300001D5062020E0100601D507201CE0D005C7
:1019400001D5082018E0900501D5092014E05005C4
:1019500001D50A2010E0100501D50B200CE0D004C1
:1019600001D50C2008E0900401D50D2004E05004BE
:1019700001D50E2000E00F2081400B43238210BDD3
:1019800010B5364C4034E3890122114613388140AA
:101990008B43C80701D0002038E0880701D501201B
:1019A00034E0480701D5022030E0080701D50320C4
:1019B0002CE0C80601D5042028E0880601D50520C2
:1019C00024E0480601D5062020E0080601D50720BE
:1019D0001CE0C80501D5082018E0880501D50920BC
:1019E00014E0480501D50A2010E0080501D50B20B8
:1019F0000CE0C80401D50C2008E0880401D50D20B6
:101A000004E0480401D50E2000E00F20824013437B
:101A1000E38110BD154A800080188038416370470B
:101A200010B50446FFF7ACFF1049A00040188038FD
:101A3000406B002801D0804710BDE106C90E01208F
:101A400088400B49086010BD1320E9E71420E7E740
:101A50001520E5E71620E3E71720E1E7C013005063
:101A600000ED00E000E400E000E100E0A8800020DC
:101A700080E200E008430121890303460B43434908
:101A80000B80434B18430880092002434A8070476B
:101A90003E490A880F239B0100079A43800D0243A9
:101AA0000A80704739490020088070473748394913
:101AB000028802231A430280491E02D30288920739
:101AC000FAD400210181408970470AE000BF00BFBD
:101AD00000BF00BF00BF00BF00BF00BF00BF00BF0E
:101AE00000BF401EF2D2704770B502225102044678
:101AF0004E003046FFF7BEFF1420FFF7E6FF002C34
:101B000001D0092000E00720FFF7C2FFFFF7CEFF5A
:101B100005460120FFF7D9FF022200213046FFF7DA
:101B2000A9FF002C01D0092000E00720FFF7B0FF3B
:101B3000FFF7BCFF4019154A0021118070BDF0B5B8
:101B4000124C154820801420FFF7BFFF01256D02BD
:101B5000A580E5802088E9000843208020888E1039
:101B6000B0432080FFF7A2FF074620883043208043
:101B7000FFF79CFF0246780071424018281A520075
:101B80005118691AA080E180F0BD000000150050D6
:101B900001400000A08601000148000008B589212D
:101BA0000520000701810121614A49031180018854
:101BB00080221143018001888908890001805D48E5
:101BC000018A022211430182FFF7A8FA01F02EFCDC
:101BD00001F032FC0020694601E00888401C0880C2
:101BE00008889128F9D308BD08B55349002008801A
:101BF0004880534A514BD380FF23D2331381C8808E
:101C0000C32151804F4A082111806946088003E0B2
:101C10006A461188491C1180694609889129F7D3C1
:101C20006946088003E06A461188491C11806946AC
:101C300009889129F7D3694601E00888401C08808B
:101C400008889128F9D308BD3F4A5080918001202F
:101C50001080D088C007FCD17047F1B5FFB0FFB04D
:101C600094B011AC33480494008AA41C1090FFF780
:101C700095FF314801880F9141880E913049CA88FB
:101C80000D920A890C92C2880B92408B0A902F48C1
:101C90004088099048888446FFF7A6FF00252B4618
:101CA000FF2111A8FFF7D0FF00210A460846049E35
:101CB000275C365C7E40F607F60F8E401643491CC3
:101CC000C9B2F2B2082906D1FFA9C96C4A556D1CE8
:101CD0000021ADB20A461030FF2680B2B600B042F5
:101CE000E5D95B1C9BB2022BDAD31249109808820B
:101CF00014490020088010480F9901800E994180F6
:101D00000F490D9ACA800C9A0A810B9AC2800A9ACE
:101D100042830E4A0998508060464880052000079B
:101D200001888022914301807FB07FB015B0F0BD63
:101D300000020040E030005000240050808000008D
:101D40006028005020200050003500500026005030
:101D500070B516460C46054601280FD106221749D4
:101D6000174801F06FFB002808D0062214493046BE
:101D700001F020FB06202070002070BD3246214675
:101D8000284601F065FB70BD70B50E480E49C405CC
:101D9000228880252A4322800C4A53891B0701D4BC
:101DA000401EFAD20A4A012010600622044801F0BF
:101DB00001FB2088A843208070BD0000A83C0300E0
:101DC00045840020A0860100D47F0400200000503C
:101DD00000800040F8B5594F0026786D0090FEF75E
:101DE00092FD574C002802D12079022801D1002011
:101DF0000090FEF727FF00280DD101F02FFB0028EF
:101E000009D0E0780126002805D005252D07A88AED
:101E1000C00701D004268EE001F02AFA002838D14C
:101E20002079002801D1386D00904648806900284B
:101E300001D0786D0090A1786846009F01F014FBF6
:101E4000002878D0A178684601F024FA002872D0E2
:101E500001F010FB00286ED0FF2000972D300127E5
:101E6000BF07396A8142FCD3A178684601F0FCFAC9
:101E700000280CD0A178684601F00CFA002806D0A2
:101E8000314A832012780099022A03D003E001F03E
:101E9000F7FA50E0B5202D4A1378012B00D12130FC
:101EA00000231370FB6B0F229B0A9B021343FB63FF
:101EB000FA6B274B80021A400243FA63F86B372211
:101EC000C002C00A92051043F8630426002901D01D
:101ED000091D009100986421C00201F0D7FA1D4944
:101EE000401E08602179002900D0012101F0D4FAB8
:101EF0001948C06A80470024FEF7D1FE002808D0A8
:101F00002888302108432880288803210843288016
:101F10000124386B0004C00FFBD010480168C905CC
:101F2000FCD5002C01D0FFF7C1F801F0BBFA2889DD
:101F30008021884328813046F8BD000060020020DF
:101F4000B2070800500708007803080055840020F5
:101F5000FF03E0FF4C840020080808000002004056
:101F6000F8B50546B448B649047BB448C969006869
:101F700040300089884201D1002002E00002401C6C
:101F800080B2060A1AE0AC4800272038816A2E2069
:101F9000604308188078C0060AD001F089FA01462B
:101FA000A84AB000105864228256914200DA0127F4
:101FB000384600F0EDFF641C6407640F28466D1E70
:101FC000EDB20028DFD1F8BD70B50125AD07AC6BCF
:101FD0002046FEF724FE9C4901F058FA2722120100
:101FE000511A00D10121994A50601160286B0821D3
:101FF0008843084328639648046096480068002890
:1020000002D0A04200D200BE70BD10B5052000076E
:102010004189890708D041898908890041818E4911
:102020004A88520852004A80018980221143018166
:10203000018A042291430182818A8907FCD501F03B
:102040003DFA012080070169490700D500BE0169FA
:102050004907FCD510BDF8B5804EF08800282DD179
:102060000120F0807E490820088005273F077889F5
:10207000800720D0B88A400701D5FEF7EDFC764DE9
:102080002888802108432880764CFF206080042027
:102090002080FFF700F87D21C900E088A2880004B5
:1020A00080188842F9D905202080B0887880298856
:1020B0008020814329806C4910200860F8BD70B5EC
:1020C000FEF7F4FFFFF7A1FF0026644C0520E68031
:1020D0000007418A80229143418261480189490871
:1020E0004900018101F0CCF90120800781690422B7
:1020F0001143816101F0E8F95B491020803101252D
:10210000086001F0E7F901F0EBF9534826704089C7
:10211000800510D5607800280DD15448657000887E
:10212000C00708D10120FFF7DFFC8B21890088421E
:1021300001D90220607070BD10B501F0D7F900F030
:1021400073F846490120087010BD10B501208007C2
:10215000008A000601D500F067F810BD10B53848B8
:10216000C06CC0B2FFF7FCFE01F0C6F910BD10B59F
:102170000124A407208A000729D53D4901200870C1
:102180002E484E2300682E4A403001891268594378
:10219000384BC918515AC07C090A081AC0B2FFF757
:1021A000DFFE01F0AFF920684000400861000843FD
:1021B00020602068C00FFCD12448803001680906E7
:1021C000090E01D00121016024490420087010BDCE
:1021D00070B52948008885062848AD0E446818481F
:1021E000006F0078002802D1284601F091F92448B8
:1021F00000891A4EC00507D520060ED5E0070CD081
:10220000284601F08BF903E0200606D5E00704D04C
:1022100017490120486003203070200403D5E005F1
:1022200001D50220307070BD10B50C4901208870B6
:1022300001F07AF910BD00009C040800DC040800DD
:10224000E0010020B00408007102000040000040DE
:10225000508400204C840020200000505484002032
:10226000003300500016005000E200E0001500505E
:10227000249000204A000800002000500002004086
:10228000002C0050F8B514460F461E4605464288FD
:1022900001880623204601F09FF80446287901F0C2
:1022A00049F9208027716680204601F09BF8F8BD2F
:1022B00070B51446428800790D4601020423214876
:1022C0000C3101F089F8002D01D0132100E012211A
:1022D0000170448001F086F870BD0A880270120A0D
:1022E00042708A788270CA78C2700A7902714A791B
:1022F0004271897981710720704742780378120210
:102300001A430A8082788A70C278CA7002790A7188
:1023100042794A71807988710720704710B500F0C2
:1023200013F810BD70B5064615460C46362000F071
:10233000FFFF022805D1E2B236232946304601F0DC
:10234000FFF870BD0D30000010B5DC21484801F0E9
:10235000FDF84849362001F0FFF80021362001F051
:102360000BF810BDFEB5002668468680404C0096EE
:1023700060896A46801C80B201A901F0F3F86846C2
:102380008088022812D1009800280FD000780028F9
:102390000CD0E18801233622374801F01DF800995E
:1023A00009782182067001F01DF807E0E6813248C5
:1023B0002682E1883622401C01F0DAF800980028D5
:1023C00000D0007869460881A6810A2702AA022166
:1023D000032001F0D3F800256189A800C01D08186A
:1023E00080B202AA022101F0C9F8A0896D1C401C2C
:1023F000A081BD42F0DB68460089002800D1A6819B
:10240000FEBDFEB50646002768468780184C00973B
:10241000E08961898000C01D08183D4680B26A4687
:1024200001A901F09FF80098002817D00088002823
:1024300014D0E08961898000801D081880B232467E
:10244000142101F09BF8E08961898000801D081843
:1024500082B200212046FFF72BFF0127E089401CB4
:1024600080B2E0810A2800D3E5813846FEBD000035
:10247000BC800020F837002003D800003EB50020C3
:10248000C043A24C0290E38008886081A04801907C
:102490000092204600232D2202A90A3001F074F890
:1024A00005466089002101F075F8002D03D1012156
:1024B000362000F061FFE18801233622954800F0C4
:1024C0008BFF057000F08EFF00203EBDF8B50025A3
:1024D00068468E4C058062802380E3800E464888E3
:1024E00001F05EF8207170882081E581A5818A481D
:1024F000258200798949801F087060896A46801C9E
:1025000080B2022101F03AF860896A46C01D80B2AB
:10251000022101F033F860896A460B3080B2022153
:1025200001F02CF860896A460F3080B2022101F078
:1025300025F860896A46133080B2022101F01EF846
:1025400060896A46173080B2022101F017F860896D
:102550006A461B3080B2022101F010F860896A4699
:102560001F3080B2022101F009F860896A462330E9
:1025700080B2022101F002F860896A46273080B2F9
:10258000022100F0FBFF60896A462B3080B20221F5
:1025900000F0F4FF6089012100F0FCFF02213620E9
:1025A00000F0EAFE0020F8BD10B50121362000F051
:1025B000E3FE002010BDFFB583B000276846534EF0
:1025C0000781308A002852D004985449057852482F
:1025D000002400790870009442E00197F189708925
:1025E0008900C91D401880B201AA02A900F0BAFFF3
:1025F000019800281CD00088002819D0F089718922
:102600008000801D0818214614225143049A80B28C
:102610008A181421921C00F0B1FFF08971898000A2
:10262000801D081882B200213848FFF741FE02E001
:102630000221684601813948641C01786D1E491EDB
:102640000170F089A4B2401C80B2ADB2F0810A28BA
:1026500001D3F7810AE00098401C00900A2805DAAF
:10266000002D03D02D4800780028B6D1002007B0F7
:10267000F0BDF8B50C46164623468A8808334988CB
:1026800020881F4600F092FF204D21886889081A93
:10269000801E030000F052FE2A163838381E193802
:1026A000381E1938381E1938381E1938381E19388E
:1026B000381E1938381E1938381E1938381E19387E
:1026C000381E1938FFF74EFE2188287A002200F0C4
:1026D00073FF19E00F4829881A233246401C00F086
:1026E0007BFE0646287900F025FF30802088708028
:1026F000207A3071A078707162883946B01D00F080
:1027000059FE304600F06EFE0020F8BDBC8000206F
:102710006038002006D80000B80608002C90002081
:1027200038B50124684604700C21494800F00EFFBA
:10273000474D6946EC702A1D352000F043FF002804
:1027400000D02C7100F016FA4249322000F004FF4C
:102750000021322000F010FE00F0B2F838BD10B5B4
:1027600000F0C5FA10BD10B5394802238078322236
:10277000010239480E3100F02FFE012101701321B2
:10278000417000F02FFE10BD10B5044630482C23D8
:1027900080783222010230480E31801E00F01CFE8B
:1027A00001462030047200224272084600F01AFEF0
:1027B00010BD10B5502332220D21284800F00CFE28
:1027C000044600F00BFA204600F00CFE02213220F5
:1027D00000F0D2FD10BD214810B5012332220D2199
:1027E0000B3800F0F9FD0221017000F0FBFD10BD77
:1027F00010B500F090FA10BD194B10B59A4201D9EE
:102800001A4602E0002A00D1012200F0E1FE10BDCC
:10281000F8B50646114815460F46252332220D21EC
:10282000C01C00F0D9FD0446012020772046062276
:1028300039461D3000F0BEFD2320065565822582F5
:10284000204600F092FA204600F0CCFDF8BD0000D2
:102850005C840020C43A0020043800000E340000DC
:102860003075000010B500F0B9FE254900F0BCFE3F
:102870002448081810BDF8B5234D0646A876002454
:1028800000F0ACFE2919641CE4B20874082CF7D3DC
:1028900000241027381BB04201DD002007E000F0C3
:1028A0009DFEC117090E0918090A0902401A285588
:1028B000641CE4B2102CEDD300F090FE2883F8BD28
:1028C00010B52421104800F041FE00F054F910BD6D
:1028D00010B50E4802238078322201020C480E31D6
:1028E00000F07AFD0D21017007492031897841708F
:1028F00000F078FD0321322000F03EFD10BD000005
:10290000A0BB0D00A0860100688400205C8400202C
:102910001A38000010B5084609781C460B0000F074
:102920000DFD080520202008181B1E2000F020FAAD
:1029300017E04178012904D0002902D0022903D0F0
:102940000FE000F016FA0CE01146204600F01AFAEB
:1029500007E000F00FFA04E000F00DFA01E000F0EB
:102960000BFA002010BD10B50878304C801E030013
:1029700000F0E4FC020214188878A070C0070AD0A6
:102980002B492A4A4879203AD07628480622001F47
:10299000891D00F00FFD00F0F0F903E0FFF7E3FE02
:1029A0000020A070002010BDF8B518460D46014665
:1029B0001223204800F010FD0446284600F0DEF9FE
:1029C0000027002821D0194EB078C0071DD030460E
:1029D0000822A91C103800F035FD002815D130461A
:1029E0002038018B2A8891420FD101212170807EED
:1029F0006074314610222039601C00F0DBFCB07896
:102A0000FFF7C2FE00F0BDF900E02770204600F09D
:102A1000E9FC2078002801D1FFF7A5FE0020F8BDD1
:102A200010B500F0ADF9002010BD00008884002032
:102A30005C8400201838000010B5104600F078FCC7
:102A4000002809D1012332220D21484800F0C4FC9E
:102A50000121017000F0C6FC002010BD70B508789F
:102A600015460F282DD008DC01280DD0022834D0BF
:102A700003281CD00E2830D11FE0102825D01128A3
:102A800023D0122829D123E04878002825D13748BF
:102A9000222332220D21801C00F09EFC04460146B8
:102AA000284600F039F9204600F09CFC15E04878F3
:102AB000002812D100F03BF90FE0487800F04EF901
:102AC0000BE0487800F04BF907E000F04DF904E026
:102AD0004878442801D100F04AF9002070BD70B553
:102AE0001C4610460D4600F023FC022805D1204963
:102AF000200A8870284600F03FF8002070BD70B5AD
:102B0000087815460C460A2810D1104600F010FC33
:102B100004280BD16078002802D000F01DF905E0F0
:102B20000521284600F028FC00F017F9002070BDB0
:102B300010B5104600F0BCF8002010BD10B51046CE
:102B40000C4600F0F5FB012808D12078002805D1BB
:102B5000FFF705FE002801D000F002F9002010BDAB
:102B600010B5084600F002F9002010BD0234000044
:102B70005C8400207047704770B50446C94880786F
:102B8000FF2828D03221C84800F034FD052132202A
:102B900000F0F2FBC448092332223F21401F00F01D
:102BA0001BFC0546012028702078A870607A6870A8
:102BB000214606220A31E81C00F0FCFB284600F002
:102BC00011FC608800F0C8F900F098F9B7488078E7
:102BD000FFF7DAFD70BDFFF7ECFD70BDF0B5044600
:102BE00093B00E202070002565709620A081E081B2
:102BF00007202074012060741C20E07427462246C0
:102C00001F202037143238741646511E0B2000F056
:102C1000D9FC002805D02A46E574A5A1304600F06D
:102C2000C9FB22463132511E0C20119200F0CAFC21
:102C3000002805D03D742A469FA1119800F0BAFBE8
:102C4000E07C1A21081A45B2002D2FDD3E2069468E
:102C5000087001AA022000F0B5FC002806D00D2261
:102C60006846027095A101A800F0CAFC6846007889
:102C700000281BD0A84200D2054668460570E07CBB
:102C80006D1C8555E27C2046092115301154E17CEC
:102C9000401C0B186846027801A9184600F08AFB10
:102CA00068460078E17C801C0818E07413B0F0BD21
:102CB00010B50C4600F03CFB032803D0052801D0DA
:102CC000042813D10221322000F056FB7F49002056
:102CD00008707548092332223F21C01E00F07CFB9A
:102CE0002178817000F07EFBFFF763FD10BD70B5A9
:102CF00000247749022008706A4DE878022807D23C
:102D0000012801D100F0EEF8E878401CE87000E0FE
:102D10000124204670BD7047032008700A204870C7
:102D200000204882087548751720C882704710B582
:102D30000121322000F020FBFFF711FD002801D017
:102D4000FFF737FD5848042332223F210A3800F0AC
:102D500043FB00F047FB10BD70477047704770475A
:102D600010B5FFF726FD10BD7047704770477047DC
:102D70007047704770477047704770470120704731
:102D800070477047704710B518460C4601464648D4
:102D9000012332220B3800F01FFB2178491C0170FF
:102DA00000F020FB002010BD10B5087800F0F8FB03
:102DB00001020223322247480E3100F00DFB0121AF
:102DC00001701321417000F00DFB002010BD70B5A3
:102DD00000243F4D26460C351420604340190680E0
:102DE00022461221801C00F011FC641C202CF3DB15
:102DF00070BD10B54878354C012801D0002005E0A1
:102E00002078012801D0FFF7E2FF01202070002088
:102E100010BD10B5322000F08BFA052814D12248DD
:102E20000E2332223F21401E00F0D6FA0446002035
:102E300020701C480C22007860702749A01C00F00C
:102E4000B9FA204600F0CEFA10BD0188491C018075
:102E50007047F8B51D481E4C0078012821D11F4F3E
:102E60001F4D26460C360097A06869898000801D9A
:102E70000A1860681421484380191B2300F0D1F818
:102E800000280EDD6068401C6060202801DB002007
:102E90006060A068401CA0600A28E4DB0020A060FD
:102EA000E1E7F8BD5C8400200DC8000088840020A4
:102EB000070103180000000002FF00004441313404
:102EC0003538302054454D504C0000008D84002092
:102ED0009881002004380000D69100204B2E00205D
:102EE000BC80002010B50223322236210B4800F0AE
:102EF00073FA0021018000F075FA10BD10B536217B
:102F000004233222880200F067FA3221018004494A
:102F10000988418000F066FA10BD000005D8000065
:102F20005C84002010B510460C4600F001FA012820
:102F300009D1322201231146900200F04DFA217886
:102F4000017000F04FFA002010BD10B5487900F074
:102F500026F8002010BD00001121821F0C2A05D286
:102F6000A34A41008A18403A3421515EA14A508058
:102F700088B21080411C083A1160704710B51221C8
:102F80009D4800F0E3FA9D489B498088888110BDE8
:102F9000002803D098494889401C488170479649C9
:102FA000CA88521CCA800A8910180881704770B5F7
:102FB000914CE089401CE081E0898E494D88FF21D9
:102FC0006843913188421FDB12222146881800F0A5
:102FD000F1F91221204600F0B9FA21461231888910
:102FE000A081A089C889122268430880A089101A8C
:102FF0004A88121A4A808B88142242439B1A8B807B
:103000006080A2800120087470BD10B5FF2191314D
:103010007B4800F001FB7A480021001F41700170DD
:1030200010BDF0B5764D964602462D1F68782E1DD0
:1030300007018C46BC19E17B002902D00020C04367
:10304000F0BD0121E173F2516146A17371466160E7
:10305000A3810599A160411CC9B269701929EFD3F8
:1030600000216970F0BD192802D30020C0437047C9
:10307000634900014018C07B704770B50446614841
:103080002C2380783222010205208002491D00F0A5
:10309000A3F9050019D00420A880207BA871A0887E
:1030A0002881A27B6A8128460C30216800F082F9D1
:1030B000284600F097F9A07B00F0C4FA0020E073E6
:1030C000A268002A01D003CC904770BDF8B54C4CE3
:1030D0000146241F2078251D00014019C07B0027D0
:1030E00000281CD045488088012818DD461A14E0C5
:1030F000207800014019FFF7C0FF2078761E401CA1
:10310000C0B27F1C2070192801D300202070000657
:10311000000D4019C07B002801D0002EE8DC3846A5
:10312000F8BD70B5354933488C8812210B1B3449E2
:10313000304A091F08388D78083A40681268002D17
:1031400001D0A01A401C012800DA0120934201DDC1
:10315000012200E000228A70C0B2FFF7B7FF264AC2
:10316000211A918170BD70B52449244A8C88214967
:1031700012260839096892880020331B1E4D92B22E
:103180008B4209DA112C04DA1D4B1B1F9B78012B93
:1031900002D0701A02D004E0AA8170BD122900D0BA
:1031A0000120C0B2FFF792FF211AA98170BDF8B5C6
:1031B000154C00272078154E3D46012803D0316874
:1031C000012909D012E0FFF7CEFF07460220356043
:1031D0002070FFF7ECFE09E0022807D1FFF7A1FFFE
:1031E000074635602078022800D125703846F8BDA2
:1031F0005C3B0020B03B0020C4910020B8060800D2
:10320000349000205C84002024900020289000202E
:10321000064C0125064E05E0E36807CC2B430C3C29
:1032200098471034B442F7D3FDF716F9743B0020E9
:10323000A43B002003B40148019001BD9D1B020086
:1032400003B40148019001BDDF29030003B4014824
:10325000019001BD6F39030003B40148019001BD25
:10326000032B030003B40148019001BD218D02002E
:1032700003B40148019001BDF92B030003B40148D8
:10328000019001BDBD1E030003B40148019001BDC2
:10329000012C030003B40148019001BD7F650200C9
:1032A00003B40148019001BD1B30030003B4014881
:1032B000019001BD6B30030003B40148019001BDD2
:1032C0008F1F030003B40148019001BD7B1B020066
:1032D00003B40148019001BDA17D020003B401487F
:1032E000019001BD672D030003B40148019001BDA9
:1032F000B18C020003B40148019001BDAB8C020007
:1033000003B40148019001BDDF89020003B4014804
:10331000019001BD598C020003B40148019001BD28
:103320007B64020003B40148019001BD8D6402007A
:1033300003B40148019001BDAD24030003B401486A
:10334000019001BD6F3C030003B40148019001BD31
:10335000437A020003B40148019001BD151D02002B
:1033600003B40148019001BD431D020003B40148AC
:10337000019001BD238E020003B40148019001BDFC
:103380002924030003B40148019001BD3DA40200BB
:1033900003B40148019001BD0FB0020003B401481D
:1033A000019001BDA3A2020003B40148019001BD38
:1033B000FBA2020003B40148019001BD8139030062
:1033C00003B40148019001BD99A2020003B4014871
:1033D000019001BD6B96020003B40148019001BD4C
:1033E0007D21030003B40148019001BDAD2103001C
:1033F00003B40148019001BDEF61020003B401482C
:10340000019001BD5350020003B40148019001BD79
:103410002D50020003B40148019001BD31D20200D9
:1034200003B40148019001BDF13B030003B401481E
:10343000019001BD0B8C020003B40148019001BD55
:10344000398B020003B40148019001BDD939030052
:1034500003B40148019001BDE727030003B401480C
:10346000019001BD2D1E030003B40148019001BD70
:103470002D27030003B40148019001BDF18D020026
:1034800003B40148019001BD0B91020003B401484F
:10349000019001BD0739030003B40148019001BD4B
:1034A0001B65020003B40148019001BD452A0300D9
:1034B00003B40148019001BD3D72020003B401480C
:1034C000019001BD9D2A030003B40148019001BD94
:1034D000132D030003B40148019001BDED1B020050
:1034E00003B40148019001BDFB2A030003B4014865
:1034F000019001BD452F030003B40148019001BDB7
:103500006F62020003B40148019001BD5F620200D6
:1035100003B40148019001BD198A020003B40148B7
:10352000019001BDE78C020003B40148019001BD88
:103530004F62020003B40148019001BD8BE102001B
:1035400003B40148019001BD3DE1020003B401480C
:10355000019001BDB339030003B40148019001BDDE
:103560006B23030003B40148019001BDC39802001E
:1035700003B40148019001BDD921030003B40148FF
:10358000019001BD8B98020003B40148019001BD78
:10359000619C020003B40148019001BD9D990200A5
:1035A00003B40148019001BD5FE1020003B401488A
:1035B000019001BD4998020003B40148019001BD8A
:1035C00023AD020003B40148019001BDE1270300CF
:1035D00003B40148019001BD1F26030003B4014854
:1035E000019001BD5D39030003B40148019001BDA4
:1035F0003339030003B40148019001BDB126030033
:1036000003B40148019001BD8139030003B40148AE
:10361000019001BDA539030003B40148019001BD2B
:10362000B339030002E008C8121F08C1002AFAD10A
:1036300070477047002001E001C1121F002AFBD132
:103640007047000003494A88521C4A808A88101833
:1036500088807047C49100200101000A04280A04F0
:103660000203AA0055032A00A001FFFF2C0100005D
:103670000A0000007D7202000B0000009377020038
:103680000C000000F37602000D00000099720200A9
:103690000E000000CB7202000F0000001B7702003A
:1036A00010000000F57202001200000037730200E3
:1036B000110000007D73020013000000A7730200D8
:1036C00014000000D1730200150000000376020010
:1036D00016000000357602001B000000177402007F
:1036E0004D0000008F7602001700000049770200AD
:1036F0001800000033750200190000007775020001
:103700001A000000BD7502001C000000B577020021
:103710001D000000D57702001E0000006B7702003C
:103720001F0000009374020020000000E3740200F8
:10373000210000001B7802004900000059780200B7
:1037400000080000250D002001000000657802003F
:10375000090000007D78020005000000A778020043
:1037600006000000D1780200020000003579020056
:1037700007000000F9780200000000002379020031
:10378000030000009579020004000000B7790200F0
:1037900008000000217A02004C000000A97B020012
:1037A0007036002026000000950E0020210F00201A
:1037B000C4410300A0370020AC050800060001004A
:1037C00000000000E8370020200608000200010089
:1037D000FFFF0000C30D002002FC0000958F0200D7
:1037E00003FC0000A18F0200D0370020030000007E
:1037F000FF003F00FF03FF01A43A0020BC3A002075
:103800002D90002003000100A0FF060000A1FF167C
:103810000000A2FF160000A3FF160000A4FF160080
:1038200000A5FF160000A6FF160000A7FF16000067
:10383000A8FF160000A9FF160000AAFF160000ABA3
:10384000FF456E61626C652053747265616D446101
:1038500074612044657669636500446174610000A9
:10386000002801000200020008380020032801009F
:10387000050005000A380020A1FF09000200000031
:103880000000000002290902020000000000000000
:103890000129010018001800413800200328010008
:1038A000050005000F380020A2FF090214000000E7
:1038B00000000000022909020200000000000000D0
:1038C00001290100040004005A38002003280100E7
:1038D0000500050014380020A3FF090214000000B1
:1038E00000000000022909020200000000000000A0
:1038F00001290100040004005A38002003280100B7
:103900000500050019380020A4FF0902140000007A
:10391000000000000229090202000000000000006F
:1039200001290100040004005A3800200328010086
:10393000050005001E380020A5FF09021400000044
:10394000000000000229090202000000000000003F
:1039500001290100040004005A3800200328010056
:103960000500050023380020A6FF0902140000000E
:10397000000000000229090202000000000000000F
:1039800001290100040004005A3800200328010026
:103990000500050028380020A7FF090214000000D8
:1039A00000000000022909020200000000000000DF
:1039B00001290100040004005A38002003280100F6
:1039C000050005002D380020A8FF090214000000A2
:1039D00000000000022909020200000000000000AF
:1039E00001290100040004005A38002003280100C6
:1039F0000500050032380020A9FF0902140000006C
:103A0000000000000229090202000000000000007E
:103A100001290100040004005A3800200328010095
:103A20000500050037380020AAFF09021400000035
:103A3000000000000229090202000000000000004E
:103A400001290100040004005A3800200328010065
:103A5000050005003C380020ABFF090214000000FF
:103A6000000000000229090202000000000000001E
:103A700001290100040004005A38002005D8000084
:103A80007D24002000D80000CD24002001D80000B3
:103A9000A925002002D80000B72500200E30000024
:103AA000732600207C3A002001000000843A0020A8
:103AB000010000008C3A002003000000000000001C
:103AC0000000000000000000543B00208C84002017
:103AD0000600010001340000392A002000340000F3
:103AE0005D2A002000380000FF2A00200138000075
:103AF000DF2A002003380000312B002000C800001E
:103B00003D2B002010340000612B002013380000F2
:103B100015290020153800006729002017380000FB
:103B2000A929002019380000212A002001C800001E
:103B3000872D002009C80000A92D00200BC8000017
:103B4000F32D002006D80000252F002007D8000004
:103B50004B2F0020D43A002010000000070008007E
:103B600009000A000A000C000D000D000F000F00F4
:103B700010001100B43B00200080002090040000E1
:103B800034360020B43B002020900020C801000003
:103B90003436002008090800D0280800300700004B
:103BA00034360020800C00000800000001000000F6
:043BB0000700060004
:040000052000045182
:00000001FF
