:020000042000DA
:1000000000980020A5040020AD040020C5040020B5
:1000100000000000000000000000000000000000E0
:10002000000000000000000000000000DD040020CF
:100030000000000000000000F5040020F70400208C
:10004000C3260020B72700200D310300A52700207C
:100050002B2700208D310300C9270020DB2700203B
:10006000F9040020F90400203D280020AD310300F0
:1000700057810200F9040020F9040020F90400204F
:10008000F9040020F9040020F9040020B520002024
:10009000B9200020BD200020C1200020C520002064
:020000042000DA
:10016000320000008B0500206F1800208929002034
:10017000000000000000000063800200BD8002005B
:10018000090C0020FB800200198102003581020069
:100190005D8102003526002071050020F50B00204E
:1001A000FF0B002000000000000000003F000000E6
:1001B000F48B002000040000740B080048010000CC
:1001C0006807080000040000C80C080020050000B3
:1001D000000000002000000048000000580000005F
:1001E0006800000004010000160100002801000062
:1001F0002E010000202A00008E2E000001000000C9
:1002000088130000F9180020E9600200FD93020045
:100210000313002019280300A5740200BD23002049
:1002200003000000D52002009129002004000000F6
:10023000D74902000F490200831D020063910200AA
:10024000B7910200BF910200078202007182020092
:10025000383E0020AD8302009384020041850200F5
:1002600015860200378602005F860200758602004E
:10027000F9870200258902005D8A0200D38C020002
:10028000098D02000F900200438D0200278E0200AC
:10029000F98E0200478F02007B0B0020D58F0200F1
:1002A00049510200775102002F5202001000000055
:1002B00020030000803E000000000000000000005D
:020000042000DA
:1002C000504600030003983A6400F401B80B000C98
:1002D000B80B120030003000CD009A01120024004B
:1002E00030006400B0001800280012001200D0078F
:1002F0000000FFFF00000000000000000000000000
:100300001F000002444131343538302D30310000B7
:1003100000000000000000000000000000000000DD
:0403200000000000D9
:020000042000DA
:10034000FFFF010000C201000000000000000000EB
:100350000000F4010100011B0A0F1AFFD200021570
:10036000585CDE931B0142CC9A1325009BEDC65EC0
:1003700000010002C5000000000009FF00605257A4
:100380002D424C450000000000000000000000006D
:100390000000000000000000000044617461526130
:1003A00074654D6F6E69746F72000000000000008C
:1003B000000000000000000000000000000000003D
:1003C000000000000000000000000000000000002D
:1003D0000000000000000000010000CAEA80D00711
:0403E000064064323D
:020000042000DA
:100440000348854603F01AFA00480047C720020017
:10045000009800200F4906200880FF200E49013037
:1004600008600E4988683E2290432E308860002242
:10047000052000070280018A0F231B021943018215
:1004800001210748C90404C1401E0028FBDA62B6F6
:10049000704700000034005080E100E0003300505D
:1004A000FF0B00001548804715480047042071469F
:1004B000084203D0EFF3098012490847EFF30880A0
:1004C0001049084704207146084203D0EFF3098021
:1004D0000D490847EFF308800B490847042071468F
:1004E000084203D0EFF3098008490847EFF308807A
:1004F00006490847FEE7FEE7FEE700005504002036
:10050000410400203509002011050020670E00205D
:1005100005221207518A8023194351821249036828
:100520000B6043684B6083688B60C368CB60036972
:100530000B6143694B6183698B61C369CB6108625D
:100540000A48836A4B62C36A8B62036BCB62C36BDC
:100550000B63436B4B63806B8863908A800601D585
:1005600000BE7047FEE700000018080000ED00E044
:1005700010B59B490020086000F0FAFA01208007BE
:10058000016B49004908016310BD1CB59549012064
:10059000087095490820088003F082F901F052FAAA
:1005A000FF2401340D202146800103F07FF901F082
:1005B00021FF00F041FA8D48017801708C480178E4
:1005C0000170012003F078F901F0B4F800F060FA4E
:1005D000042000F0FEF8072000F0FBF80A2000F0ED
:1005E000F8F8062000F0F5F80B2000F0F2F80120F2
:1005F00000F0EFF8022000F0ECF8002000F0E9F83D
:100600007C48006803F05EF900F0D9FB00F00BFCB9
:1006100001F052F8A00501682143016000F017FBCA
:1006200000F000F902F0B2FBFFF7A2FF002505245D
:100630002407E58270484188E0229143A03141803F
:10064000012003F045F903F016F80426208900067E
:1006500019D501208007006B000414D403F03EF983
:10066000C00710D1042003F03FF9074603F042F918
:10067000002F08D0042101A8019503F041F90028BA
:1006800001D000F088FA02F01AFF5C4F387C002895
:1006900002D002F0F4FE3D7403F0BFF80028D5D17B
:1006A00072B601F0CDFE69460870042806D0022813
:1006B0000AD0032808D001287ED088E0504800786E
:1006C00001280CD003200870208A304320824D4836
:1006D000C0690128087813D9032802D049E0022014
:1006E000F1E703F013F9002843D003F015F90028CF
:1006F0003FD0032003F016F900283AD0022006E08C
:10070000032836D103F00EF9002832D001203E49EB
:1007100008703E48016931430161618A202291439A
:100720006182218A02221143218269460A78618A04
:10073000022A21D0314361827F21238889018027C9
:100740003B43238000235B1CDBB20A2BFBD3638A71
:1007500010273B4363822E4B491E59612188802319
:10076000994321802B49022A0D700CD0032A0AD00C
:1007700027E002206946CBE731436182618A10237A
:1007800099436182EEE71C494A88FF2301339A436B
:100790004A806288204B1A804A8801231A434A8083
:1007A00001950199491C01911429FADB6189890895
:1007B0008900491C618100E008E061894906FAD599
:1007C000658030BF0169B143016100E030BF62B6AE
:1007D0003CE7C106C90E01208840104908607047F7
:1007E0008C0308002484002000330050000008001F
:1007F000202A08000490002020000050D291002000
:1008000054020800E0010020C406080000ED00E0EA
:1008100000800040568400205884002080E200E0E0
:10082000704700003E480178002902D080214170C5
:1008300070473C49002008703B49C87070473848F1
:100840000178002902D0812141707047354901208B
:1008500008703549C870704731480178002902D0C6
:100860008221417070472F49022008702E490120D3
:10087000C87070472A488178002904D0491E0906AB
:10088000090E817017D142780021002A04D0920706
:10089000920F0270417004E00278002A01D0521ECB
:1008A00002701206120E017005D0012A02D0022A2F
:1008B00001D1D1E7C3E7704710B5194CA078401CAF
:1008C000A0702078002805D103F032F8421CFFF711
:1008D000A9FF227010BD12490120C870704710494D
:1008E0000020C87070470E48C07870470020EFF3B2
:1008F0001081012282F31088052212071289120644
:1009000005D40A48028901231A43028118460029A6
:1009100000D0012181F310887047054800787047A6
:100920002584002054020800C60608000033005049
:100930005484002005221207118A042319431182CE
:10094000118A02231943118211894023194311810D
:10095000184B01211960184B08211980518A8023F6
:1009600019435182154903680B6143684B618368E1
:100970008B61C368CB6103690B6243694B62836916
:100980008B62C369CB6208630D48836A4B63C36A99
:100990008B63036BCB63C36B084940310B60436BC4
:1009A0004B60806B8860908A800601D500BE7047DE
:1009B000FEE7000080E200E000330050401808002D
:1009C00000ED00E070B52D4B00261869F6430028B5
:1009D00001D0304600E00120C117020F0901114388
:1009E00002011861264804684568224329430260D1
:1009F00041605969002900D10126F117F20E490121
:100A00005E61114304687201436822431943026026
:100A1000416070BD38B50024032202231202042174
:100A20002046009401F0B1F8002201230521104670
:100A3000009401F0AAF838BD10B505242407208AD7
:100A4000022188432082A08A0007FCD50D484188F6
:100A5000FF22013211434180A08880210843A080F9
:100A60000321092002F06AFF00F009FAFFF7D2FF24
:100A7000608A20210843608210BD000008800020A9
:100A80000080002020000050A149002048607047ED
:100A900070B5052000070189302291430181018949
:100AA000802211430181018989088900491C018143
:100AB000018908231943018196490C8814430C804D
:100AC000448A9C4344820589402425430581058A44
:100AD0000426B5430582858AAD07FCD58C4E0025DA
:100AE00075600D88012635430D804D89AE058A4D10
:100AF0000E8801D52E4300E0AE430E800D88782687
:100B0000B54328350D800D88062635430D80458A6E
:100B10001D4345820B8893430B800289A2430281C7
:100B20004889800503D57B490520603188800120F4
:100B300080070168821591430160784801683F226F
:100B40005202914342148918016001680203114363
:100B5000016070BD03217248090281810822428030
:100B60000021491C9629FCD382807047704770474A
:100B700010B56C4802F0E8FE10BD70B5654C608899
:100B8000C006050F02F0E6FE61881E2291436A004E
:100B90001143618070BD10B563490120C863C86B03
:100BA0000028FCD101208007C16960480268914299
:100BB00001D20022026019238A1ADB019A4212D361
:100BC000016002F0CDFE5A4A1188884201D9411ACB
:100BD00000E0091A89B2182905D31080012002F01B
:100BE000C5FE02F0C9FE10BD08B5009808BD08B5E5
:100BF000009808BD08B502F0C5FE009008BD08B514
:100C000002F0C6FE009008BD08B54A4901204A69B5
:100C10005206D20F13D04A699206D20F0FD000228B
:100C20000A610092FF225F32009B5B1C009393429B
:100C3000FAD34969C907C90F02D002F0AFFE0020FC
:100C400008BD40183721C0000901401870471FB582
:100C5000684601F038FB009802F02EFE1FBD10B56B
:100C6000354A0020117800290DD02F490120C86392
:100C7000C86B0028FCD101208007C0692F49096892
:100C8000884201D2012010BD0020107002F050FEF9
:100C9000022803D002F04CFE01280BD1284908207D
:100CA000088005200007818A8906FCD4418A8022B9
:100CB00091434182002010BD0020704708B51549BE
:100CC0004A8801231A434A8000210091491C00915F
:100CD0001429FBDB052109074A8992089200521C5E
:100CE0004A814A895206FCD54B89042213434B8121
:100CF0004880488990434881888A0006FCD5488905
:100D000080088000488148890006FCD508BD0000A5
:100D10002C84002020000050001000000002004041
:100D200020300050E2040000C00000407C040800B5
:100D3000780408000010005024840020A4450020FE
:100D400000330050FFB581B01F460E464D780C7839
:100D5000002002F029FE042824D000281DD121E023
:100D60005F48816E2E206043091888880207120FA1
:100D7000130002F01FFE070505050F050F050F0004
:100D80008204920E062A05D27278012A12D0072216
:100D900010438880641C6407640F28466D1EEDB202
:100DA0000028DDD13B463146039A019802F008FE47
:100DB00005B0F0BD204602F009FE0020F8E770B54E
:100DC00048480378021D0021474D07E0CC00165D1E
:100DD000002E01D12418A560491CC9B29942F5D34F
:100DE00070BD70B505460C46103C3F2002F0DCFD9E
:100DF00000280FD03D488068322806D93C498D42F2
:100E000001D03C2801D9002070BD2146374802F0AE
:100E1000E3FD06E0204602F0E5FD01213F2002F05F
:100E2000E7FD012070BD10B52E490B780A1D00208A
:100E300005E0C400145D3F2C04D0401CC0B29842B1
:100E4000F7D310BD284AC00010324018826010BD90
:100E5000028908892749101A80B2884201D90120E5
:100E600070470020704781692039897F082905D2A1
:100E70001D4A89002032515881617047FEE71F48A2
:100E80001D4901611E4941611E4981611E49C161BF
:100E90001E4901621E4941621E4981621E49C162AA
:100EA0001E4901631E4941631E4981631E49C16396
:100EB0001C4912485C31403001601C4941601C49AA
:100EC00081601C49C16001201B49C00608601B49A4
:100ED000CA691202120ACA6117498039086070474C
:100EE000D802080004060800883F0020800408009B
:100EF0001034000030750000942703000084004087
:100F000062B600DF28A30200704701DF1CCA02009E
:100F1000F8BD02DF40CB0200F5E703DF84D4020016
:100F200004DF89B0BC330200F8BD05DFF8BD06DF81
:100F3000EC0C030070BD07DF80E100E000ED00E095
:100F400070B516460D46104602F02EFD002869D0F9
:100F5000340A304602F028FD012812D0A87A1E2853
:100F600011D029460A310E2845D019DC801E030015
:100F700002F020FD0B255829582D58315839583D7D
:100F80005800022070BD3146274802F037FD00218D
:100F9000204602F039FD0221304602F029FD41E0F1
:100FA00018283CD006DC102819D012282BD016287F
:100FB00038D130E0522822D0D22833D127E0204641
:100FC00002F028FD2EE0204602F02AFD2AE020460D
:100FD00002F02CFD26E0204602F02EFD22E0204605
:100FE00002F030FD1EE0204602F032FD1AE02046FD
:100FF00002F034FD16E0204602F036FD12E02046F5
:1010000002F038FD0EE0204602F03AFD0AE02046EC
:1010100002F03CFD06E0204602F03EFD02E02046E4
:1010200002F040FD002070BD01280000F8B50D461B
:10103000064681002B48EA884458521C20686B8978
:10104000018F294F51430091014640314A89C98996
:10105000511A8AB2991A89B2B94214D29A4212D05C
:10106000294602F025FD2D892049009802F026FD31
:101070002818801C4034E0823002401C80B20421D9
:1010800002F0B6FCF8BD2821304602F01DFDF8BD87
:10109000F8B50546870013480C46C059C988006852
:1010A000114E024640325389D2899A1A92B28B1A53
:1010B0009BB2B34211D20B4E8A420ED002F00AFD0F
:1010C000F05905225F30611C02F00AFD2802401C25
:1010D00080B2052102F08CFCF8BD2821284602F0E0
:1010E000F3FCF8BD4C030800FF7F00001027000050
:1010F00070B50446007800250D2801D00A2200E0D2
:1011000002225A494B7A002B06D00D2804D0637C6A
:10111000032B01D0432551E0097A8A4339D10D28A8
:1011200009D00E2802D00F2803D134E0607C0328B8
:1011300004D3402542E0607C0328FAD8A07C042830
:10114000F7D20A2908D0607C012822D0022820D0BA
:101150006078032809D811E002F0C8FC012806D104
:101160006078032803D0002801D0492526E002F04A
:10117000BDFC002802D160780228F6D83020035D3B
:1011800022462046E17C3132143000F019F8054641
:1011900014E0422512E002F0A9FC012807D1607892
:1011A000052804D1A01D02F0A7FC0028DDD002F024
:1011B0009DFC002802D160780228D6D8284670BD50
:1011C000FFB5002086B001216A46117004460591E2
:1011D0000021002C06D0089D099A1F239A4234D979
:1011E000402032E01C23069D079AF7E76B185E78D3
:1011F000330002F0DFFB1D2610101010101010102D
:1012000010262626262626262626262626261010C0
:10121000101010102600059B03E06F46FF5CB742DC
:1012200004D05B1E5BB2002BF7DA03E0002B01DB7E
:101230004A2006E0059B6F46FE54059B5B1CDBB213
:1012400005936B5C491C5918C9B2914201D2002820
:10125000CCD0914202D04A200AB0F0BD641CE4B266
:10126000022CF9D20028B3D0F6E700009805080058
:1012700070B5EFF31085012080F31088264802F046
:1012800041FC0446002D1DD0012080F31088002C65
:1012900023D020462038C08B204988421DD1618947
:1012A000208902F035FC05000ED021461031A389BB
:1012B00062892089A847002806D001280DD002287D
:1012C0000BD105E00020E0E7204602F027FC04E017
:1012D000114821460C3002F07FFBEFF3108401200F
:1012E00080F310880C480068002802D1012002F029
:1012F0001BFC002C03D0012080F3108870BD00205F
:10130000FAE710B5BC21064802F014FC054901209B
:1013100002F016FC10BD0000A8050800388300008C
:101320000406080071120020F3B581B001980C4644
:101330000102CA1D0E310223344802F007FC04707A
:1013400001990546022732488E00002C06D0042C55
:1013500016D0062C10D0072C3FD108E08159052269
:101360004968897C114069708059C77335E0084627
:1013700002F0F2FB687030E080590F21C1732CE05D
:10138000044680594068417C012902D1007E012831
:101390000FD0019802F0E6FB01210028A0590BD0E4
:1013A0004268D07D00281CD001281AD004280DD016
:1013B0000FE0002068700DE04068C27D022A01D075
:1013C000042A06D1007C02280BD102E0107C0228FE
:1013D00007D06F70A1590320C873284602F0C8FBDC
:1013E000FEBD6970F6E701460A780120042A01D99A
:1013F000002070474A78002A01D0012AF8D10A79E2
:10140000082AF5D849790829F2D87047021C00004B
:1014100028050800FFB589B00D46002069460590F3
:1014200008720B98000A009002F09CFB07460B988C
:1014300002F0BAFA00287DD00B982978000A8400BF
:10144000784E012963D0042904D0062948D0072901
:1014500068D125E03059C17B032901D0042961D12D
:10146000697800291AD040681022A91C02F038FBC4
:10147000002F06D03159C87B032807D0042808D094
:1014800050E03059C07B032803D04BE00B20C873D9
:1014900048E00521009802F071FB43E00120B6E02E
:1014A0003059C07B0E283DD1009802F055FB002139
:1014B00003E02A18401C9170C0B21028F9D3688A42
:1014C00069460883294606A808221431023002F032
:1014D00007FB06ABAA1C3946009802F055FB21E039
:1014E0003059C07B0F281DD1AA1C0A21009802F098
:1014F00051FB002F04D03946009802F051FB11E057
:1015000000231A463946009802F050FB0AE0012FEA
:1015100008D10B9802F048FA01281CD0002801D00D
:10152000022005906846007A002811D002AA052101
:10153000009800E00CE002F02DFB6846027A602083
:1015400002436846027201233946009802F02EFBDE
:1015500005980DB0F0BD3059C07B0228E2D1687803
:10156000002851D002210B9802F042FA305907228C
:101570004068A91C173002F0B3FAE878002804D1BB
:1015800030594068407C01283AD0009802F014FBA2
:10159000002837D0297A009802F014FB002833D0B5
:1015A000009802F015FB0121009802F017FB0028BB
:1015B0002CD030594068417E00292BD0042929D0F5
:1015C000C17E027D1140C17630594068017F427D65
:1015D000114001776846007A0028A7D130590221CE
:1015E00042680098173202F0D5FA3059416840310C
:1015F000897B002913D004210098FFF795FE91E71D
:10160000022004E0062002E0082000E003206946F2
:1016100008728BE70021C17630594068D9E70B2169
:10162000C1737FE72805080010B50C4602F0DCFA0C
:1016300021888A00294989580968002902D0284B45
:10164000C968995010BD10B5144602F0D3FA210AAA
:101650008A00224989580968002902D0204BC968AC
:10166000995010BDFFB50F46100A1C49800009585B
:1016700081B009681E461546002901D0CC6803E0F8
:10168000174900220C580A50002C0DD0201F40880A
:101690001449884208D1A068002802D0204602F0F0
:1016A000AFFA204602F0B2FA33462A46394601988C
:1016B00002F0B2FA05B0F0BD70B50B480378021D18
:1016C00000210A4D07E0CC00165D012E01D124183F
:1016D000A560491CC9B29942F5D370BD4C030800FE
:1016E000408400203883000004060800E041002008
:1016F0000F4A518807235B029943400201435180FE
:1017000070470520000701883022114301800188BD
:101710000322114301807047052000070188302211
:101720009143018001888908890001807047000089
:101730008000005030B5974A9749D005048880232F
:101740001C430480954C65892D0701D4521EFAD2A2
:10175000934C01222260934C0A882280924A498845
:10176000118001889943018030BD00207047704787
:10177000704770470020704701218907086B0722D6
:10178000104308637047704730B58949874808603F
:1017900088494C200880874C874B203C238288490D
:1017A00086484880884887490180864919314180A8
:1017B0002221418181218900018284494182844919
:1017C00001838249113141837F4A824920329180CD
:1017D0004122814912018A80804ACA807F4D10359A
:1017E000CD810A824A82921C8A826A1FCA82FF22A3
:1017F00046320A837A4A4A837A4A592111807949C2
:10180000794D20310D8043254D80784D5582D5226C
:101810008A80FF22D3320A81754A4A81754A8A81B9
:10182000764A754911806349754A60394A80CA8889
:1018300010252A43CA806C4A0A3A0A815D4D714AD2
:10184000403D6A80638208224A815749654A098877
:10185000403A118253496C4A098811806B490978D2
:10186000002901D03021018330BD4008704700B508
:101870008BB0674A4262674A8262674A4261674A3E
:10188000C262674A0260674A0262674A4260674A08
:10189000C261474A45480021106045484038026B04
:1018A00003129A430263426B1F231B049A430323D0
:1018B0001B04D21842635E480268C3129A43026056
:1018C000026803139A43026068464154491CC9B236
:1018D0002829FAD301462822564802F001F9FFF7D9
:1018E00053FF02F03DF854490880002002F03EF812
:1018F00002F042F80BB000BD10B52D4A0F212B4865
:10190000090210602A484038426B1F231B049A4387
:1019100003231B04D218426300060268D208D200D7
:10192000026005200007028992089200521C028181
:10193000028908231A430281028A0A430282174855
:101940004189890504D501887822914308310180B5
:10195000FFF71AFF3948006F0078002804D0384894
:10196000008814496039C880012001F0B1FF10BD22
:101970002648007870472549012008701249302018
:10198000088370472149002008700F4910480883D8
:1019900070470000A0860100087F0400200000506E
:1019A00000800040560208004A0308004C05540716
:1019B00080000040602C00507F7F0000AC290000B8
:1019C00000220050090900000024005022040000F9
:1019D00030D00000EE110000002500502E02000063
:1019E00044200000402800500D95000002420000F5
:1019F000E4DC00001092000053780000002A005040
:101A00008B1000009DD5000000260050448400206B
:101A10006B1700206F170020751700207917002022
:101A20007117002087170020731700206B18002003
:101A3000000200402000080078040800E0010020B7
:101A400052040800FEB50020F84E0346282200216B
:101A5000424392198C00491C13510A29FADB401C9D
:101A60000428F3DBFEF7AEFFF048002208380260DE
:101A7000426015460024EE486900475A0120A04004
:101A800080B207421CD0282068438019A10040582A
:101A9000411C19D0002810D0C117224602F0C2F80C
:101AA0002A0102F0BFF8E14B083B1A685B6810435B
:101AB000DE4A1943083A10605160641C0A2CDDDBD1
:101AC0006D1C042DD6DBFEBD0095019400BEE3E73E
:101AD000F8B5164604460D460A461F460120002169
:101AE00002F0A0F8220102F09DF8D04B083B1A68E2
:101AF0005B6810401940084300D100BE032C00D1A0
:101B00000424CC4960014018690008183E43C6808F
:101B1000F8BD70B504460D460A460120002102F0CA
:101B200081F8220102F07EF8C04A083A1368526830
:101B300018401140084300D100BE032C00D10424FA
:101B4000BC49600140180121A940818070BD70B579
:101B500004460D460A460120002102F063F82201E6
:101B600002F060F8B14A083A136852681840114010
:101B7000084300D100BE032C00D10424AD4960010C
:101B800040180121A940418070BDFFB581B00C46CD
:101B900005460A461F46012000210A9E02F042F82F
:101BA0002A0102F03FF8A14B083B1A685B6810401D
:101BB0001940084300D100BE002E2146284602D01D
:101BC000FFF7C5FF01E0FFF7A4FF3B46214628468B
:101BD000039AFFF77DFF05B0F0BD70B515460446CA
:101BE0000E460A460120002102F01CF8220102F0F4
:101BF00019F88E4B083B1A685B681040194008437F
:101C000000D100BE002C07D0601E8A494000703110
:101C10004018012C02D002E00020F6E708360188C7
:101C20000122B2409143B5400D43058070BD70B5AF
:101C300004460D460A460120002101F0F3FF22016F
:101C400001F0F0FF794A083A1368526818401140D1
:101C5000084300D100BE032C00D104247549600163
:101C6000401800880121A940084000D0012070BD23
:101C7000FFB514460D4606460A4681B001200021F4
:101C800001F0D0FF320101F0CDFF684B083B1A682C
:101C90005B6810401940084300D100BE66A0006890
:101CA0000090664880892346133BFF2201329A4008
:101CB0000B999043002901D0012700E00027D107AC
:101CC00001D0002138E0910701D5012134E051070E
:101CD00001D5022130E0110701D503212CE0D10606
:101CE00001D5042128E0910601D5052124E0510603
:101CF00001D5062120E0110601D507211CE0D10500
:101D000001D5082118E0910501D5092114E05105FC
:101D100001D50A2110E0110501D50B210CE0D104F9
:101D200001D50C2108E0910401D50D2104E05104F6
:101D300001D50E2100E00F218F40404938438881B2
:101D400088890B9F80098001384388810F8A9743D7
:101D5000D00701D0002038E0900701D5012034E001
:101D6000500701D5022030E0100701D503202CE0F8
:101D7000D00601D5042028E0900601D5052024E0F6
:101D8000500601D5062020E0100601D507201CE0F2
:101D9000D00501D5082018E0900501D5092014E0F0
:101DA000500501D50A2010E0100501D50B200CE0EC
:101DB000D00401D50C2008E0900401D50D2004E0EA
:101DC000500401D50E2000E00F200A9A82401743EC
:101DD0000F820F8A0122104698408743C30701D023
:101DE000002042E0830701D501203EE0430701D5F2
:101DF00002203AE0030701D5032036E0C30601D5EF
:101E0000042032E0830601D505202EE0430601D5EB
:101E100006202AE0030601D5072026E0C30501D5E8
:101E2000082022E083050BD509201EE00880002051
:101E3000F04100200030005001090F19001400503B
:101E4000430501D50A2010E0030501D50B200CE065
:101E5000C30401D50C2008E0830401D50D2004E063
:101E6000400401D50E2000E00F20049B83401F4357
:101E70000F82954861000818418B6B4689099B5D6C
:101E800089015B1919434183A007C30EFF219940C3
:101E900080209840002C0BDA23071B0F083B9D087D
:101EA0008A4BAD00ED18EB698B430343EB6107E010
:101EB000A508874BAD00ED182B688B4303432B60BF
:101EC000E006C00E82408348026084E67E494031CD
:101ED0000A8A0121133881400A40C80701D0002036
:101EE00038E0880701D5012034E0480701D50220F9
:101EF00030E0080701D503202CE0C80601D50420F6
:101F000028E0880601D5052024E0480601D50620F2
:101F100020E0080601D507201CE0C80501D50820EF
:101F200018E0880501D5092014E0480501D50A20EC
:101F300010E0080501D50B200CE0C80401D50C20E9
:101F400008E0880401D50D2004E0480401D50E20E6
:101F500000E00F20C240D0B2704710B55A4C403458
:101F6000238A0122133882409343D00701D00020F6
:101F700038E0900701D5012034E0500701D5022058
:101F800030E0100701D503202CE0D00601D5042055
:101F900028E0900601D5052024E0500601D5062052
:101FA00020E0100601D507201CE0D00501D508204F
:101FB00018E0900501D5092014E0500501D50A204C
:101FC00010E0100501D50B200CE0D00401D50C2049
:101FD00008E0900401D50D2004E0500401D50E2046
:101FE00000E00F2081400B43238210BD10B5364C1A
:101FF0004034E38901221146133881408B43C807DE
:1020000001D0002038E0880701D5012034E04807DE
:1020100001D5022030E0080701D503202CE0C806D6
:1020200001D5042028E0880601D5052024E04806D3
:1020300001D5062020E0080601D507201CE0C805D0
:1020400001D5082018E0880501D5092014E04805CD
:1020500001D50A2010E0080501D50B200CE0C804CA
:1020600001D50C2008E0880401D50D2004E04804C7
:1020700001D50E2000E00F2082401343E38110BD04
:10208000154A8000801880384163704710B50446B7
:10209000FFF7ACFF1049A00040188038406B0028C3
:1020A00001D0804710BDE106C90E012088400B49D0
:1020B000086010BD1320E9E71420E7E71520E5E7E5
:1020C0001620E3E71720E1E7C013005000ED00E021
:1020D00000E400E000E100E0A880002080E200E0F1
:1020E00008430121890303460B4343490B80434BBB
:1020F00018430880092002434A8070473E490A88F5
:102100000F239B0100079A43800D02430A8070470A
:10211000394900200880704737483949028802232E
:102120001A430280491E02D302889207FAD4002182
:102130000181408970470AE000BF00BF00BF00BFB7
:1021400000BF00BF00BF00BF00BF00BF00BF401EF8
:10215000F2D2704770B50222510204464E0030465A
:10216000FFF7BEFF1420FFF7E6FF002C01D0092087
:1021700000E00720FFF7C2FFFFF7CEFF0546012072
:10218000FFF7D9FF022200213046FFF7A9FF002CFC
:1021900001D0092000E00720FFF7B0FFFFF7BCFFE8
:1021A0004019154A0021118070BDF0B5124C154838
:1021B00020801420FFF7BFFF01256D02A580E58078
:1021C0002088E9000843208020888E10B0432080BA
:1021D000FFF7A2FF0746208830432080FFF79CFFCF
:1021E0000246780071424018281A52005118691AA4
:1021F000A080E180F0BD000000150050014000000B
:10220000A08601000148000008B5892105200007CB
:1022100001810121614A4903118001888022114313
:10222000018001888908890001805D48018A0222B5
:1022300011430182FFF7A8FA01F0FAFC01F0FEFC5D
:102240000020694601E00888401C08800888912821
:10225000F9D308BD08B55349002008804880534A87
:10226000514BD380FF23D2331381C880C3215180C7
:102270004F4A082111806946088003E06A461188A8
:10228000491C1180694609889129F7D3694608805D
:1022900003E06A461188491C118069460988912922
:1022A000F7D3694601E00888401C08800888912817
:1022B000F9D308BD3F4A5080918001201080D0881A
:1022C000C007FCD17047F1B5FFB0FFB094B011ACBE
:1022D00033480494008AA41C1090FFF795FF3148FE
:1022E00001880F9141880E913049CA880D920A8960
:1022F0000C92C2880B92408B0A902F48408809901C
:1023000048888446FFF7A6FF00252B46FF2111A829
:10231000FFF7D0FF00210A460846049E275C365C82
:102320007E40F607F60F8E401643491CC9B2F2B242
:10233000082906D1FFA9C96C4A556D1C0021ADB210
:102340000A461030FF2680B2B600B042E5D95B1CC9
:102350009BB2022BDAD3124910980882144900204C
:10236000088010480F9901800E9941800F490D9AFD
:10237000CA800C9A0A810B9AC2800A9A42830E4A3A
:102380000998508060464880052000070188802217
:10239000914301807FB07FB015B0F0BD00020040D6
:1023A000E030005000240050808000006028005081
:1023B00020200050003500500026005070B5164611
:1023C0000C46054601280FD106221749174801F08F
:1023D0003BFC002808D006221449304601F080FB5F
:1023E00006202070002070BD32462146284601F0AC
:1023F00031FC70BD70B50E480E49C4052288802599
:102400002A4322800C4A53891B0701D4401EFAD26A
:102410000A4A012010600622044801F061FB20886E
:10242000A843208070BD0000383E03004584002092
:10243000A0860100D47F04002000005000800040EE
:10244000F8B5594F0026786D0090FEF74CFA574CBE
:10245000002802D12079022801D100200090FEF747
:10246000FEFB00280DD101F0FBFB002809D0E0782D
:102470000126002805D005252D07A88AC00701D010
:1024800004268EE001F02AFA002838D120790028AD
:1024900001D1386D009046488069002801D0786DE0
:1024A0000090A1786846009F01F0E0FB002878D0FA
:1024B000A178684601F024FA002872D001F0DCFB14
:1024C00000286ED0FF2000972D300127BF07396A02
:1024D0008142FCD3A178684601F0C8FB00280CD0EB
:1024E000A178684601F00CFA002806D0314A832012
:1024F00012780099022A03D003E001F0C3FB50E0F8
:10250000B5202D4A1378012B00D121300023137000
:10251000FB6B0F229B0A9B021343FB63FA6B274B57
:1025200080021A400243FA63F86B3722C002C00AE5
:1025300092051043F8630426002901D0091D00917B
:1025400000986421C00201F0B9FA1D49401E0860DC
:102550002179002900D0012101F09AFB1948C06AB5
:1025600080470024FEF7A8FB002808D028883021E7
:102570000843288028880321084328800124386BD9
:102580000004C00FFBD010480168C905FCD5002C21
:1025900001D0FFF7C1F801F081FB28898021884331
:1025A00028813046F8BD000060020020C606080001
:1025B000A80508005402080055840020FF03E0FF2E
:1025C0004C8400201C07080000020040F8B50546B6
:1025D000B448B649047BB448C969006840300089F2
:1025E000884201D1002002E00002401C80B2060AAD
:1025F0001AE0AC4800276038816E2E20604308182E
:102600008078C0060AD001F04FFB0146A84AB0000E
:10261000105864228256914200DA0127384600F0B1
:10262000EDFF641C6407640F28466D1EEDB20028A0
:10263000DFD1F8BD70B50125AD07AC6B2046FEF7C4
:10264000DEFA9C4901F03AFA27221201511A00D110
:102650000121994A50601160286B08218843084382
:1026600028639648046096480068002802D0A0427B
:1026700000D200BE70BD10B5052000074189890752
:1026800008D041898908890041818E494A885208C9
:1026900052004A800189802211430181018A04226B
:1026A00091430182818A8907FCD501F003FB012057
:1026B00080070169490700D500BE01694907FCD5BB
:1026C00010BDF8B5804EF08800282DD10120F08093
:1026D0007E490820088005273F077889800720D099
:1026E000B88A400701D5FEF7A7F9764D28888021E2
:1026F00008432880764CFF20608004202080FFF76C
:1027000000F87D21C900E088A28800048018884272
:10271000F9D905202080B0887880298880208143DD
:1027200029806C4910200860F8BD70B5FEF7F4FFF1
:10273000FFF7A1FF0026644C0520E6800007418AD0
:102740008022914341826148018949084900018101
:1027500001F098FA01208007816904221143816108
:1027600001F0AEFA5B49102080310125086001F0CC
:10277000ADFA01F0B1FA534826704089800510D5B2
:10278000607800280DD1544865700088C00708D1D2
:102790000120FFF7DFFC8B218900884201D902204C
:1027A000607070BD10B501F09DFA00F073F84649F5
:1027B0000120087010BD10B501208007008A0006B6
:1027C00001D500F067F810BD10B53848C06CC0B234
:1027D000FFF7FCFE01F08CFA10BD10B50124A40730
:1027E000208A000729D53D49012008702E484E2334
:1027F00000682E4A4030018912685943384BC91885
:10280000515AC07C090A081AC0B2FFF7DFFE01F076
:1028100075FA206840004008610008432060206885
:10282000C00FFCD12448803001680906090E01D090
:102830000121016024490420087010BD70B52948A9
:10284000008885062848AD0E44681848006F007857
:10285000002802D1284601F057FA244800891A4E70
:10286000C00507D520060ED5E0070CD0284601F09C
:1028700051FA03E0200606D5E00704D017490120ED
:10288000486003203070200403D5E00501D5022004
:10289000307070BD10B50C490120887001F040FA0D
:1028A00010BD0000380308006C030800E0010020A0
:1028B0004C030800710200004000004050840020DA
:1028C0004C8400202000005054840020003300502D
:1028D0000016005000E200E000150050209000209B
:1028E0004A0008000020005000020040002C005068
:1028F000F8B514460F461E46054642880188062351
:10290000204601F023F90446287901F00FFA2080CF
:1029100027716680204601F02BF9F8BD70B514468A
:10292000428800790D460102042321480C3101F050
:102930000DF9002D01D0132100E012210170448017
:1029400001F016F970BD0A880270120A42708A7886
:102950008270CA78C2700A7902714A7942718979A3
:102960008171072070474278037812021A430A8067
:1029700082788A70C278CA7002790A7142794A7183
:10298000807988710720704710B500F013F810BDEA
:1029900070B5064615460C46362001F005F80228AB
:1029A00005D1E2B236232946304601F0C5F970BDA3
:1029B0000D30000010B5DC21484801F0C3F948494A
:1029C000362001F0C5F90021362001F011F810BDC4
:1029D000FEB5002668468680404C009660896A46AF
:1029E000801C80B201A901F0B9F9684680880228EC
:1029F00012D1009800280FD0007800280CD0E18870
:102A000001233622374801F0A1F800990978218284
:102A1000067001F0ADF807E0E68132482682E188D1
:102A20003622401C01F0A0F90098002800D0007860
:102A300069460881A6810A2702AA0221032001F023
:102A400099F900256189A800C01D081880B202AA62
:102A5000022101F08FF9A0896D1C401CA081BD42AC
:102A6000F0DB68460089002800D1A681FEBDFEB5D6
:102A70000646002768468780184C0097E0896189E0
:102A80008000C01D08183D4680B26A4601A901F0C9
:102A900065F90098002817D00088002814D0E08934
:102AA00061898000801D081880B23246142101F02F
:102AB00061F9E08961898000801D081882B20021D7
:102AC0002046FFF72BFF0127E089401C80B2E08100
:102AD0000A2800D3E5813846FEBD0000BC800020F6
:102AE000F841002003D800003EB50020C043A24CAE
:102AF0000290E38008886081A048019000922046FF
:102B000000232D2202A90A3001F03AF90546608916
:102B1000002101F03BF9002D03D10121362000F006
:102B200067FFE18801233622954801F00FF8057010
:102B300001F01EF800203EBDF8B5002568468E4C19
:102B4000058062802380E3800E46488801F024F9E6
:102B5000207170882081E581A5818A4825820079CD
:102B60008949801F087060896A46801C80B20221F2
:102B700001F000F960896A46C01D80B2022101F0AF
:102B8000F9F860896A460B3080B2022101F0F2F850
:102B900060896A460F3080B2022101F0EBF860894B
:102BA0006A46133080B2022101F0E4F860896A4677
:102BB000173080B2022101F0DDF860896A461B30CF
:102BC00080B2022101F0D6F860896A461F3080B2D7
:102BD000022101F0CFF860896A46233080B20221D9
:102BE00001F0C8F860896A46273080B2022101F0FE
:102BF000C1F860896A462B3080B2022101F0BAF830
:102C00006089012101F0C2F80221362000F0F0FEB7
:102C10000020F8BD10B50121362000F0E9FE0020AB
:102C200010BDFFB583B000276846534E0781308A38
:102C3000002852D00498544905785248002400795D
:102C40000870009442E00197F18970898900C91DDC
:102C5000401880B201AA02A901F080F8019800286A
:102C60001CD00088002819D0F08971898000801D4F
:102C70000818214614225143049A80B28A1814215C
:102C8000921C01F077F8F08971898000801D081886
:102C900082B200213848FFF741FE02E00221684677
:102CA00001813948641C01786D1E491E0170F0894C
:102CB000A4B2401C80B2ADB2F0810A2801D3F781E2
:102CC0000AE00098401C00900A2805DA002D03D085
:102CD0002D4800780028B6D1002007B0F0BDF8B527
:102CE0000C46164623468A880833498820881F46A2
:102CF00001F058F8204D21886889081A801E0300C9
:102D000000F058FE2A163838381E1938381E19387F
:102D1000381E1938381E1938381E1938381E193817
:102D2000381E1938381E1938381E1938381E193807
:102D3000FFF74EFE2188287A002201F039F819E0C9
:102D40000F4829881A233246401C00F0FFFE064631
:102D5000287900F0EBFF308020887080207A307175
:102D6000A078707162883946B01D00F0B9FE304617
:102D700000F0FEFE0020F8BDBC8000206042002074
:102D800006D800001E0508002890002038B5012450
:102D9000684604700C21494800F0D4FF474D69464D
:102DA000EC702A1D352001F009F8002800D02C71A4
:102DB00000F016FA4249322000F0CAFF002132200A
:102DC00000F016FE00F0B2F838BD10B500F0C5FAFC
:102DD00010BD10B5394802238078322201023948EB
:102DE0000E3100F0B3FE012101701321417000F09B
:102DF000BFFE10BD10B5044630482C238078322227
:102E0000010230480E31801E00F0A0FE0146203045
:102E1000047200224272084600F0AAFE10BD10B5EE
:102E2000502332220D21284800F090FE044600F085
:102E30000BFA204600F09CFE0221322000F0D8FD63
:102E400010BD214810B5012332220D210B3800F0AE
:102E50007DFE0221017000F08BFE10BD10B500F068
:102E600090FA10BD194B10B59A4201D91A4602E0EA
:102E7000002A00D1012200F0A7FF10BDF8B50646D8
:102E8000114815460F46252332220D21C01C00F0A3
:102E90005DFE0446012020772046062239461D307B
:102EA00000F01EFE2320065565822582204600F094
:102EB00092FA204600F05CFEF8BD00005C84002021
:102EC000C4440020043800000E34000030750000B7
:102ED00010B500F07FFF254900F082FF2448081854
:102EE00010BDF8B5234D0646A876002400F072FF09
:102EF0002919641CE4B20874082CF7D300241027A5
:102F0000381BB04201DD002007E000F063FFC1176D
:102F1000090E0918090A0902401A2855641CE4B26E
:102F2000102CEDD300F056FF2883F8BD10B52421F6
:102F3000104800F007FF00F054F910BD10B50E481E
:102F400002238078322201020C480E3100F0FEFD8F
:102F50000D210170074920318978417000F008FE89
:102F60000321322000F044FD10BD0000A0BB0D0085
:102F7000A0860100688400205C8400201A380000CC
:102F800010B5084609781C460B0000F013FD080533
:102F900020202008181B1E2000F020FA17E041789E
:102FA000012904D0002902D0022903D00FE000F04B
:102FB00016FA0CE01146204600F01AFA07E000F07D
:102FC0000FFA04E000F00DFA01E000F00BFA002027
:102FD00010BD10B50878304C801E030000F0EAFCEC
:102FE000020214188878A070C0070AD02B492A4A18
:102FF0004879203AD07628480622001F891D00F023
:103000006FFD00F0F0F903E0FFF7E3FE0020A07091
:10301000002010BDF8B518460D4601461223204881
:1030200000F094FD0446284600F0DEF90027002851
:1030300021D0194EB078C0071DD030460822A91CF7
:10304000103800F001FE002815D130462038018BE1
:103050002A8891420FD101212170807E607431460F
:1030600010222039601C00F03BFDB078FFF7C2FE53
:1030700000F0BDF900E02770204600F079FD2078CF
:10308000002801D1FFF7A5FE0020F8BD10B500F023
:10309000ADF9002010BD0000888400205C84002071
:1030A0001838000010B5104600F07EFC002809D149
:1030B000012332220D21484800F048FD0121017012
:1030C00000F056FD002010BD70B5087815460F2899
:1030D0002DD008DC01280DD0022834D003281CD0C4
:1030E0000E2830D11FE0102825D0112823D0122817
:1030F00029D123E04878002825D1374822233222DD
:103100000D21801C00F022FD04460146284600F0F7
:1031100039F9204600F02CFD15E04878002812D13E
:1031200000F03BF90FE0487800F04EF90BE04878EA
:1031300000F04BF907E000F04DF904E0487844282E
:1031400001D100F04AF9002070BD70B51C46104650
:103150000D4600F029FC022805D12049200A88707C
:10316000284600F03FF8002070BD70B5087815467D
:103170000C460A2810D1104600F016FC04280BD18A
:103180006078002802D000F01DF905E005212846EE
:1031900000F02EFC00F017F9002070BD10B51046AD
:1031A00000F0BCF8002010BD10B510460C4600F031
:1031B000FBFB012808D12078002805D1FFF705FE88
:1031C000002801D000F002F9002010BD10B508461B
:1031D00000F002F9002010BD023400005C840020E1
:1031E0007047704770B50446C9488078FF2828D0DA
:1031F0003221C84800F002FC0521322000F0F8FB23
:10320000C448092332223F21401F00F09FFC05469D
:10321000012028702078A870607A68702146062204
:103220000A31E81C00F05CFC284600F0A1FC608834
:1032300000F0C8F900F098F9B7488078FFF7DAFD98
:1032400070BDFFF7ECFD70BDF0B5044693B00E20E5
:103250002070002565709620A081E08107202074F1
:10326000012060741C20E074274622461F2020376E
:10327000143238741646511E0B2000F09FFD0028B2
:1032800005D02A46E574A5A1304600F029FC224667
:103290003132511E0C20119200F090FD002805D013
:1032A0003D742A469FA1119800F01AFCE07C1A2177
:1032B000081A45B2002D2FDD3E206946087001AA8C
:1032C000022000F07BFD002806D00D226846027027
:1032D00095A101A800F08AFD6846007800281BD05F
:1032E000A84200D2054668460570E07C6D1C8555F5
:1032F000E27C2046092115301154E17C401C0B185A
:103300006846027801A9184600F0EAFB6846007892
:10331000E17C801C0818E07413B0F0BD10B50C46B9
:1033200000F042FB032803D0052801D0042813D164
:103330000221322000F05CFB7F49002008707548B4
:10334000092332223F21C01E00F000FC2178817049
:1033500000F00EFCFFF763FD10BD70B50024774947
:10336000022008706A4DE878022807D2012801D1AE
:1033700000F0EEF8E878401CE87000E001242046F8
:1033800070BD7047032008700A20487000204882F2
:10339000087548751720C882704710B50121322082
:1033A00000F026FBFFF711FD002801D0FFF737FDE5
:1033B0005848042332223F210A3800F0C7FB00F0AE
:1033C000D7FB10BD704770477047704710B5FFF7C7
:1033D00026FD10BD704770477047704770477047B3
:1033E00070477047704770470120704770477047BB
:1033F000704710B518460C46014646480123322254
:103400000B3800F0A3FB2178491C017000F0B0FBE1
:10341000002010BD10B5087800F0BEFC01020223A8
:10342000322247480E3100F091FB01210170132137
:10343000417000F09DFB002010BD70B500243F4D91
:1034400026460C351420604340190680224612217E
:10345000801C00F0D1FC641C202CF3DB70BD10B587
:103460004878354C012801D0002005E0207801285B
:1034700001D0FFF7E2FF01202070002010BD10B541
:10348000322000F091FA052814D122480E2332226E
:103490003F21401E00F05AFB0446002020701C48CB
:1034A0000C22007860702749A01C00F019FB204610
:1034B00000F05EFB10BD0188491C01807047F8B523
:1034C0001D481E4C0078012821D11F4F1F4D264654
:1034D0000C360097A06869898000801D0A18606812
:1034E0001421484380191B2300F0D1F800280EDD79
:1034F0006068401C6060202801DB00206060A068DC
:10350000401CA0600A28E4DB0020A060E1E7F8BDD1
:103510005C8400200DC80000888400200701031887
:103520000000000002FF00004441313435383020F3
:1035300054454D504C0000008D840020988100209F
:1035400004380000D2910020B7340020BC80002055
:1035500010B50223322236210B4800F0F7FA002181
:10356000018000F005FB10BD10B536210423322286
:10357000880200F0EBFA3221018004490988418079
:1035800000F0F6FA10BD000005D800005C840020B1
:1035900010B510460C4600F007FA012809D1322276
:1035A00001231146900200F0D1FA2178017000F059
:1035B000DFFA002010BD10B5487900F026F8002091
:1035C00010BD00001121821F0C2A05D2A34A410020
:1035D0008A18403A3421515EA14A508088B2108046
:1035E000411C083A1160704710B512219D4800F047
:1035F000A9FB9D489B498088888110BD002803D085
:1036000098494889401C488170479649CA88521C8D
:10361000CA800A8910180881704770B5914CE089FA
:10362000401CE081E0898E494D88FF21684391313B
:1036300088421FDB12222146881800F051FA12211D
:10364000204600F07FFB214612318889A081A089A5
:10365000C889122268430880A089101A4A88121A61
:103660004A808B88142242439B1A8B806080A28000
:103670000120087470BD10B5FF2191317B4800F026
:1036800059FA7A480021001F4170017010BDF0B551
:10369000764D964602462D1F68782E1D07018C46F2
:1036A000BC19E17B002902D00020C043F0BD0121FC
:1036B000E173F2516146A17371466160A38105997E
:1036C000A160411CC9B269701929EFD3002169704A
:1036D000F0BD192802D30020C043704763490001A0
:1036E0004018C07B704770B5044661482C23807831
:1036F0003222010205208002491D00F027FA050050
:1037000019D00420A880207BA871A0882881A27BE2
:103710006A8128460C30216800F0E2F9284600F062
:1037200027FAA07B00F07EFB0020E073A268002A4D
:1037300001D003CC904770BDF8B54C4C0146241F16
:103740002078251D00014019C07B002700281CD0CF
:1037500045488088012818DD461A14E020780001C9
:103760004019FFF7C0FF2078761E401CC0B27F1CB6
:103770002070192801D3002020700006000D401988
:10378000C07B002801D0002EE8DC3846F8BD70B5BB
:10379000354933488C8812210B1B3449304A091FA4
:1037A00008388D78083A40681268002D01D0A01AB8
:1037B000401C012800DA0120934201DD012200E0D3
:1037C00000228A70C0B2FFF7B7FF264A211A918102
:1037D00070BD70B52449244A8C88214912260839C5
:1037E000096892880020331B1E4D92B28B4209DA81
:1037F000112C04DA1D4B1B1F9B78012B02D0701A71
:1038000002D004E0AA8170BD122900D00120C0B20C
:10381000FFF792FF211AA98170BDF8B5154C00275A
:103820002078154E3D46012803D03168012909D082
:1038300012E0FFF7CEFF0746022035602070FFF749
:10384000ECFE09E0022807D1FFF7A1FF074635602B
:103850002078022800D125703846F8BD5C4500204C
:10386000B0450020C09100201E05080030900020C7
:103870005C8400202090002024900020064C01252C
:10388000064E05E0E36807CC2B430C3C9847103408
:10389000B442F7D3FCF7D8FD74450020A4450020BE
:1038A00003B40148019001BD551B020003B4014857
:1038B000019001BDCF2B030003B40148019001BD6D
:1038C0000F3B030003B40148019001BDCB2C030062
:1038D00003B40148019001BD0990020003B40148FE
:1038E000019001BDC12D030003B40148019001BD49
:1038F0000921030003B40148019001BDC92D030053
:1039000003B40148019001BD2B69020003B40148D2
:10391000019001BDEB31030003B40148019001BDEA
:103920003D32030003B40148019001BDD7210300DB
:1039300003B40148019001BD1F21020003B40148F6
:10394000019001BD5D80020003B40148019001BDFA
:103950002F2F030003B40148019001BD998F02008D
:1039600003B40148019001BD938F020003B40148E4
:10397000019001BDCD8C020003B40148019001BD4E
:10398000418F020003B40148019001BD2768020085
:1039900003B40148019001BD3968020003B4014835
:1039A000019001BDB780020003B40148019001BD40
:1039B000B326030003B40148019001BDFD3D03009F
:1039C00003B40148019001BD197D020003B4014810
:1039D000019001BD0522020003B40148019001BD20
:1039E0002F22020003B40148019001BD0B91020097
:1039F00003B40148019001BD3126030003B401481E
:103A0000019001BDA528030003B40148019001BD48
:103A1000D5AF020003B40148019001BDA1A5020089
:103A200003B40148019001BDE3A5020003B40148BD
:103A3000019001BD87A8020003B40148019001BDB7
:103A4000A7A9020003B40148019001BD93AA020096
:103A500003B40148019001BD95AB020003B40148D5
:103A6000019001BDF9AB020003B40148019001BD12
:103A700069AC020003B40148019001BD17AD02001A
:103A800003B40148019001BD77AD020003B40148C1
:103A9000019001BDF1AD020003B40148019001BDE8
:103AA00085AE020003B40148019001BD11AF0200D0
:103AB00003B40148019001BD3350020003B4014832
:103AC000019001BDA73A030003B40148019001BD74
:103AD0005548020003B40148019001BD1F50020087
:103AE00003B40148019001BD213B030003B4014828
:103AF000019001BD7F0C030003B40148019001BD9A
:103B0000AB0C030003B40148019001BDBF220200C9
:103B100003B40148019001BDEB26030003B4014842
:103B2000019001BD3524030003B40148019001BD9B
:103B3000DD20030003B40148019001BD533B0300A5
:103B400003B40148019001BD9D20030003B4014866
:103B5000019001BDB123030003B40148019001BDF0
:103B600049E5020003B40148019001BDF9E30200F8
:103B700003B40148019001BDE123030003B40148EF
:103B8000019001BD4BCD020003B40148019001BD7D
:103B900099D1020003B40148019001BDABD00200ED
:103BA00003B40148019001BD69D0020003B401488B
:103BB000019001BD77CF020003B40148019001BD1F
:103BC00001CC020003B40148019001BD29CC0200E0
:103BD00003B40148019001BD15D2020003B40148AD
:103BE000019001BD8DD2020003B40148019001BDD6
:103BF000B938020003B40148019001BDCD44020070
:103C000003B40148019001BD7758020003B4014894
:103C1000019001BDD722030003B40148019001BD0A
:103C20002D42020003B40148019001BD8D3D030007
:103C300003B40148019001BDF38E020003B40148B2
:103C4000019001BD218E020003B40148019001BD25
:103C5000773B030003B40148019001BDD72903005D
:103C600003B40148019001BD7920030003B4014869
:103C7000019001BD2129030003B40148019001BD59
:103C8000D990020003B40148019001BDF7930200EE
:103C900003B40148019001BDC768020003B40148A4
:103CA000019001BD0D2C030003B40148019001BD3A
:103CB0004975020003B40148019001BD652C030061
:103CC00003B40148019001BDDB2E030003B4014899
:103CD000019001BD231D020003B40148019001BD04
:103CE000C32C030003B40148019001BD153103004A
:103CF00003B40148019001BD3B66020003B40148D2
:103D0000019001BD2B66020003B40148019001BD82
:103D1000038D020003B40148019001BDCF8F020062
:103D200003B40148019001BD1B66020003B40148C1
:103D3000019001BDE3E3020003B40148019001BD1D
:103D400095E3020003B40148019001BD533B030019
:103D500003B40148019001BD8725030003B4014865
:103D6000019001BDA59B020003B40148019001BD73
:103D70000D24030003B40148019001BD6D9B0200B6
:103D800003B40148019001BD459F020003B40148FE
:103D9000019001BD7B9C020003B40148019001BD6C
:103DA000B7E3020003B40148019001BD2B9B020060
:103DB00003B40148019001BDF3AF020003B4014810
:103DC000019001BDD129030003B40148019001BD58
:103DD0002528030003B40148019001BDFD3A03000A
:103DE00003B40148019001BDD33A030003B4014874
:103DF000019001BD213B030003B40148019001BDC6
:103E0000453B030002E008C8121F08C1002AFAD18E
:103E100070477047002001E001C1121F002AFBD14A
:103E20007047000003494A88521C4A808A8810184B
:103E300088807047C09100200101000A04280A040C
:103E40000203AA0055032A00A001FFFF2C01000075
:103E50000A000000857502000B0000006B7A02006A
:103E60000C000000CB7902000D000000A1750200DB
:103E70000E000000D37502000F000000F37902006D
:103E800010000000FD75020012000000177602000D
:103E9000110000005D76020013000000877602002A
:103EA00014000000B176020015000000D77802006F
:103EB00016000000097902001B000000F7760200DE
:103EC0004D0000005779020017000000217A02001F
:103ED0001800000013780200190000005378020057
:103EE0001A000000957802001C0000008D7A020084
:103EF0001D000000AD7A02001E000000437A02009F
:103F00001F0000007377020020000000C37702004A
:103F100021000000F37A020049000000317B02001A
:103F200000080000450D0020010000003B7B02005E
:103F300009000000537B0200050000007D7B0200A9
:103F400006000000A77B0200020000000B7C0200BC
:103F500007000000CF7B020000000000F97B020098
:103F6000030000006B7C0200040000008D7C020056
:103F700008000000F77C02004C0000006D7E02008B
:103F8000503E00202600000054430300803F0020E4
:103F9000320408000600010000000000E03F00209D
:103FA000A404080002000100510E0020410F00206F
:103FB00029130020E7130020151400202D100020E5
:103FC00091100020F1100020FFFF0000E30D002001
:103FD00002FC00007D92020003FC000089920200B6
:103FE000C83F00200300000005040000291600203F
:103FF000060400009339020007040000D9390200CA
:10400000080400001F3A020002040000B73B02004F
:1040100000040000093C0200040400006F3C0200A0
:1040200003040000D93C0200010400004B3D0200E3
:1040300009040000D73A02000A040000413B0200D4
:104040000B0400004D3F02002104000099420200D1
:1040500026040000EB47020000080000EF3F0200CA
:104060003F000000CF4102004B000000C93D0200AC
:104070004E000000213E0200230400007F3E0200AB
:1040800024040000B93E0200270400009B43020004
:1040900028040000C5430200250400003D4302003F
:1040A0002B040000F143020031040000114402001F
:1040B0003204000059440200350400008D4402001F
:1040C00029040000471600202A04000025450200AC
:1040D0002C0400006D4502002D040000F74502008D
:1040E0002E0400002B4602002F040000634602004D
:1040F0003304000093460200340400001547020018
:1041000036040000454702003004000097470200D3
:10411000010800002D420200010800006516002081
:1041200000080000EF3F0200000000000000000057
:10413000000000000000000000000000000000007F
:10414000000000000000000000000000000000006F
:10415000000000000000000000000000000000005F
:10416000000000000000000000000000000000004F
:10417000000000000000000000000000000000003F
:10418000000000000000000000000000000000002F
:10419000000000000000000000000000000000001F
:1041A000000000000000000000000000000000000F
:1041B00000000000000000000000000000000000FF
:1041C0000000000000000000184100200200000074
:1041D0000000000000000000E83F00202600000072
:1041E00028410020D8410020640308001600060082
:1041F000FF003F00FF03FF01A4440020BC44002057
:104200002990002003000100A0FF060000A1FF1676
:104210000000A2FF160000A3FF160000A4FF160076
:1042200000A5FF160000A6FF160000A7FF1600005D
:10423000A8FF160000A9FF160000AAFF160000AB99
:10424000FF456E61626C652053747265616D4461F7
:10425000746120446576696365004461746100009F
:10426000002801000200020008420020032801008B
:10427000050005000A420020A1FF0900020000001D
:1042800000000000022909020200000000000000F6
:1042900001290100180018004142002003280100F4
:1042A000050005000F420020A2FF090214000000D3
:1042B00000000000022909020200000000000000C6
:1042C00001290100040004005A42002003280100D3
:1042D0000500050014420020A3FF0902140000009D
:1042E0000000000002290902020000000000000096
:1042F00001290100040004005A42002003280100A3
:104300000500050019420020A4FF09021400000066
:104310000000000002290902020000000000000065
:1043200001290100040004005A4200200328010072
:10433000050005001E420020A5FF09021400000030
:104340000000000002290902020000000000000035
:1043500001290100040004005A4200200328010042
:104360000500050023420020A6FF090214000000FA
:104370000000000002290902020000000000000005
:1043800001290100040004005A4200200328010012
:104390000500050028420020A7FF090214000000C4
:1043A00000000000022909020200000000000000D5
:1043B00001290100040004005A42002003280100E2
:1043C000050005002D420020A8FF0902140000008E
:1043D00000000000022909020200000000000000A5
:1043E00001290100040004005A42002003280100B2
:1043F0000500050032420020A9FF09021400000058
:104400000000000002290902020000000000000074
:1044100001290100040004005A4200200328010081
:104420000500050037420020AAFF09021400000021
:104430000000000002290902020000000000000044
:1044400001290100040004005A4200200328010051
:10445000050005003C420020ABFF090214000000EB
:104460000000000002290902020000000000000014
:1044700001290100040004005A42002005D8000070
:10448000E92A002000D80000392B002001D80000C4
:10449000152C002002D80000232C00200E30000034
:1044A000DF2C00207C440020010000008444002018
:1044B000010000008C440020030000000000000008
:1044C0000000000000000000544500208C84002003
:1044D0000600010001340000A53000200034000077
:1044E000C9300020003800006B3100200138000086
:1044F0004B310020033800009D31002000C800002F
:10450000A931002010340000CD3100201338000004
:10451000812F002015380000D32F0020173800000D
:1045200015300020193800008D30002001C800002F
:10453000F333002009C80000153400200BC8000028
:104540005F34002006D800009135002007D8000015
:10455000B7350020D44400201000000007000800F8
:1045600009000A000A000C000D000D000F000F00EA
:1045700010001100B44500200080002090040000CD
:10458000143E0020B445002020900020C40100000B
:10459000143E002068070800202A0800E0050000FB
:1045A000143E0020800C0000080000000100000004
:0445B00007000600FA
:040000052000044192
:00000001FF
