:020000042000DA
:1000000000980020C9040020D1040020E904002049
:1000100000000000000000000000000000000000E0
:1000200000000000000000000000000001050020AA
:100030000000000000000000190500201B05002042
:10004000572000204B2100203D2F030039210020A4
:10005000BF200020BD2F03005D2100206F21002064
:100060001D0500201D050020D1210020DD2F0300EB
:10007000A77E02001D0500201D0500201D05002093
:100080001D0500201D0500201D050020491A002027
:100090004D1A0020511A0020551A0020591A00202C
:020000042000DA
:1001600032000000AF05002003120020CF2700203E
:100170000000000000000000A77D0200017E0200D8
:100180000F7E02004B7E0200697E0200857E020027
:10019000AD7E0200C91F002095050020150C00202F
:1001A0001F0C002000000000000000003F000000C5
:1001B000F48B002000040000140D08004C01000026
:1001C00008090800000400006C0E0800200500006B
:1001D000000000002000000048000000580000005F
:1001E00068000000260300003A0300004E030000F0
:1001F00054030000D02800008E2E000001000000F3
:10020000881300008D1200200D5D02001191020084
:10021000572303001326030097710200511D00208D
:10022000030000002F1C0200D7270020040000005C
:1002300087450200BF440200F91B02007B8E0200CA
:10024000CF8E0200D78E0200577F0200C57F0200CA
:10025000903B0020BB8002009B810200498202008B
:10026000E98202000D830200738302008983020089
:100270000B8502003186020033870200E589020007
:100280001F8A0200278D02005B8A02003F8B02005A
:10029000118C02005F8C02009B0B0020ED8C020091
:1002A000474D0200754D02002F4E02001000000065
:1002B00020030000803E00003F0000000D00000011
:1002C0002700000000000000000000000000000007
:020000042000DA
:1002D000504600030003983A6400F401B80B000C88
:1002E000B80B120030003000CD009A01120024003B
:1002F00030006400B0001800280012001200D0077F
:100300000000FFFF000000000000000000000000EF
:100310001F00000244413134353831000000000034
:1003200000000000000000000000000000000000CD
:0403300000000000C9
:020000042000DA
:10035000FFFF010000C201000000000000000000DB
:100360000000F4010100011B0A071AFFD200021568
:10037000585CDE931B0142CC9A1325009BEDC65EB0
:1003800000010002C5000000000009FF0060525794
:100390002D424C450000000000000000000000005D
:1003A00000000000000000000000444131343538F6
:1003B00078000000000000000000000000000000C5
:1003C000000000000000000000000000000000002D
:1003D000000000000000000000000000000000001D
:1003E0000000000000000000010000CAEA80D00701
:0403F000064064322D
:020000042000DA
:100450000348854603F08AF900480047211C020042
:1004600000980020144906200880FF20134901301D
:10047000086005200007818A0906FCD541898908A2
:100480008900418141890906FCD50D4A91683E23C6
:1004900099432E31916000220280018A0F231B02B2
:1004A0001943018201210748C90404C1401E0028E4
:1004B000FBDA62B6704700000034005080E100E0D3
:1004C00000330050FF0B00001548804715480047D7
:1004D00004207146084203D0EFF30980124908470F
:1004E000EFF308801049084704207146084203D002
:1004F000EFF309800D490847EFF308800B490847DF
:1005000004207146084203D0EFF3098008490847E8
:10051000EFF3088006490847FEE7FEE7FEE7000024
:1005200065040020510400205509002035050020F5
:10053000310E002005221207518A8023194351826F
:10054000124903680B6043684B6083688B60C36823
:10055000CB6003690B6143694B6183698B61C3693C
:10056000CB6108620A48836A4B62C36A8B62036B81
:10057000CB62C36B0B63436B4B63806B8863908A66
:10058000800601D500BE7047FEE700000018080095
:1005900000ED00E010B59A490020086000F0F8FA7C
:1005A00001208007016B49004908016310BD1CB59B
:1005B00094490120087094490820088003F0E8F865
:1005C00000F00AFFFF24013435202146000103F02A
:1005D000E5F801F0D9FB00F03FFA8C480178017092
:1005E0008B4801780170012003F0DEF800F06CFD0B
:1005F00000F05EFA042000F0FCF8072000F0F9F8A3
:100600000A2000F0F6F8062000F0F3F80B2000F0C6
:10061000F0F8012000F0EDF8022000F0EAF80020E8
:1006200000F0E7F87B48006803F0C4F800F0B7FB7F
:1006300000F0E9FBA00501682143016000F0FAFA2F
:1006400000F000F902F0B6FAFFF7A4FF0025052438
:100650002407E58270484188E0229143A03141801F
:10066000012003F0ADF802F07EFF04262089000689
:1006700019D501208007006B000414D403F0A6F8FC
:10068000C00710D1042003F0A7F8074603F0AAF82A
:10069000002F08D0042101A8019503F0A9F8002833
:1006A00001D000F088FA02F08CFE5C4F387C002804
:1006B00002D002F066FE3D7403F027F80028D5D181
:1006C00072B601F087FB69460870042806D002283C
:1006D0000AD0032808D001287ED088E0504800784E
:1006E00001280CD003200870208A304320824D4816
:1006F000C0690128087813D9032802D049E00220F4
:10070000F1E703F07BF8002843D003F07DF80028E0
:100710003FD0032003F07EF800283AD0022006E004
:10072000032836D103F076F8002832D001203E4964
:1007300008703E48016931430161618A202291437A
:100740006182218A02221143218269460A78618AE4
:10075000022A21D0314361827F21238889018027A9
:100760003B43238000235B1CDBB20A2BFBD3638A51
:1007700010273B4363822E4B491E596121888023F9
:10078000994321802B49022A0D700CD0032A0AD0EC
:1007900027E002206946CBE731436182618A10235A
:1007A00099436182EEE71C494A88FF2301339A434B
:1007B0004A806288204B1A804A8801231A434A8063
:1007C00001950199491C01911429FADB6189890875
:1007D0008900491C618100E008E061894906FAD579
:1007E000658030BF0169B143016100E030BF62B68E
:1007F0003CE7C106C90E01208840104908607047D7
:10080000FC0408004883002000330050000008006A
:10081000D02808002090002020000050D691002011
:1008200078030800E0010020B007080000ED00E0B8
:10083000008000407A8300207C83002080E200E07A
:10084000704700003E480178002902D080214170A5
:1008500070473C49002008703B49C87070473848D1
:100860000178002902D0812141707047354901206B
:1008700008703549C870704731480178002902D0A6
:100880008221417070472F49022008702E490120B3
:10089000C87070472A488178002904D0491E09068B
:1008A000090E817017D142780021002A04D09207E6
:1008B000920F0270417004E00278002A01D0521EAB
:1008C00002701206120E017005D0012A02D0022A0F
:1008D00001D1D1E7C3E7704710B5194CA078401C8F
:1008E000A0702078002805D102F09AFF421CFFF783
:1008F000A9FF227010BD12490120C870704710492D
:100900000020C87070470E48C07870470020EFF391
:100910001081012282F31088052212071289120623
:1009200005D40A48028901231A4302811846002986
:1009300000D0012181F31088704705480078704786
:100940004983002078030800B207080000330050F4
:100950007883002005221207118A0423194311828B
:10096000118A0223194311821189402319431181ED
:10097000184B01211960184B08211980518A8023D6
:1009800019435182154903680B6143684B618368C1
:100990008B61C368CB6103690B6243694B628369F6
:1009A0008B62C369CB6208630D48836A4B63C36A79
:1009B0008B63036BCB63C36B084940310B60436BA4
:1009C0004B60806B8860908A800601D500BE7047BE
:1009D000FEE7000080E200E000330050401808000D
:1009E00000ED00E070B52D4B00261869F643002895
:1009F00001D0304600E00120C117020F0901114368
:100A000002011861264804684568224329430260B0
:100A100041605969002900D10126F117F20E490100
:100A20005E61114304687201436822431943026006
:100A3000416070BD38B50024032202231202042154
:100A40002046009400F06BFD002201230521104692
:100A5000009400F064FD38BD10B505242407208AF9
:100A6000022188432082A08A0007FCD50D484188D6
:100A7000FF22013211434180A08880210843A080D9
:100A80000321092002F0D2FE00F0DEF9FFF7D2FFC9
:100A9000608A20210843608210BD00000880002089
:100AA00000800020200000509249002048607047DC
:100AB00070B5052000070189302291430181018929
:100AC000802211430181018989088900491C018123
:100AD000018908231943018187490C8814430C803C
:100AE000448A9C4344820589402425430581058A24
:100AF0000426B5430582858AAD07FCD57D4E0025C9
:100B000075600D88012635430D804D89AE057B4DFE
:100B10000E8801D52E4300E0AE430E800D88782666
:100B2000B54328350D800D88062635430D80458A4E
:100B30001D4345820B8893430B800289A2430281A7
:100B40004889800503D56C490520603188800120E3
:100B500080070168821591430160694801683F225E
:100B60005202914342148918016001680203114343
:100B7000016070BD0321634809028181082242801F
:100B80000021491C9629FCD382807047704770472A
:100B900010B55D4802F050FE10BD70B5564C60882F
:100BA000C006050F02F04EFE61881E2291436A00C6
:100BB0001143618070BD10B554490120C863C86BF2
:100BC0000028FCD101208007C16951480268914288
:100BD00001D20022026019238A1ADB019A4212D341
:100BE000016002F035FE4B4A1188884201D9411A52
:100BF00000E0091A89B2182905D31080012002F0FB
:100C00002DFE02F031FE10BD08B5009808BD08B5F4
:100C1000009808BD08B502F02DFE009008BD08B58B
:100C200002F02EFE009008BD40183721C0000901D7
:100C3000401870471FB5684601F00FF8009802F0A1
:100C4000B3FD1FBD10B5344A0020117800290DD026
:100C50002E490120C863C86B0028FCD10120800701
:100C6000C0692E490968884201D2012010BD0020C8
:100C7000107002F0D5FD022803D002F0D1FD01284A
:100C80000BD127490820088005200007818A8906A2
:100C9000FCD4418A802291434182002010BD002073
:100CA000704708B514494A8801231A434A80002135
:100CB0000091491C00911429FBDB052109074A8991
:100CC00092089200521C4A814A895206FCD54B89EF
:100CD000042213434B814880488990434881888A85
:100CE0000006FCD5488980088000488148890006B4
:100CF000FCD508BD508300202000005000100000EB
:100D00000002004020300050E2040000C00000401B
:100D1000F8050800F405080048830020CC3E0020B8
:100D200000330050FFB581B01F460E464D780C7859
:100D3000002002F0ABFD042824D000281DD121E0C2
:100D40004848816A2E206043091888880207120FDC
:100D5000130002F0A1FD070505050F050F050F00A3
:100D60008204920E062A05D27278012A12D0072236
:100D700010438880641C6407640F28466D1EEDB222
:100D80000028DDD13B463146039A019802F08AFDE6
:100D900005B0F0BD204602F08BFD0020F8E770B5ED
:100DA00031480378021D0021304D07E0CC00165D6C
:100DB000002E01D12418A560491CC9B29942F5D36F
:100DC00070BD70B505460C46103C3F2002F05EFD3C
:100DD00000280FD026488068322806D925498D4240
:100DE00001D03C2801D9002070BD2146204802F0E6
:100DF00065FD06E0204602F067FD01213F2002F07C
:100E000069FD012070BD10B517490B780A1D00203F
:100E100005E0C400145D3F2C04D0401CC0B29842D1
:100E2000F7D310BD114AC00010324018826010BDC7
:100E300081692039897F022905D20C4A8900083A44
:100E4000515881617047FEE70C480B4901610C491C
:100E500041610C4981610C49C1610C4901620C4935
:100E6000416270477C0408004C080800E83C002000
:100E7000FC050800103400001C4B020000840040F8
:100E800001DFFFB5C4A8020000DFF8B57C45030010
:100E900049100020F3B581B0002000900D464A882B
:100EA000044601466B46019802F01AFD060009D17E
:100EB0000098C488019802F019FD401E844200D2B7
:100EC000204684B222460B21019802F015FD074608
:100ED000002E06D06A882978334602F013FD0020E0
:100EE000FEBD7C80009922460831381D02F010FDBD
:100EF000384602F013FD688802F016FD0028EED097
:100F0000019902230A0201890C32044802F012FD01
:100F10006988018002F014FDE1E700001230000052
:100F2000FFB50646807A81B0012805D002234049EA
:100F30000D68002D02D006E00023F8E7022870D0EB
:100F4000012871D03B4D3C4CF288A08BB18880B217
:100F500002F0FCFC0090E0694E23042158434B044E
:100F60002268C0181152E0694E235843344B22685E
:100F70003249C0181152E0694E23717A5843304B00
:100F8000090255319B1E2268C01811520098E2696F
:100F900040304E2741887A431B11294F19433F1D8A
:100FA0002368D2199952E1694E277943244F4B2285
:100FB00052010C372368C9195A5221464031E2695F
:100FC000097B4E27049B7A4309021D4F1943BF1C1E
:100FD0002368D21999522368E1694E246143184C61
:100FE0000022143409195A52164A962111631549E0
:100FF000327A40390A610D6204994176029900986B
:1010000002F0AAFC0398002803D00146009802F0E1
:10101000A3FC009802F0A6FC009805B0F0BD00E02B
:1010200002E0FF25F5358EE7024DFA3D8BE7000023
:1010300064830020DC050000E00100202780000020
:101040000A000800C0000040FFB581B01E461446EB
:101050000F46150A104602F019FC00280DD0084969
:10106000A8000858C07B002807D0334622463946DE
:10107000019802F07DFC05B0F0BD0020FBE7000008
:10108000C00608000F4A518807235B0299434002BB
:101090000143518070470520000701883022114329
:1010A0000180018803221143018070470520000759
:1010B00001883022914301800188890889000180DC
:1010C000704700008000005030B5974A9749D0051E
:1010D000048880231C430480954C65892D0701D426
:1010E000521EFAD2934C01222260934C0A8822802D
:1010F000924A4988118001889943018030BD0020BF
:10110000704770477047704700207047012189077A
:10111000086B0722104308637047704730B5894950
:101120008748086088494C200880874C874B203CC2
:1011300023828849864848808848874901808649B3
:101140001931418022214181812189000182844914
:101150004182844901838249113141837F4A824916
:10116000203291804122814912018A80804ACA80BE
:101170007F4D1035CD810A824A82921C8A826A1F75
:10118000CA82FF2246320A837A4A4A837A4A59211E
:1011900011807949794D20310D8043254D80784D5E
:1011A0005582D5228A80FF22D3320A81754A4A812C
:1011B000754A8A81764A754911806349754A603952
:1011C0004A80CA8810252A43CA806C4A0A3A0A8192
:1011D0005D4D714A403D6A80638208224A815749C9
:1011E000654A0988403A118253496C4A098811803E
:1011F0006B490978002901D03021018330BD4008B6
:10120000704700B58BB0674A4262674A8262674A9C
:101210004261674AC262674A0260674A0262674A7D
:101220004260674AC261474A45480021106045480C
:101230004038026B03129A430263426B1F231B0464
:101240009A4303231B04D21842635E480268C31208
:101250009A430260026803139A430260684641544D
:10126000491CC9B22829FAD301462822564802F05F
:101270004FFBFFF753FF02F0EBFA544908800020C0
:1012800002F0ECFA02F0F0FA0BB000BD10B52D4AF6
:101290000F212B48090210602A484038426B1F2357
:1012A0001B049A4303231B04D218426300060268FE
:1012B000D208D2000260052000070289920892003D
:1012C000521C0281028908231A430281028A0A43BE
:1012D000028217484189890504D501887822914303
:1012E00008310180FFF71AFF3948006F00780028A5
:1012F00004D03848008814496039C880012002F0C1
:101300005FFA10BD26480078704725490120087013
:1013100012493020088370472149002008700F4986
:101320001048088370470000A0860100087F040071
:1013300020000050008000407A030800AE0408003E
:101340004C05540780000040602C00507F7F000057
:10135000AC290000002200500909000000240050C0
:101360002204000030D00000EE11000000250050E3
:101370002E02000044200000402800500D9500007F
:1013800002420000E4DC00001092000053780000EC
:10139000002A00508B1000009DD500000026005050
:1013A00068830020FF100020031100200911002095
:1013B0000D110020051100201B1100200711002035
:1013C000FF1100200002004020000800F405080082
:1013D000E0010020CE050800FEB50020F84E0346CF
:1013E00028220021424392198C00491C13510A29DA
:1013F000FADB401C0428F3DBFFF7F4FAF048002284
:1014000008380260426015460024EE486900475AD9
:101410000120A04080B207421CD0282068438019D8
:10142000A1004058411C19D0002810D0C1172246F5
:1014300002F0A4FA2A0102F0A1FAE14B083B1A6873
:101440005B681043DE4A1943083A10605160641C1F
:101450000A2CDDDB6D1C042DD6DBFEBD009501944E
:1014600000BEE3E7F8B5164604460D460A461F4699
:101470000120002102F082FA220102F07FFAD04B13
:10148000083B1A685B6810401940084300D100BE51
:10149000032C00D10424CC496001401869000818CD
:1014A0003E43C680F8BD70B504460D460A4601208D
:1014B000002102F063FA220102F060FAC04A083A01
:1014C0001368526818401140084300D100BE032C35
:1014D00000D10424BC49600140180121A940818049
:1014E00070BD70B504460D460A460120002102F089
:1014F00045FA220102F042FAB14A083A13685268EA
:1015000018401140084300D100BE032C00D1042430
:10151000AD49600140180121A940418070BDFFB56F
:1015200081B00C4605460A461F46012000210A9E4E
:1015300002F024FA2A0102F021FAA14B083B1A68B2
:101540005B6810401940084300D100BE002E2146C0
:10155000284602D0FFF7C5FF01E0FFF7A4FF3B4696
:1015600021462846039AFFF77DFF05B0F0BD70B510
:10157000154604460E460A460120002102F0FEF9F7
:10158000220102F0FBF98E4B083B1A685B681040A1
:101590001940084300D100BE002C07D0601E8A49C4
:1015A000400070314018012C02D002E00020F6E724
:1015B000083601880122B2409143B5400D430580B1
:1015C00070BD70B504460D460A460120002102F0A8
:1015D000D5F9220102F0D2F9794A083A1368526823
:1015E00018401140084300D100BE032C00D1042450
:1015F00075496001401800880121A940084000D0C9
:10160000012070BDFFB514460D4606460A4681B05E
:101610000120002102F0B2F9320102F0AFF9684B6B
:10162000083B1A685B6810401940084300D100BEAF
:1016300066A000680090664880892346133BFF221D
:1016400001329A400B999043002901D0012700E014
:101650000027D10701D0002138E0910701D50121F1
:1016600034E0510701D5022130E0110701D50321F3
:101670002CE0D10601D5042128E0910601D50521F1
:1016800024E0510601D5062120E0110601D50721ED
:101690001CE0D10501D5082118E0910501D50921EB
:1016A00014E0510501D50A2110E0110501D50B21E7
:1016B0000CE0D10401D50C2108E0910401D50D21E5
:1016C00004E0510401D50E2100E00F218F40404974
:1016D0003843888188890B9F80098001384388813D
:1016E0000F8A9743D00701D0002038E0900701D53A
:1016F000012034E0500701D5022030E0100701D569
:1017000003202CE0D00601D5042028E0900601D566
:10171000052024E0500601D5062020E0100601D562
:1017200007201CE0D00501D5082018E0900501D560
:10173000092014E0500501D50A2010E0100501D55C
:101740000B200CE0D00401D50C2008E0900401D55A
:101750000D2004E0500401D50E2000E00F200A9A6D
:10176000824017430F820F8A012210469840874318
:10177000C30701D0002042E0830701D501203EE0ED
:10178000430701D502203AE0030701D5032036E0E4
:10179000C30601D5042032E0830601D505202EE0E2
:1017A000430601D506202AE0030601D5072026E0DE
:1017B000C30501D5082022E083050BD509201EE0D2
:1017C00008800020283D00200030005001090F193A
:1017D00000140050430501D50A2010E0030501D58F
:1017E0000B200CE0C30401D50C2008E0830401D5D4
:1017F0000D2004E0400401D50E2000E00F20049BE2
:1018000083401F430F82954861000818418B6B4647
:1018100089099B5D89015B1919434183A007C30EA8
:10182000FF21994080209840002C0BDA23071B0FE2
:10183000083B9D088A4BAD00ED18EB698B430343D1
:10184000EB6107E0A508874BAD00ED182B688B43D3
:1018500003432B60E006C00E82408348026084E6AA
:101860007E4940310A8A0121133881400A40C80765
:1018700001D0002038E0880701D5012034E0480776
:1018800001D5022030E0080701D503202CE0C8066E
:1018900001D5042028E0880601D5052024E048066B
:1018A00001D5062020E0080601D507201CE0C80568
:1018B00001D5082018E0880501D5092014E0480565
:1018C00001D50A2010E0080501D50B200CE0C80462
:1018D00001D50C2008E0880401D50D2004E048045F
:1018E00001D50E2000E00F20C240D0B2704710B5E5
:1018F0005A4C4034238A0122133882409343D00744
:1019000001D0002038E0900701D5012034E05007D5
:1019100001D5022030E0100701D503202CE0D006CD
:1019200001D5042028E0900601D5052024E05006CA
:1019300001D5062020E0100601D507201CE0D005C7
:1019400001D5082018E0900501D5092014E05005C4
:1019500001D50A2010E0100501D50B200CE0D004C1
:1019600001D50C2008E0900401D50D2004E05004BE
:1019700001D50E2000E00F2081400B43238210BDD3
:1019800010B5364C4034E3890122114613388140AA
:101990008B43C80701D0002038E0880701D501201B
:1019A00034E0480701D5022030E0080701D50320C4
:1019B0002CE0C80601D5042028E0880601D50520C2
:1019C00024E0480601D5062020E0080601D50720BE
:1019D0001CE0C80501D5082018E0880501D50920BC
:1019E00014E0480501D50A2010E0080501D50B20B8
:1019F0000CE0C80401D50C2008E0880401D50D20B6
:101A000004E0480401D50E2000E00F20824013437B
:101A1000E38110BD154A800080188038416370470B
:101A200010B50446FFF7ACFF1049A00040188038FD
:101A3000406B002801D0804710BDE106C90E01208F
:101A400088400B49086010BD1320E9E71420E7E740
:101A50001520E5E71620E3E71720E1E7C013005063
:101A600000ED00E000E400E000E100E0A8800020DC
:101A700080E200E008430121890303460B43434908
:101A80000B80434B18430880092002434A8070476B
:101A90003E490A880F239B0100079A43800D0243A9
:101AA0000A80704739490020088070473748394913
:101AB000028802231A430280491E02D30288920739
:101AC000FAD400210181408970470AE000BF00BFBD
:101AD00000BF00BF00BF00BF00BF00BF00BF00BF0E
:101AE00000BF401EF2D2704770B502225102044678
:101AF0004E003046FFF7BEFF1420FFF7E6FF002C34
:101B000001D0092000E00720FFF7C2FFFFF7CEFF5A
:101B100005460120FFF7D9FF022200213046FFF7DA
:101B2000A9FF002C01D0092000E00720FFF7B0FF3B
:101B3000FFF7BCFF4019154A0021118070BDF0B5B8
:101B4000124C154820801420FFF7BFFF01256D02BD
:101B5000A580E5802088E9000843208020888E1039
:101B6000B0432080FFF7A2FF074620883043208043
:101B7000FFF79CFF0246780071424018281A520075
:101B80005118691AA080E180F0BD000000150050D6
:101B900001400000A08601000148000008B589212D
:101BA0000520000701810121614A49031180018854
:101BB00080221143018001888908890001805D48E5
:101BC000018A022211430182FFF7A8FA01F0DCFE2C
:101BD00001F0E0FE0020694601E00888401C088012
:101BE00008889128F9D308BD08B55349002008801A
:101BF0004880534A514BD380FF23D2331381C8808E
:101C0000C32151804F4A082111806946088003E0B2
:101C10006A461188491C1180694609889129F7D3C1
:101C20006946088003E06A461188491C11806946AC
:101C300009889129F7D3694601E00888401C08808B
:101C400008889128F9D308BD3F4A5080918001202F
:101C50001080D088C007FCD17047F1B5FFB0FFB04D
:101C600094B011AC33480494008AA41C1090FFF780
:101C700095FF314801880F9141880E913049CA88FB
:101C80000D920A890C92C2880B92408B0A902F48C1
:101C90004088099048888446FFF7A6FF00252B4618
:101CA000FF2111A8FFF7D0FF00210A460846049E35
:101CB000275C365C7E40F607F60F8E401643491CC3
:101CC000C9B2F2B2082906D1FFA9C96C4A556D1CE8
:101CD0000021ADB20A461030FF2680B2B600B042F5
:101CE000E5D95B1C9BB2022BDAD31249109808820B
:101CF00014490020088010480F9901800E994180F6
:101D00000F490D9ACA800C9A0A810B9AC2800A9ACE
:101D100042830E4A0998508060464880052000079B
:101D200001888022914301807FB07FB015B0F0BD63
:101D300000020040E030005000240050808000008D
:101D40006028005020200050003500500026005030
:101D500070B516460C46054601280FD106221749D4
:101D6000174801F01DFE002808D00622144930460D
:101D700001F0CEFD06202070002070BD32462146C5
:101D8000284601F013FE70BD70B50E480E49C4051B
:101D9000228880252A4322800C4A53891B0701D4BC
:101DA000401EFAD20A4A012010600622044801F0BF
:101DB000AFFD2088A843208070BD0000A83C030030
:101DC00069830020A0860100D47F04002000005019
:101DD00000800040F8B5594F0026786D0090FEF75E
:101DE00092FD574C002802D12079022801D1002011
:101DF0000090FEF727FF00280DD101F0DDFD00283F
:101E000009D0E0780126002805D005252D07A88AED
:101E1000C00701D004268EE001F0D8FC002838D19C
:101E20002079002801D1386D00904648806900284B
:101E300001D0786D0090A1786846009F01F0C2FD46
:101E4000002878D0A178684601F0D2FC002872D032
:101E500001F0BEFD00286ED0FF2000972D30012735
:101E6000BF07396A8142FCD3A178684601F0AAFD18
:101E700000280CD0A178684601F0BAFC002806D0F2
:101E8000314A832012780099022A03D003E001F03E
:101E9000A5FD50E0B5202D4A1378012B00D121304B
:101EA00000231370FB6B0F229B0A9B021343FB63FF
:101EB000FA6B274B80021A400243FA63F86B372211
:101EC000C002C00A92051043F8630426002901D01D
:101ED000091D009100986421C00201F085FD1D4993
:101EE000401E08602179002900D0012101F082FD07
:101EF0001948C06A80470024FEF7D1FE002808D0A8
:101F00002888302108432880288803210843288016
:101F10000124386B0004C00FFBD010480168C905CC
:101F2000FCD5002C01D0FFF7C1F801F069FD28892C
:101F30008021884328813046F8BD000060020020DF
:101F4000B2070800500708007803080079830020D2
:101F5000FF03E0FF70830020080808000002004033
:101F6000F8B50546B448B649047BB448C969006869
:101F700040300089884201D1002002E00002401C6C
:101F800080B2060A1AE0AC4800272038816A2E2069
:101F9000604308188078C0060AD001F037FD01467A
:101FA000A84AB000105864228256914200DA0127F4
:101FB000384601F09BFA641C6407640F28466D1EC6
:101FC000EDB20028DFD1F8BD70B50125AD07AC6BCF
:101FD0002046FEF724FE9C4901F006FD272212014F
:101FE000511A00D10121994A50601160286B0821D3
:101FF0008843084328639648046096480068002890
:1020000002D0A04200D200BE70BD10B5052000076E
:102010004189890708D041898908890041818E4911
:102020004A88520852004A80018980221143018166
:10203000018A042291430182818A8907FCD501F03B
:10204000EBFC012080070169490700D500BE01694A
:102050004907FCD510BDF8B5804EF08800282DD179
:102060000120F0807E490820088005273F077889F5
:10207000800720D0B88A400701D5FEF7EDFC764DE9
:102080002888802108432880764CFF206080042027
:102090002080FFF700F87D21C900E088A2880004B5
:1020A00080188842F9D905202080B0887880298856
:1020B0008020814329806C4910200860F8BD70B5EC
:1020C000FEF7F4FFFFF7A1FF0026644C0520E68031
:1020D0000007418A80229143418261480189490871
:1020E0004900018101F07AFC012080078169042206
:1020F0001143816101F096FC5B491020803101257C
:10210000086001F095FC01F099FC53482670408965
:10211000800510D5607800280DD15448657000887E
:10212000C00708D10120FFF7DFFC8B21890088421E
:1021300001D90220607070BD10B501F085FC00F07F
:1021400073F846490120087010BD10B501208007C2
:10215000008A000601D500F067F810BD10B53848B8
:10216000C06CC0B2FFF7FCFE01F074FC10BD10B5EE
:102170000124A407208A000729D53D4901200870C1
:102180002E484E2300682E4A403001891268594378
:10219000384BC918515AC07C090A081AC0B2FFF757
:1021A000DFFE01F05DFC206840004008610008434C
:1021B00020602068C00FFCD12448803001680906E7
:1021C000090E01D00121016024490420087010BDCE
:1021D00070B52948008885062848AD0E446818481F
:1021E000006F0078002802D1284601F03FFC244807
:1021F00000891A4EC00507D520060ED5E0070CD081
:10220000284601F039FC03E0200606D5E00704D09B
:1022100017490120486003203070200403D5E005F1
:1022200001D50220307070BD10B50C4901208870B6
:1022300001F028FC10BD00009C040800DC0408002C
:10224000E0010020B00408007102000040000040DE
:1022500074830020708300202000005078830020C9
:10226000003300500016005000E200E0001500505E
:10227000249000204A000800002000500002004086
:10228000002C005010B5428800791C46010208233A
:10229000FE480C3101F04EFB082101700121417014
:1022A00000218180C180448001F04AFB10BD10B53F
:1022B0000C460988002910D04288007906230102C3
:1022C000F2480C31401D01F035FB102101702188CE
:1022D00041806188818001F033FB10BD10B50C4650
:1022E0000988002910D04288007906230102E748B6
:1022F0000C31401D01F01EFB11210170218841802D
:102300006188818001F01CFB10BD10B54288007906
:102310000C460102DD480823401F0C3101F00AFB86
:1023200002460320107001205080801E9080022001
:1023300050709471210AD171104601F001FB10BD5B
:1023400010B5428800790C460102D0480823401F8E
:102350000C3101F0EFFA042101702188418061887D
:1023600081800221417000218171C17101F0E8FA80
:1023700010BD10B5428800790C460102C3480823FD
:10238000401F0C3101F0D6FA0521017021884180EF
:10239000618881800221417000218171C17101F049
:1023A000CFFA10BD70B50D4609886A796B888A1816
:1023B00001790024090240880C31521E5B1C9A42AC
:1023C00016DB0246B1480823401F01F0B3FA01466C
:1023D000072008706A88521C4A8028886A79821807
:1023E000521E8A80022048708C71CC71084607E02A
:1023F0000A46014603200223000301F09BFA4470C1
:1024000001F09EFA70BDFFB50E46194642881D4682
:102410000A3100798BB201029C4881B0801C0C31DA
:102420000A9F01F087FA00218180018107704680B0
:102430000446C5800120607020462A460A30039970
:1024400001F066FA204601F07BFA05B0F0BD1CB53C
:102450006B461A71120A5A710C220092022301AAC9
:10246000FFF7D1FF1CBD70B50546002003460EE006
:1024700006245C430E5B002E0ED09E00B618641836
:10248000F6782479A64300D085205B1CDBB2AB42F2
:1024900001D20028ECD070BD9C00A418A478FF2CB9
:1024A000F3D18320F1E7F0B505460020044611E0A2
:1024B00066008E5B002E0BD1A600B618B778FF2FF2
:1024C00006D1F67806277E439E5B002E00D083203F
:1024D000641CE4B2AC4201D20028E9D0F0BDFFB5E3
:1024E00081B015460F4600240A9E26E00498A100FC
:1024F000425A7179B01D01F0CBFA00281BD020465A
:102500000622318850432952728841194A80327913
:102510000A712B5C019AD21A521C4A710B990978E4
:10252000A14206D006225143285C6A5C801A4919F0
:1025300048710B980470641CE4B2BC42D6D384E7A3
:10254000FFB581B01D4616460746002416E0A000E0
:102550008119CA780A998A420ED1325AA978E81CA0
:1025600001F096FA002807D002996000095A002964
:1025700002D102992A880A52641CE4B2BC42E6D312
:1025800063E7F8B500240546002815D04048C06927
:10259000884211D9286800280ED08F00C659002E15
:1025A0000AD0002A01D030469047304601F076FA32
:1025B00029680020C85100E081242046F8BD70B58C
:1025C0008124054600281DD0314EF069884219D972
:1025D0002868002816D02846FFF7D3FF040011D141
:1025E0000146F26904E08B002868491CC058C9B252
:1025F0008A4202D90028F6D004E0002802D12846F9
:1026000000F0FBF8204670BD02460020002A02D0F0
:10261000080A800010587047FFB581B007461E4673
:102620000D46039801F032F9B0421CD03868039986
:10263000FFF7EAFF040016D06288218804232846A9
:1026400001F078F905460A98288060880B9A010AFB
:102650003846FFF7B4FFA870284601F071F93146FB
:10266000039801F037F9F0E6F8B50C7915460E46F7
:102670000746FF2C21D07088010AA1420ED021020A
:10268000C0B201433288284604E000000730000051
:10269000E001002001F008FA8C250FE01A462146DF
:1026A000384600F0B4F8050008D13868A100405859
:1026B0000622314601F02CF900E089252846F8BDB4
:1026C000FFB507460068684D81B00E4600280ED061
:1026D000002406E0214638460A9AFFF752FF641CA0
:1026E000E4B2E869A042F5D8384600F086F8F0B2C6
:1026F000049901F0DFF9002406E020023043039939
:1027000001F0E8F8641CE4B2E869A042F5D89CE660
:10271000FFB581B01F4615460C4608460A9E01F0DB
:10272000B5F8A84208D13946204601F0D3F8210A6D
:1027300032460198FFF743FF87E6FFB581B00746B1
:10274000039800251E460C46002800D1B5887A88DB
:102750002846083083B23988204601F0EBF8044659
:10276000387901F0ADF920800398A07100206080D5
:10277000A580002E06D0308860802A46B11DE01D5D
:1027800001F0C6F8204601F0DBF85EE60A88027028
:10279000120A42708A788270CA78C2700A7902710D
:1027A0004A794271897981710720704742780378AC
:1027B00012021A430A8082788A70C278CA7002793B
:1027C0000A7142794A71807988710720704710B583
:1027D00000F04CF810BDF8B5040206463634174632
:1027E0000D46204601F052F8002805D0EAB22346F3
:1027F0003946304601F06AF9F8BD10B50446006864
:10280000002803D001F04AF90020206010BDF7B580
:10281000054600680024144E0F4600280BD1F069CD
:102820000121800001F058F9286000280BD0F169DF
:10283000890001F057F9F069B84212D92868BF0041
:10284000C059002801D089240CE00121029801F030
:1028500043F90600F7D0029901F04AF92868C651F9
:1028600000E081242046FEBDE001002008B50020E4
:1028700002460090234B36212348FFF721FF08BD75
:10288000F8B516460C4607464A8809884A231F4869
:1028900001F050F80546207901F012F92880AE7059
:1028A000002E0BD0002000900346618802221648BB
:1028B000FFF72EFF284601F043F8F8BD39461231E4
:1028C00046220E46281D01F023F831463846FFF710
:1028D000EEFC6088012100F0FDFFEBE770B50E46CD
:1028E00004464288018809480423093001F022F88F
:1028F0000546207901F0E4F82880AE70284601F002
:102900001FF870BD303D00208083002001D80000FA
:102910007CB51C4616460D46088801F0EFF80146C6
:10292000684601714680048058232A4669469C48BF
:10293000FFF79AFE02468C2804D0002A04D069468C
:10294000002017E001207CBD954831460068FFF764
:102950005BFE00218181C18104460174A8780028B2
:102960000BD020464622291D123000F0D1FF002254
:1029700069462046FFF784FF09E08A49E18021810A
:102980002046FFF7C2FC0221304600F0A3FF0020E2
:102990007CBD10B582480C4611460068FFF734FE36
:1029A000C188804A914206D1218841826188818212
:1029B000C17A491CC172002010BD1CB578480C4674
:1029C00011460068FFF720FE0189764A91420BD13B
:1029D00001460A3100940191848A0246724B1632F4
:1029E0000B212046FFF77BFD00201CBD70B514466F
:1029F0000D46104600F04AFF064669482146006829
:102A0000FFF702FE0446022E02D0012E2ED03FE038
:102A100068780A2801D000283AD12189614881428A
:102A200036D1E188614D814210D1608A002804D0FE
:102A3000E07A012803D9842213E0832211E02146A1
:102A400012312046FFF795FCE58021E0A9421FD115
:102A50002146554A16310B20FFF705FD020000D133
:102A6000E07221460846FFF70BFF11E0287808289E
:102A700006D00C280CD169782046FFF72FFF07E01D
:102A80006A78002A04D0002349492046FFF755FE02
:102A9000002070BD1CB50888454900230090491EE0
:102AA00001933F48FFF7B8FD00201CBD10B53C481E
:102AB00011460068FFF7A8FD038B828A418AFFF761
:102AC000E1FB002010BD08B5354811460068FFF74E
:102AD0009BFD012181810C2100910246018B022383
:102AE0000C32FFF790FC002008BD08B52C481146B9
:102AF0000068FFF789FD00218181C18101740C21EB
:102B000000910246018B02230C32FFF77CFC00206F
:102B100008BDFFB5224881B00E461D4603990068E6
:102B2000FFF772FD04460079290A814235D1002061
:102B300007460090E089062250430019B188C08BF7
:102B4000814219D101200090194821881823801F43
:102B5000039A00F0EFFE0546207900F0B1FF2880CF
:102B6000207CA870B078E8707288B11D281D00F034
:102B7000CFFE284600F0E4FE207C401C2074E08953
:102B8000401C80B2E0810A2801D30020E0817F1C34
:102B90000A2F02DA00980028CCD0002005B0F0BD42
:102BA00080830020A0FF0000403D0020032800009B
:102BB00009D8000038B50124684604700C21494842
:102BC00000F096FF474D6946EC702A1D352000F055
:102BD0009BFF002800D02C7100F016FA42493220E9
:102BE00000F068FF0021322000F074FE00F0B2F81F
:102BF00038BD10B500F0C5FA10BD10B53948022334
:102C000080783222010239480E3100F093FE012112
:102C100001701321417000F093FE10BD10B5044601
:102C200030482C2380783222010230480E31801E39
:102C300000F080FE014620300472002242720846F5
:102C400000F07EFE10BD10B5502332220D21284821
:102C500000F070FE044600F00DFA204600F070FE11
:102C60000221322000F036FE10BD214810B50123AC
:102C700032220D210B3800F05DFE0221017000F0C0
:102C80005FFE10BD10B500F088FA10BD194B10B5ED
:102C90009A4201D91A4602E0002A00D1012200F02E
:102CA00039FF10BDF8B50646114815460F462523D5
:102CB00032220D21C01C00F03DFE04460120207789
:102CC0002046062239461D3000F022FE23200655FC
:102CD00065822582204600F08EFA204600F030FE04
:102CE000F8BD00008C830020D43D00200438000093
:102CF0000E3400003075000010B500F011FF2549BA
:102D000000F014FF2448081810BDF8B5234D0646FE
:102D1000A876002400F004FF2919641CE4B20874AA
:102D2000082CF7D300241027381BB04201DD002007
:102D300007E000F0F5FEC117090E0918090A09029B
:102D4000401A2855641CE4B2102CEDD300F0E8FEC4
:102D50002883F8BD10B52421104800F0C9FE00F00A
:102D600054F910BD10B50E480223807832220102BA
:102D70000C480E3100F0DEFD0D21017007492031B5
:102D80008978417000F0DCFD0321322000F0A2FDC3
:102D900010BD0000A0BB0D00A0860100988300209C
:102DA0008C8300201A38000010B5084609781C46AC
:102DB0000B0000F071FD080520202008181B1E20C4
:102DC00000F05AFA17E04178012904D0002902D016
:102DD000022903D00FE000F050FA0CE01146204623
:102DE00000F054FA07E000F049FA04E000F047FA76
:102DF00001E000F045FA002010BD10B50878304C15
:102E0000801E030000F048FD020214188878A070AC
:102E1000C0070AD02B492A4A4879203AD076284858
:102E20000622001F891D00F073FD00F02AFA03E05E
:102E3000FFF7E3FE0020A070002010BDF8B5184693
:102E40000D4601461223204800F074FD0446284632
:102E500000F018FA0027002821D0194EB078C007DA
:102E60001DD030460822A91C103800F099FD00281A
:102E700015D130462038018B2A8891420FD101218B
:102E80002170807E6074314610222039601C00F071
:102E90003FFDB078FFF7C2FE00F0F7F900E02770C1
:102EA000204600F04DFD2078002801D1FFF7A5FE57
:102EB0000020F8BD10B500F0E7F9002010BD0000BB
:102EC000B88300208C8300201838000010B510460D
:102ED00000F0DCFC002809D1012332220D214848F2
:102EE00000F028FD0121017000F02AFD002010BD36
:102EF00070B5087815460F282DD008DC01280DD0B4
:102F0000022834D003281CD00E2830D11FE010280E
:102F100025D0112823D0122829D123E04878002871
:102F200025D13748222332220D21801C00F002FDDA
:102F300004460146284600F031F9204600F000FD25
:102F400015E04878002812D100F033F90FE04878F6
:102F500000F040F90BE0487800F03DF907E000F0A0
:102F60003FF904E04878442801D100F072F90020CC
:102F700070BD70B51C4610460D4600F087FC022857
:102F800005D12049200A8870284600F03FF800202B
:102F900070BD70B5087815460C460A2810D1104649
:102FA00000F074FC04280BD16078002802D000F0F7
:102FB0000FF905E00521284600F08CFC00F009F926
:102FC000002070BD10B5104600F0BEF8002010BD06
:102FD00010B510460C4600F059FC012808D12078A5
:102FE000002805D1FFF705FE002801D000F0F4F815
:102FF000002010BD10B5084600F016F9002010BDE5
:10300000023400008C8300207047704770B504467E
:10301000FE488078FF282AD03221FD4800F08CFD40
:103020000521322000F056FCF948092332223F21C5
:10303000401F00F07FFC0546012028702078A87012
:10304000607A6870214606220A31E81C00F060FCB4
:10305000284600F075FC608800F02CFA00F03CFA7D
:1030600000F0FEF9EB488078FFF7D8FD70BDFFF760
:10307000EAFD70BDF0B5044693B00E202070002527
:103080006570E548A081E08107202074012060740C
:103090001C20E074274622461F2020371432387443
:1030A0001646511E0B2000F02FFD002805D02A46A1
:1030B000E574DAA1304600F02BFC22463132511E75
:1030C0000C20119200F020FD002805D03D742A4606
:1030D000D4A1119800F01CFCE07C1A21081A45B21A
:1030E000002D2FDD3E206946087001AA022000F065
:1030F0000BFD002806D00D2268460270CAA101A867
:1031000000F020FD6846007800281BD0A84200D2BD
:10311000054668460570E07C6D1C8555E27C2046BE
:10312000092115301154E17C401C0B1868460278C7
:1031300001A9184600F0ECFB68460078E17C801C91
:103140000818E07413B0F0BD10B50C4600F09EFBFB
:10315000032803D0052801D0042811D102213220F0
:1031600000F0B8FBB44900200870A94809233222B6
:103170003F21C01E00F0DEFB2178817000F0E0FBF3
:1031800010BD0020AD4A01211170A04AD378002B58
:1031900001D001207047D17070477047032008703C
:1031A0000520487000204882087548751720C8829D
:1031B000704710B50221322000F08CFB94480423A4
:1031C00032223F210A3800F0B5FB00F0B9FB10BDF8
:1031D000704770477047704710B5FFF734FD10BD5A
:1031E0008B4810B5002332223F21C01F00F0A2FB04
:1031F00000F0A6FB10BD10B5202101834183002102
:1032000081824170FF21F531C182FF2181318181AD
:10321000FF216131C18112210170AF229200322160
:103220007B48FFF733FD10BD70B50446784807238F
:1032300032223F21083800F07DFB05466078287077
:103240000622A11C681C00F063FB284600F078FBF6
:1032500070BD6F4810B5092332223F21401F00F096
:1032600069FB0446002020700821601C00F040FC2F
:10327000204600F065FB10BD7047704770477047EF
:10328000704770470120704770477047704710B50E
:10329000142332220D216A4800F04CFB00210174F6
:1032A000112202704170012181740A21818105215E
:1032B000C18100F045FB10BD614810B501233222E9
:1032C0000D210C3800F036FB0221017000F038FBB4
:1032D000002010BD10B518460C4601464C4801238D
:1032E00032220B3800F026FB2178491C017000F0D7
:1032F00027FB002010BD10B5FFF7C9FF002010BD4F
:1033000010B50A890878491CFFF7CCFC002010BDD5
:1033100010B5087800F0F2FB01020223322249487E
:103320000E3100F007FB012101701321417000F004
:1033300007FB002010BD70B50024404D26460C351B
:10334000142060434019068022461221801C00F0A0
:10335000FFFB641C202CF3DB3B4838490088886065
:1033600070BD10B54878344C012801D0002005E02C
:103370002078012801D0FFF7DEFF01202070002017
:1033800010BD10B5322000F081FA052814D1204874
:103390000E2332223F21401E00F0CCFA04460020CA
:1033A00020701A480C22007860702849A01C00F098
:1033B000AFFA204600F0C4FA10BD0188491C018014
:1033C0007047F8B51C481D4C0078012846D1204FA5
:1033D000204D26460C36009560681421484380191C
:1033E0005223A26800F0CBF8002837DB6068401C4D
:1033F0006060202801DB00206060A068001DA060E4
:1034000039888842E7DD1048008825E08C83002059
:103410000DC80000B88300204C0400000701031809
:103420000000000002FF00004441313435383020F4
:1034300054454D504C000000BD830020BC8000204E
:103440000F340000043800002C900020D69100209A
:103450002E900020BB330020A060BCE7F8BD000028
:1034600010B536214A233222880200F063FA04495B
:10347000098801800021817000F062FA10BD00000F
:103480008C83002010B588780C46002801D0FFF707
:10349000B4FB218A064840340180E1884180002045
:1034A00010BD10B5C87800F028F8002010BD00004D
:1034B0002C9000201121821F0C2A05D2A34A410022
:1034C0008A18403A3421515EA14A508088B2108057
:1034D000411C083A1160704710B512219D4800F058
:1034E00007FB9D489B498088888110BD002803D038
:1034F00098494889401C488170479649CA88521C9F
:10350000CA800A8910180881704770B5914CE0890B
:10351000401CE081E0898E494D88FF21684391314C
:1035200088421FDB12222146881800F0F1F912218F
:10353000204600F0DDFA214612318889A081A08959
:10354000C889122268430880A089101A4A88121A72
:103550004A808B88142242439B1A8B806080A28011
:103560000120087470BD10B5FF2191317B4800F037
:10357000B9FA7A480021001F4170017010BDF0B502
:10358000764D964602462D1F68782E1D07018C4603
:10359000BC19E17B002902D00020C043F0BD01210D
:1035A000E173F2516146A17371466160A38105998F
:1035B000A160411CC9B269701929EFD3002169705B
:1035C000F0BD192802D30020C043704763490001B1
:1035D0004018C07B704770B5044661482C23807842
:1035E0003222010205208002491D00F0A3F90500E6
:1035F00019D00420A880207BA871A0882881A27BF4
:103600006A8128460C30216800F082F9284600F0D3
:1036100097F9A07B00F0B2FA0020E073A268002ABC
:1036200001D003CC904770BDF8B54C4C0146241F27
:103630002078251D00014019C07B002700281CD0E0
:1036400045488088012818DD461A14E020780001DA
:103650004019FFF7C0FF2078761E401CC0B27F1CC7
:103660002070192801D3002020700006000D401999
:10367000C07B002801D0002EE8DC3846F8BD70B5CC
:10368000354933488C8812210B1B3449304A091FB5
:1036900008388D78083A40681268002D01D0A01AC9
:1036A000401C012800DA0120934201DD012200E0E4
:1036B00000228A70C0B2FFF7B7FF264A211A918113
:1036C00070BD70B52449244A8C88214912260839D6
:1036D000096892880020331B1E4D92B28B4209DA92
:1036E000112C04DA1D4B1B1F9B78012B02D0701A82
:1036F00002D004E0AA8170BD122900D00120C0B21E
:10370000FFF792FF211AA98170BDF8B5154C00276B
:103710002078154E3D46012803D03168012909D093
:1037200012E0FFF7CEFF0746022035602070FFF75A
:10373000ECFE09E0022807D1FFF7A1FF074635603C
:103740002078022800D125703846F8BD843E00203C
:10375000D83E0020C4910020B80608003490002014
:103760008C8300202490002028900020064C012506
:10377000064E05E0E36807CC2B430C3C9847103419
:10378000B442F7D3FCF768FE9C3E0020CC3E0020FC
:1037900003B40148019001BD9D1B020003B4014820
:1037A000019001BDDF29030003B40148019001BD70
:1037B0006F39030003B40148019001BD032B0300DE
:1037C00003B40148019001BD218D020003B40148FA
:1037D000019001BDF92B030003B40148019001BD24
:1037E000BD1E030003B40148019001BD012C03007C
:1037F00003B40148019001BD7F65020003B4014894
:10380000019001BD1B30030003B40148019001BDCC
:103810006B30030003B40148019001BD8F1F03000A
:1038200003B40148019001BD7B1B020003B40148B1
:10383000019001BDA17D020003B40148019001BDCA
:10384000672D030003B40148019001BDB18C020053
:1038500003B40148019001BDAB8C020003B40148E0
:10386000019001BDDF89020003B40148019001BD50
:10387000598C020003B40148019001BD7B64020031
:1038800003B40148019001BD8D64020003B40148F6
:10389000019001BDAD24030003B40148019001BDB6
:1038A0006F3C030003B40148019001BD437A02005C
:1038B00003B40148019001BD151D020003B4014885
:1038C000019001BD431D020003B40148019001BDF8
:1038D000238E020003B40148019001BD2924030096
:1038E00003B40148019001BD3DA4020003B40148A6
:1038F000019001BD0FB0020003B40148019001BD69
:10390000A3A2020003B40148019001BDFBA2020082
:1039100003B40148019001BD8139030003B401489B
:10392000019001BD99A2020003B40148019001BDBC
:103930006B96020003B40148019001BD7D21030094
:1039400003B40148019001BDAD21030003B4014857
:10395000019001BDEF61020003B40148019001BD77
:103960005350020003B40148019001BD2D500200E4
:1039700003B40148019001BD31D2020003B40148F3
:10398000019001BDF13B030003B40148019001BD6A
:103990000B8C020003B40148019001BD398B020079
:1039A00003B40148019001BDD939030003B40148B3
:1039B000019001BDE727030003B40148019001BD58
:1039C0002D1E030003B40148019001BD2D27030003
:1039D00003B40148019001BDF18D020003B4014818
:1039E000019001BD0B91020003B40148019001BD9B
:1039F0000739030003B40148019001BD1B650200B3
:103A000003B40148019001BD452A030003B40148F5
:103A1000019001BD3D72020003B40148019001BD57
:103A20009D2A030003B40148019001BD132D03003A
:103A300003B40148019001BDED1B020003B401482D
:103A4000019001BDFB2A030003B40148019001BDB0
:103A5000452F030003B40148019001BD6F620200CD
:103A600003B40148019001BD5F62020003B4014844
:103A7000019001BD198A020003B40148019001BD03
:103A8000E78C020003B40148019001BD4F620200BF
:103A900003B40148019001BD3195020003B401480F
:103AA000019001BD8F20030003B40148019001BDC6
:103AB000E721030003B40148019001BD6B2303001B
:103AC00003B40148019001BD8BE1020003B4014839
:103AD000019001BD3DE1020003B40148019001BD28
:103AE000CD1F030003B40148019001BDB3390300A9
:103AF00003B40148019001BDB339030003B4014888
:103B0000019001BD5FE1020003B40148019001BDD5
:103B1000E127030003B40148019001BD1F26030003
:103B200003B40148019001BD5D39030003B40148AD
:103B3000019001BD3339030003B40148019001BD78
:103B4000B126030003B40148019001BD813903008F
:103B500003B40148019001BDA539030002E008C883
:103B6000121F08C1002AFAD170477047002001E0F7
:103B700001C1121F002AFBD17047000003494A8887
:103B8000521C4A808A88101888807047C49100208F
:103B90000101000A04280A040203AA0055032A00AE
:103BA000A001FFFF2C0100000A0000007D7202004E
:103BB0000B000000937702000C000000F376020077
:103BC0000D000000997202000E000000CB7202008E
:103BD0000F0000001B77020010000000F5720200C9
:103BE0001200000037730200110000007D73020014
:103BF00013000000A773020014000000D17302003C
:103C00001500000003760200160000003576020061
:103C10001B000000177402004D0000008F760200A8
:103C200017000000497702001800000033750200F9
:103C300019000000777502001A000000BD7502002F
:103C40001C000000B57702001D000000D5770200BF
:103C50001E0000006B7702001F000000937402003A
:103C600020000000E3740200210000001B78020025
:103C7000490000005978020000080000250D0020CE
:103C80000100000065780200090000007D78020054
:103C900005000000A778020006000000D1780200AD
:103CA000020000003579020007000000F9780200E8
:103CB0000000000023790200030000009579020053
:103CC00004000000B779020008000000217A020019
:103CD0004C000000A97B0200A83B00202600000049
:103CE000950E0020210F0020C4410300D83C002085
:103CF000AC0508000600010000000000203D002087
:103D00002006080002000100FFFF0000C30D002094
:103D100002FC0000958F020003FC0000A18F02004E
:103D2000083D002003000000FF003F00FF03FF01EB
:103D3000B43D0020CC3D0020848300200300080017
:103D4000A1FFFF06A2FFFF16A3FFFF16A4FFFF16A9
:103D5000A5FFFF16A6FFFF16A7FFFF16A8FFFF1679
:103D6000A9FFFF16AAFFFF16ABFFFF1602D800003F
:103D7000AD2A002004D80000C72A002006D8000081
:103D8000EB2A00200B300000132B00200330000032
:103D90009329002005300000BB29002000300000DE
:103DA000ED29002000D80000112900200338000070
:103DB000952A002000000000000000006C3D00205B
:103DC000040000008C3D002003000000A43D002002
:103DD00002000000000000007C3E0020BC830020A8
:103DE0000600010001340000CD2E00200034000048
:103DF000F12E002000380000932F00200138000031
:103E0000732F002003380000C52F002000C80000D9
:103E1000D12F002010340000F52F002013380000AF
:103E2000A92D002015380000FB2D002017380000B8
:103E30003D2E002019380000B52E002001C80000DA
:103E4000D532002004C80000F732002007C8000067
:103E50000133002009C80000113300200BC8000006
:103E6000633300200DC80000B932002001D80000E3
:103E70008534002003D80000A3340020E43D002056
:103E8000130000000700080009000A000A000C00E7
:103E90000D000D000F000F0010001100DC3E00208F
:103EA00000800020C00300006C3B0020DC3E0020AE
:103EB00020900020C80100006C3B00200809080089
:103EC000D0280800300700006C3B0020800C000068
:0C3ED000080000000100000007000600D0
:040000052000045182
:00000001FF
