:020000042000DA
:1000000000980020A5040020AD040020C5040020B5
:1000100000000000000000000000000000000000E0
:10002000000000000000000000000000DD040020CF
:100030000000000000000000F5040020F70400208C
:10004000C3260020B72700200D310300A52700207C
:100050002B2700208D310300C9270020DB2700203B
:10006000F9040020F90400203D280020AD310300F0
:1000700057810200F9040020F9040020F90400204F
:10008000F9040020F9040020F904002005190020DB
:10009000091900200D190020111900201519002040
:020000042000DA
:10016000320000008B050020BF1000203B2E002035
:10017000000000000000000063800200BD8002005B
:10018000090C0020FB800200198102003581020069
:100190005D8102003526002071050020F50B00204E
:1001A000FF0B002000000000000000003F000000E6
:1001B000F48B002000040000740B080048010000CC
:1001C0006807080000040000C80C080020050000B3
:1001D000000000002000000048000000580000005F
:1001E0006800000004010000160100002801000062
:1001F0002E010000202A00008E2E000001000000C9
:100200008813000049110020E9600200FD930200FC
:100210009F1C002019280300A5740200BD230020A4
:1002200003000000D5200200432E0020040000003F
:10023000D74902000F490200831D020063910200AA
:10024000B7910200BF910200078202007182020092
:1002500064430020AD8302009384020041850200C4
:1002600015860200378602005F860200758602004E
:10027000F9870200258902005D8A0200D38C020002
:10028000098D02000F900200438D0200278E0200AC
:10029000F98E0200478F02007B0B0020D58F0200F1
:1002A00049510200775102002F5202001000000055
:1002B00020030000803E000000000000000000005D
:020000042000DA
:1002C000504600030003983A6400F401B80B000C98
:1002D000B80B120030003000CD009A01120024004B
:1002E00030006400B0001800280012001200D0078F
:1002F0000000FFFF00000000000000000000000000
:100300001F000002444131343538302D30310000B7
:1003100000000000000000000000000000000000DD
:0403200000000000D9
:020000042000DA
:10034000FFFF010000C201000000000000000000EB
:100350000000F4010100011B0A071AFFD200021578
:10036000585CDE931B0142CC9A1325009BEDC65EC0
:1003700000010002C5000000000009FF00605257A4
:100380002D424C450000000000000000000000006D
:100390000000000000000000000044413134353806
:1003A00078000000000000000000000000000000D5
:1003B000000000000000000000000000000000003D
:1003C000000000000000000000000000000000002D
:1003D0000000000000000000010000CAEA80D00711
:0403E000064064323D
:020000042000DA
:100440000348854603F0C8FC00480047C720020067
:10045000009800200F4906200880FF200E49013037
:1004600008600E4988683E2290432E308860002242
:10047000052000070280018A0F231B021943018215
:1004800001210748C90404C1401E0028FBDA62B6F6
:10049000704700000034005080E100E0003300505D
:1004A000FF0B00001548804715480047042071469F
:1004B000084203D0EFF3098012490847EFF30880A0
:1004C0001049084704207146084203D0EFF3098021
:1004D0000D490847EFF308800B490847042071468F
:1004E000084203D0EFF3098008490847EFF308807A
:1004F00006490847FEE7FEE7FEE700005504002036
:10050000410400203509002011050020670E00205D
:1005100005221207518A8023194351821249036828
:100520000B6043684B6083688B60C368CB60036972
:100530000B6143694B6183698B61C369CB6108625D
:100540000A48836A4B62C36A8B62036BCB62C36BDC
:100550000B63436B4B63806B8863908A800601D585
:1005600000BE7047FEE700000018080000ED00E044
:1005700010B59B490020086000F0FAFA01208007BE
:10058000016B49004908016310BD1CB59549012064
:10059000087095490820088003F030FC00F07AFECE
:1005A000FF2401340D202146800103F02DFC01F0D1
:1005B00021FF00F041FA8D48017801708C480178E4
:1005C0000170012003F026FC00F0DCFC00F060FA72
:1005D000042000F0FEF8072000F0FBF80A2000F0ED
:1005E000F8F8062000F0F5F80B2000F0F2F80120F2
:1005F00000F0EFF8022000F0ECF8002000F0E9F83D
:100600007C48006803F00CFC00F0D9FB00F00BFC08
:1006100001F0EEFCA00501682143016000F017FB2A
:1006200000F000F902F0FCFDFFF7A2FF0025052411
:100630002407E58270484188E0229143A03141803F
:10064000012003F0F3FB03F0C4FA0426208900061E
:1006500019D501208007006B000414D403F0ECFBD3
:10066000C00710D1042003F0EDFB074603F0F0FBB8
:10067000002F08D0042101A8019503F0EFFB00280A
:1006800001D000F088FA03F0D2F95C4F387C0028E2
:1006900002D003F0ACF93D7403F06DFB0028D5D116
:1006A00072B601F0CDFE69460870042806D0022813
:1006B0000AD0032808D001287ED088E0504800786E
:1006C00001280CD003200870208A304320824D4836
:1006D000C0690128087813D9032802D049E0022014
:1006E000F1E703F0C1FB002843D003F0C3FB00286F
:1006F0003FD0032003F0C4FB00283AD0022006E0DC
:10070000032836D103F0BCFB002832D001203E493B
:1007100008703E48016931430161618A202291439A
:100720006182218A02221143218269460A78618A04
:10073000022A21D0314361827F21238889018027C9
:100740003B43238000235B1CDBB20A2BFBD3638A71
:1007500010273B4363822E4B491E59612188802319
:10076000994321802B49022A0D700CD0032A0AD00C
:1007700027E002206946CBE731436182618A10237A
:1007800099436182EEE71C494A88FF2301339A436B
:100790004A806288204B1A804A8801231A434A8083
:1007A00001950199491C01911429FADB6189890895
:1007B0008900491C618100E008E061894906FAD599
:1007C000658030BF0169B143016100E030BF62B6AE
:1007D0003CE7C106C90E01208840104908607047F7
:1007E0008C030800488300200033005000000800FC
:1007F000202A08000490002020000050D291002000
:1008000054020800E0010020C406080000ED00E0EA
:10081000008000407E8300208083002080E200E092
:10082000704700003E480178002902D080214170C5
:1008300070473C49002008703B49C87070473848F1
:100840000178002902D0812141707047354901208B
:1008500008703549C870704731480178002902D0C6
:100860008221417070472F49022008702E490120D3
:10087000C87070472A488178002904D0491E0906AB
:10088000090E817017D142780021002A04D0920706
:10089000920F0270417004E00278002A01D0521ECB
:1008A00002701206120E017005D0012A02D0022A2F
:1008B00001D1D1E7C3E7704710B5194CA078401CAF
:1008C000A0702078002805D103F0E0FA421CFFF761
:1008D000A9FF227010BD12490120C870704710494D
:1008E0000020C87070470E48C07870470020EFF3B2
:1008F0001081012282F31088052212071289120644
:1009000005D40A48028901231A43028118460029A6
:1009100000D0012181F310887047054800787047A6
:100920004983002054020800C60608000033005026
:100930007C83002005221207118A042319431182A7
:10094000118A02231943118211894023194311810D
:10095000184B01211960184B08211980518A8023F6
:1009600019435182154903680B6143684B618368E1
:100970008B61C368CB6103690B6243694B62836916
:100980008B62C369CB6208630D48836A4B63C36A99
:100990008B63036BCB63C36B084940310B60436BC4
:1009A0004B60806B8860908A800601D500BE7047DE
:1009B000FEE7000080E200E000330050401808002D
:1009C00000ED00E070B52D4B00261869F6430028B5
:1009D00001D0304600E00120C117020F0901114388
:1009E00002011861264804684568224329430260D1
:1009F00041605969002900D10126F117F20E490121
:100A00005E61114304687201436822431943026026
:100A1000416070BD38B50024032202231202042174
:100A20002046009400F0D9FC002201230521104645
:100A3000009400F0D2FC38BD10B505242407208AAC
:100A4000022188432082A08A0007FCD50D484188F6
:100A5000FF22013211434180A08880210843A080F9
:100A60000321092003F018FA00F009FAFFF7D2FF7A
:100A7000608A20210843608210BD000008800020A9
:100A80000080002020000050A149002048607047ED
:100A900070B5052000070189302291430181018949
:100AA000802211430181018989088900491C018143
:100AB000018908231943018196490C8814430C804D
:100AC000448A9C4344820589402425430581058A44
:100AD0000426B5430582858AAD07FCD58C4E0025DA
:100AE00075600D88012635430D804D89AE058A4D10
:100AF0000E8801D52E4300E0AE430E800D88782687
:100B0000B54328350D800D88062635430D80458A6E
:100B10001D4345820B8893430B800289A2430281C7
:100B20004889800503D57B490520603188800120F4
:100B300080070168821591430160784801683F226F
:100B40005202914342148918016001680203114363
:100B5000016070BD03217248090281810822428030
:100B60000021491C9629FCD382807047704770474A
:100B700010B56C4803F096F910BD70B5654C6088EF
:100B8000C006050F03F094F961881E2291436A00A4
:100B90001143618070BD10B563490120C863C86B03
:100BA0000028FCD101208007C16960480268914299
:100BB00001D20022026019238A1ADB019A4212D361
:100BC000016003F07BF95A4A1188884201D9411A21
:100BD00000E0091A89B2182905D31080012003F01A
:100BE00073F903F077F910BD08B5009808BD08B592
:100BF000009808BD08B503F073F9009008BD08B56A
:100C000003F074F9009008BD08B54A4901204A690B
:100C10005206D20F13D04A699206D20F0FD000228B
:100C20000A610092FF225F32009B5B1C009393429B
:100C3000FAD34969C907C90F02D003F05DF9002052
:100C400008BD40183721C0000901401870471FB582
:100C5000684600F060FF009803F0DCF81FBD10B597
:100C6000354A0020117800290DD02F490120C86392
:100C7000C86B0028FCD101208007C0692F49096892
:100C8000884201D2012010BD0020107003F0FEF850
:100C9000022803D003F0FAF801280BD128490820D4
:100CA000088005200007818A8906FCD4418A8022B9
:100CB00091434182002010BD0020704708B51549BE
:100CC0004A8801231A434A8000210091491C00915F
:100CD0001429FBDB052109074A8992089200521C5E
:100CE0004A814A895206FCD54B89042213434B8121
:100CF0004880488990434881888A0006FCD5488905
:100D000080088000488148890006FCD508BD0000A5
:100D1000508300202000005000100000000200401E
:100D200020300050E2040000C00000407C040800B5
:100D3000780408000010005048830020C0480020BC
:100D400000330050FFB581B01F460E464D780C7839
:100D5000002003F0D7F8042824D000281DD121E07A
:100D60005F48816E2E206043091888880207120FA1
:100D7000130003F0CDF8070505050F050F050F005B
:100D80008204920E062A05D27278012A12D0072216
:100D900010438880641C6407640F28466D1EEDB202
:100DA0000028DDD13B463146039A019803F0B6F89E
:100DB00005B0F0BD204603F0B7F80020F8E770B5A5
:100DC00048480378021D0021474D07E0CC00165D1E
:100DD000002E01D12418A560491CC9B29942F5D34F
:100DE00070BD70B505460C46103C3F2003F08AF8F4
:100DF00000280FD03D488068322806D93C498D42F2
:100E000001D03C2801D9002070BD2146374803F0AD
:100E100091F806E0204603F093F801213F2003F00B
:100E200095F8012070BD10B52E490B780A1D0020E1
:100E300005E0C400145D3F2C04D0401CC0B29842B1
:100E4000F7D310BD284AC00010324018826010BD90
:100E5000028908892749101A80B2884201D90120E5
:100E600070470020704781692039897F082905D2A1
:100E70001D4A89002032515881617047FEE71F48A2
:100E80001D4901611E4941611E4981611E49C161BF
:100E90001E4901621E4941621E4981621E49C162AA
:100EA0001E4901631E4941631E4981631E49C16396
:100EB0001C4912485C31403001601C4941601C49AA
:100EC00081601C49C16001201B49C00608601B49A4
:100ED000CA691202120ACA6117498039086070474C
:100EE000D802080004060800B4440020800408006A
:100EF0001034000030750000942703000084004087
:100F000062B600DF28A30200704701DF1CCA02009E
:100F1000F8BD02DF40CB0200F5E703DF84D4020016
:100F200004DF89B0BC330200F8BD05DFF8BD06DF81
:100F3000EC0C030070BD07DF80E100E000ED00E095
:100F40000F4A518807235B029943400201435180B5
:100F50007047052000070188302211430180018875
:100F600003221143018070470520000701883022C9
:100F70009143018001888908890001807047000041
:100F80008000005030B5974A9749D00504888023E7
:100F90001C430480954C65892D0701D4521EFAD25A
:100FA000934C01222260934C0A882280924A4988FD
:100FB000118001889943018030BD0020704770473F
:100FC000704770470020704701218907086B07228E
:100FD000104308637047704730B5894987480860F7
:100FE00088494C200880874C874B203C23828849C5
:100FF0008648488088488749018086491931418060
:1010000022214181812189000182844941828449D0
:1010100001838249113141837F4A82492032918084
:101020004122814912018A80804ACA807F4D103551
:10103000CD810A824A82921C8A826A1FCA82FF225A
:1010400046320A837A4A4A837A4A59211180794979
:10105000794D20310D8043254D80784D5582D52224
:101060008A80FF22D3320A81754A4A81754A8A8171
:10107000764A754911806349754A60394A80CA8841
:1010800010252A43CA806C4A0A3A0A815D4D714A8A
:10109000403D6A80638208224A815749654A09882F
:1010A000403A118253496C4A098811806B4909788A
:1010B000002901D03021018330BD4008704700B5C0
:1010C0008BB0674A4262674A8262674A4261674AF6
:1010D000C262674A0260674A0262674A4260674AC0
:1010E000C261474A45480021106045484038026BBC
:1010F00003129A430263426B1F231B049A43032388
:101100001B04D21842635E480268C3129A4302600D
:10111000026803139A43026068464154491CC9B2ED
:101120002829FAD301462822564802F015FFFFF776
:1011300053FF02F0C3FE54490880002002F0C4FEB1
:1011400002F0C8FE0BB000BD10B52D4A0F212B4890
:10115000090210602A484038426B1F231B049A433F
:1011600003231B04D218426300060268D208D2008F
:10117000026005200007028992089200521C028139
:10118000028908231A430281028A0A43028217480D
:101190004189890504D5018878229143083101806D
:1011A000FFF71AFF3948006F0078002804D038484C
:1011B000008814496039C880012002F037FE10BD54
:1011C00026480078704725490120087012493020D0
:1011D000088370472149002008700F491048088390
:1011E00070470000A0860100087F04002000005026
:1011F00000800040560208004A0308004C055407CE
:1012000080000040602C00507F7F0000AC2900006F
:1012100000220050090900000024005022040000B0
:1012200030D00000EE110000002500502E0200001A
:1012300044200000402800500D95000002420000AC
:10124000E4DC00001092000053780000002A0050F7
:101250008B1000009DD50000002600506483002004
:10126000BB0F0020BF0F0020C50F0020C90F0020BA
:10127000C10F0020D70F0020C30F0020BB1000209B
:10128000000200402000080078040800E00100206F
:1012900052040800FEB50020F84E03462822002123
:1012A000424392198C00491C13510A29FADB401C55
:1012B0000428F3DBFFF786FBF048002208380260C1
:1012C000426015460024EE486900475A0120A040BC
:1012D00080B207421CD0282068438019A1004058E2
:1012E000411C19D0002810D0C117224602F03AFE46
:1012F0002A0102F037FEE14B083B1A685B68104395
:10130000DE4A1943083A10605160641C0A2CDDDB88
:101310006D1C042DD6DBFEBD0095019400BEE3E7F5
:10132000F8B5164604460D460A461F460120002120
:1013300002F018FE220102F015FED04B083B1A689D
:101340005B6810401940084300D100BE032C00D157
:101350000424CC4960014018690008183E43C68047
:10136000F8BD70B504460D460A460120002102F082
:10137000F9FD220102F0F6FDC04A083A13685268EE
:1013800018401140084300D100BE032C00D10424B2
:10139000BC49600140180121A940818070BD70B531
:1013A00004460D460A460120002102F0DBFD220121
:1013B00002F0D8FDB14A083A13685268184011404B
:1013C000084300D100BE032C00D10424AD496001C4
:1013D00040180121A940418070BDFFB581B00C4685
:1013E00005460A461F46012000210A9E02F0BAFD6A
:1013F0002A0102F0B7FDA14B083B1A685B68104058
:101400001940084300D100BE002E2146284602D0D4
:10141000FFF7C5FF01E0FFF7A4FF3B462146284642
:10142000039AFFF77DFF05B0F0BD70B51546044681
:101430000E460A460120002102F094FD220102F02E
:1014400091FD8E4B083B1A685B68104019400843B9
:1014500000D100BE002C07D0601E8A4940007031C8
:101460004018012C02D002E00020F6E7083601887F
:101470000122B2409143B5400D43058070BD70B567
:1014800004460D460A460120002102F06BFD2201B0
:1014900002F068FD794A083A136852681840114012
:1014A000084300D100BE032C00D10424754960011B
:1014B000401800880121A940084000D0012070BDDB
:1014C000FFB514460D4606460A4681B001200021AC
:1014D00002F048FD320102F045FD684B083B1A68F6
:1014E0005B6810401940084300D100BE66A0006848
:1014F0000090664880892346133BFF2201329A40C0
:101500000B999043002901D0012700E00027D10763
:1015100001D0002138E0910701D5012134E05107C5
:1015200001D5022130E0110701D503212CE0D106BD
:1015300001D5042128E0910601D5052124E05106BA
:1015400001D5062120E0110601D507211CE0D105B7
:1015500001D5082118E0910501D5092114E05105B4
:1015600001D50A2110E0110501D50B210CE0D104B1
:1015700001D50C2108E0910401D50D2104E05104AE
:1015800001D50E2100E00F218F404049384388816A
:1015900088890B9F80098001384388810F8A97438F
:1015A000D00701D0002038E0900701D5012034E0B9
:1015B000500701D5022030E0100701D503202CE0B0
:1015C000D00601D5042028E0900601D5052024E0AE
:1015D000500601D5062020E0100601D507201CE0AA
:1015E000D00501D5082018E0900501D5092014E0A8
:1015F000500501D50A2010E0100501D50B200CE0A4
:10160000D00401D50C2008E0900401D50D2004E0A1
:10161000500401D50E2000E00F200A9A82401743A3
:101620000F820F8A0122104698408743C30701D0DA
:10163000002042E0830701D501203EE0430701D5A9
:1016400002203AE0030701D5032036E0C30601D5A6
:10165000042032E0830601D505202EE0430601D5A3
:1016600006202AE0030601D5072026E0C30501D5A0
:10167000082022E083050BD509201EE00880002009
:10168000144500200030005001090F1900140050CB
:10169000430501D50A2010E0030501D50B200CE01D
:1016A000C30401D50C2008E0830401D50D2004E01B
:1016B000400401D50E2000E00F20049B83401F430F
:1016C0000F82954861000818418B6B4689099B5D24
:1016D00089015B1919434183A007C30EFF2199407B
:1016E00080209840002C0BDA23071B0F083B9D0835
:1016F0008A4BAD00ED18EB698B430343EB6107E0C8
:10170000A508874BAD00ED182B688B4303432B6076
:10171000E006C00E82408348026084E67E49403184
:101720000A8A0121133881400A40C80701D00020ED
:1017300038E0880701D5012034E0480701D50220B0
:1017400030E0080701D503202CE0C80601D50420AD
:1017500028E0880601D5052024E0480601D50620AA
:1017600020E0080601D507201CE0C80501D50820A7
:1017700018E0880501D5092014E0480501D50A20A4
:1017800010E0080501D50B200CE0C80401D50C20A1
:1017900008E0880401D50D2004E0480401D50E209E
:1017A00000E00F20C240D0B2704710B55A4C403410
:1017B000238A0122133882409343D00701D00020AE
:1017C00038E0900701D5012034E0500701D5022010
:1017D00030E0100701D503202CE0D00601D504200D
:1017E00028E0900601D5052024E0500601D506200A
:1017F00020E0100601D507201CE0D00501D5082007
:1018000018E0900501D5092014E0500501D50A2003
:1018100010E0100501D50B200CE0D00401D50C2000
:1018200008E0900401D50D2004E0500401D50E20FD
:1018300000E00F2081400B43238210BD10B5364CD1
:101840004034E38901221146133881408B43C80795
:1018500001D0002038E0880701D5012034E0480796
:1018600001D5022030E0080701D503202CE0C8068E
:1018700001D5042028E0880601D5052024E048068B
:1018800001D5062020E0080601D507201CE0C80588
:1018900001D5082018E0880501D5092014E0480585
:1018A00001D50A2010E0080501D50B200CE0C80482
:1018B00001D50C2008E0880401D50D2004E048047F
:1018C00001D50E2000E00F2082401343E38110BDBC
:1018D000154A8000801880384163704710B504466F
:1018E000FFF7ACFF1049A00040188038406B00287B
:1018F00001D0804710BDE106C90E012088400B4988
:10190000086010BD1320E9E71420E7E71520E5E79C
:101910001620E3E71720E1E7C013005000ED00E0D8
:1019200000E400E000E100E0A880002080E200E0A8
:1019300008430121890303460B4343490B80434B72
:1019400018430880092002434A8070473E490A88AC
:101950000F239B0100079A43800D02430A807047C2
:1019600039490020088070473748394902880223E6
:101970001A430280491E02D302889207FAD400213A
:101980000181408970470AE000BF00BF00BF00BF6F
:1019900000BF00BF00BF00BF00BF00BF00BF401EB0
:1019A000F2D2704770B50222510204464E00304612
:1019B000FFF7BEFF1420FFF7E6FF002C01D009203F
:1019C00000E00720FFF7C2FFFFF7CEFF054601202A
:1019D000FFF7D9FF022200213046FFF7A9FF002CB4
:1019E00001D0092000E00720FFF7B0FFFFF7BCFFA0
:1019F0004019154A0021118070BDF0B5124C1548F0
:101A000020801420FFF7BFFF01256D02A580E5802F
:101A10002088E9000843208020888E10B043208071
:101A2000FFF7A2FF0746208830432080FFF79CFF86
:101A30000246780071424018281A52005118691A5B
:101A4000A080E180F0BD00000015005001400000C2
:101A5000A08601000148000008B589210520000783
:101A600001810121614A49031180018880221143CB
:101A7000018001888908890001805D48018A02226D
:101A800011430182FFF7A8FA02F072FA02F076FA27
:101A90000020694601E00888401C088008889128D9
:101AA000F9D308BD08B55349002008804880534A3F
:101AB000514BD380FF23D2331381C880C32151807F
:101AC0004F4A082111806946088003E06A46118860
:101AD000491C1180694609889129F7D36946088015
:101AE00003E06A461188491C1180694609889129DA
:101AF000F7D3694601E00888401C088008889128CF
:101B0000F9D308BD3F4A5080918001201080D088D1
:101B1000C007FCD17047F1B5FFB0FFB094B011AC75
:101B200033480494008AA41C1090FFF795FF3148B5
:101B300001880F9141880E913049CA880D920A8917
:101B40000C92C2880B92408B0A902F4840880990D3
:101B500048888446FFF7A6FF00252B46FF2111A8E1
:101B6000FFF7D0FF00210A460846049E275C365C3A
:101B70007E40F607F60F8E401643491CC9B2F2B2FA
:101B8000082906D1FFA9C96C4A556D1C0021ADB2C8
:101B90000A461030FF2680B2B600B042E5D95B1C81
:101BA0009BB2022BDAD31249109808821449002004
:101BB000088010480F9901800E9941800F490D9AB5
:101BC000CA800C9A0A810B9AC2800A9A42830E4AF2
:101BD00009985080604648800520000701888022CF
:101BE000914301807FB07FB015B0F0BD000200408E
:101BF000E030005000240050808000006028005039
:101C000020200050003500500026005070B5EFF342
:101C10001085012080F31088264802F0B5F90446AB
:101C2000002D1DD0012080F31088002C23D02046E9
:101C30002038C08B204988421DD16189208902F05B
:101C4000A9F905000ED021461031A38962892089A7
:101C5000A847002806D001280DD002280BD105E0A6
:101C60000020E0E7204602F09BF904E011482146FD
:101C70000C3002F05FF9EFF31084012080F310883C
:101C80000C480068002802D1012002F08FF9002CD6
:101C900003D0012080F3108870BD0020FAE710B552
:101CA000BC21064802F088F90549012002F08AF9B2
:101CB00010BD0000A80508003883000004060800D5
:101CC0000D1C0020F8B50D46064681002B48EA8819
:101CD0004458521C20686B89018F294F5143009151
:101CE000014640314A89C989511A8AB2991A89B282
:101CF000B94214D29A4212D0294602F069F92D89CC
:101D00002049009802F06AF92818801C4034E082CB
:101D10003002401C80B2042102F018F9F8BD2821DD
:101D2000304602F061F9F8BDF8B505468700134862
:101D30000C46C059C9880068114E0246403253898A
:101D4000D2899A1A92B28B1A9BB2B34211D20B4E1D
:101D50008A420ED002F04EF9F05905225F30611C24
:101D600002F0FAF82802401C80B2052102F0EEF8D9
:101D7000F8BD2821284602F037F9F8BD4C030800C9
:101D8000FF7F00001027000070B516460D46104674
:101D900002F0B8F8002869D0340A304602F0B2F8F0
:101DA000012812D0A87A1E2811D029460A310E28FF
:101DB00045D019DC801E030002F0AAF80B25582933
:101DC000582D58315839583D5800022070BD3146C1
:101DD000274802F015F90021204602F017F90221E8
:101DE000304602F0B3F841E018283CD006DC102859
:101DF00019D012282BD0162838D130E0522822D002
:101E0000D22833D127E0204602F006F92EE0204602
:101E100002F008F92AE0204602F00AF926E02046FE
:101E200002F00CF922E0204602F00EF91EE02046F6
:101E300002F010F91AE0204602F012F916E02046EE
:101E400002F014F912E0204602F016F90EE02046E6
:101E500002F018F90AE0204602F01AF906E02046DE
:101E600002F01CF902E0204602F01EF9002070BDCD
:101E700001280000F3B581B001980C460102CA1D8B
:101E80000E310223344802F015F904700199054619
:101E9000022732488E00002C06D0042C16D0062CC7
:101EA00010D0072C3FD108E0815905224968897C70
:101EB000114069708059C77335E0084602F000F997
:101EC000687030E080590F21C1732CE004468059BE
:101ED0004068417C012902D1007E01280FD0019881
:101EE00002F0F4F801210028A0590BD04268D07DFF
:101EF00000281CD001281AD004280DD00FE00020A3
:101F000068700DE04068C27D022A01D0042A06D123
:101F1000007C02280BD102E0107C022807D06F70F1
:101F2000A1590320C873284602F0D6F8FEBD697097
:101F3000F6E701460A780120042A01D900207047FB
:101F40004A78002A01D0012AF8D10A79082AF5D85E
:101F500049790829F2D87047021C000028050800BA
:101F600010B50C4602F0BEF821888A00294989582C
:101F70000968002902D0284BC968995010BD10B5D6
:101F8000144602F0B5F8210A8A00224989580968E6
:101F9000002902D0204BC968995010BDFFB50F46EB
:101FA000100A1C498000095881B009681E46154670
:101FB000002901D0CC6803E0174900220C580A50D0
:101FC000002C0DD0201F40881449884208D1A068F9
:101FD000002802D0204602F091F8204602F094F842
:101FE00033462A463946019802F094F805B0F0BD10
:101FF00070B50B480378021D00210A4D07E0CC00A4
:10200000165D012E01D12418A560491CC9B2994260
:10201000F5D370BD4C0308006883002038830000AE
:102020000406080014470020FFB589B00D460020C3
:102030006946059008720B98000A009002F046F875
:1020400007460B9801F05EFF00287DD00B98297899
:10205000000A8400784E012963D0042904D006299F
:1020600048D0072968D125E03059C17B032901D028
:10207000042961D1697800291AD040681022A91C6E
:1020800001F06AFF002F06D03159C87B032807D022
:10209000042808D050E03059C07B032803D04BE01F
:1020A0000B20C87348E00521009802F039F843E09E
:1020B0000120B6E03059C07B0E283DD1009801F0D8
:1020C000FFFF002103E02A18401C9170C0B21028C5
:1020D000F9D3688A69460883294606A8082214317C
:1020E000023001F039FF06ABAA1C3946009802F015
:1020F0001DF821E03059C07B0F281DD1AA1C0A21F0
:10210000009802F019F8002F04D03946009802F028
:1021100019F811E000231A463946009802F018F821
:102120000AE0012F08D10B9801F0ECFE01281CD029
:10213000002801D0022005906846007A002811D0BE
:1021400002AA0521009800E00CE001F0F5FF6846C6
:10215000027A6020024368460272012339460098E1
:1021600001F0F6FF05980DB0F0BD3059C07B022894
:10217000E2D16878002851D002210B9801F0E6FEE8
:10218000305907224068A91C173001F0E5FEE878B5
:10219000002804D130594068407C01283AD000988A
:1021A00001F0DCFF002837D0297A009801F0DCFF2D
:1021B000002833D0009801F0DDFF0121009801F0E4
:1021C000DFFF00282CD030594068417E00292BD0F9
:1021D000042929D0C17E027D1140C1763059406862
:1021E000017F427D114001776846007A0028A7D11F
:1021F0003059022142680098173201F09DFF305992
:1022000041684031897B002913D004210098FFF7F1
:1022100031FE91E7022004E0062002E0082000E001
:102220000320694608728BE70021C1763059406867
:10223000D9E70B21C1737FE72805080070B5044674
:10224000007800250D2801D00A2200E002225A4918
:102250004B7A002B06D00D2804D0637C032B01D0D1
:10226000432551E0097A8A4339D10D2809D00E2837
:1022700002D00F2803D134E0607C032804D340252A
:1022800042E0607C0328FAD8A07C0428F7D20A290F
:1022900008D0607C012822D0022820D06078032852
:1022A00009D811E001F072FF012806D160780328F7
:1022B00003D0002801D0492526E001F067FF00285F
:1022C00002D160780228F6D83020035D22462046ED
:1022D000E17C3132143000F019F8054614E0422553
:1022E00012E001F053FF012807D16078052804D1DE
:1022F000A01D01F051FF0028DDD001F047FF0028AC
:1023000002D160780228D6D8284670BDFFB50020DB
:1023100086B001216A461170044605910021002C07
:1023200006D0089D099A1F239A4234D9402032E0F2
:102330001C23069D079AF7E76B185E78330001F0BF
:10234000E7FD1D2610101010101010101026262664
:1023500026262626262626262626101010101010A1
:102360002600059B03E06F46FF5CB74204D05B1E6E
:102370005BB2002BF7DA03E0002B01DB4A2006E01A
:10238000059B6F46FE54059B5B1CDBB205936B5CA3
:10239000491C5918C9B2914201D20028CCD09142AF
:1023A00002D04A200AB0F0BD641CE4B2022CF9D27B
:1023B0000028B3D0F6E700009805080070B516466F
:1023C0000C46054601280FD106221749174801F08F
:1023D000E9FE002808D006221449304601F0BCFD71
:1023E00006202070002070BD32462146284601F0AC
:1023F000DFFE70BD70B50E480E49C40522888025E9
:102400002A4322800C4A53891B0701D4401EFAD26A
:102410000A4A012010600622044801F09DFD208830
:10242000A843208070BD0000383E03006C8300206C
:10243000A0860100D47F04002000005000800040EE
:10244000F8B5594F0026786D0090FEF74CFA574CBE
:10245000002802D12079022801D100200090FEF747
:10246000FEFB00280DD101F0A9FE002809D0E0787C
:102470000126002805D005252D07A88AC00701D010
:1024800004268EE001F0D8FC002838D120790028FD
:1024900001D1386D009046488069002801D0786DE0
:1024A0000090A1786846009F01F08EFE002878D049
:1024B000A178684601F0D2FC002872D001F08AFEB3
:1024C00000286ED0FF2000972D300127BF07396A02
:1024D0008142FCD3A178684601F076FE00280CD03A
:1024E000A178684601F0BAFC002806D0314A832062
:1024F00012780099022A03D003E001F071FE50E047
:10250000B5202D4A1378012B00D121300023137000
:10251000FB6B0F229B0A9B021343FB63FA6B274B57
:1025200080021A400243FA63F86B3722C002C00AE5
:1025300092051043F8630426002901D0091D00917B
:1025400000986421C00201F049FD1D49401E086049
:102550002179002900D0012101F048FE1948C06A04
:1025600080470024FEF7A8FB002808D028883021E7
:102570000843288028880321084328800124386BD9
:102580000004C00FFBD010480168C905FCD5002C21
:1025900001D0FEF7E9FC01F02FFE28898021884355
:1025A00028813046F8BD000060020020C606080001
:1025B000A8050800540208007D830020FF03E0FF07
:1025C000748300201C07080000020040F8B505468F
:1025D000B448B649047BB448C969006840300089F2
:1025E000884201D1002002E00002401C80B2060AAD
:1025F0001AE0AC4800276038816E2E20604308182E
:102600008078C0060AD001F0FDFD0146A84AB0005E
:10261000105864228256914200DA0127384601F0B0
:102620009BFA641C6407640F28466D1EEDB20028F7
:10263000DFD1F8BD70B50125AD07AC6B2046FEF7C4
:10264000DEFA9C4901F0CAFC27221201511A00D17E
:102650000121994A50601160286B08218843084382
:1026600028639648046096480068002802D0A0427B
:1026700000D200BE70BD10B5052000074189890752
:1026800008D041898908890041818E494A885208C9
:1026900052004A800189802211430181018A04226B
:1026A00091430182818A8907FCD501F0B1FD0120A7
:1026B00080070169490700D500BE01694907FCD5BB
:1026C00010BDF8B5804EF08800282DD10120F08093
:1026D0007E490820088005273F077889800720D099
:1026E000B88A400701D5FEF7A7F9764D28888021E2
:1026F00008432880764CFF20608004202080FEF76D
:1027000028FC7D21C900E088A28800048018884246
:10271000F9D905202080B0887880298880208143DD
:1027200029806C4910200860F8BD70B5FEF71CFCCC
:10273000FFF7A1FF0026644C0520E6800007418AD0
:102740008022914341826148018949084900018101
:1027500001F046FD01208007816904221143816157
:1027600001F05CFD5B49102080310125086001F01B
:102770005BFD01F05FFD534826704089800510D550
:10278000607800280DD1544865700088C00708D1D2
:102790000120FFF707F98B218900884201D9022027
:1027A000607070BD10B501F04BFD00F073F8464944
:1027B0000120087010BD10B501208007008A0006B6
:1027C00001D500F067F810BD10B53848C06CC0B234
:1027D000FFF7FCFE01F03AFD10BD10B50124A4077F
:1027E000208A000729D53D49012008702E484E2334
:1027F00000682E4A4030018912685943384BC91885
:10280000515AC07C090A081AC0B2FFF7DFFE01F076
:1028100023FD2068400040086100084320602068D4
:10282000C00FFCD12448803001680906090E01D090
:102830000121016024490420087010BD70B52948A9
:10284000008885062848AD0E44681848006F007857
:10285000002802D1284601F005FD244800891A4EBF
:10286000C00507D520060ED5E0070CD0284601F09C
:10287000FFFC03E0200606D5E00704D0174901203D
:10288000486003203070200403D5E00501D5022004
:10289000307070BD10B50C490120887001F0EEFC5D
:1028A00010BD0000380308006C030800E0010020A0
:1028B0004C030800710200004000004078830020B3
:1028C00074830020200000507C83002000330050DF
:1028D0000016005000E200E000150050209000209B
:1028E0004A0008000020005000020040002C005068
:1028F00010B5428800791C4601020823FE480C31BD
:1029000001F0D8FB08210170012141700021818074
:10291000C180448001F0E0FB10BD10B50C46098871
:10292000002910D04288007906230102F2480C31B8
:10293000401D01F0BFFB102101702188418061889A
:10294000818001F0C9FB10BD10B50C460988002933
:1029500010D04288007906230102E7480C31401D5F
:1029600001F0A8FB112101702188418061888180DC
:1029700001F0B2FB10BD10B5428800790C4601028F
:10298000DD480823401F0C3101F094FB0246032070
:10299000107001205080801E908002205070947131
:1029A000210AD171104601F097FB10BD10B5428885
:1029B00000790C460102D0480823401F0C3101F079
:1029C00079FB042101702188418061888180022186
:1029D000417000218171C17101F07EFB10BD10B505
:1029E000428800790C460102C3480823401F0C317D
:1029F00001F060FB052101702188418061888180A0
:102A00000221417000218171C17101F065FB10BD8F
:102A100070B50D4609886A796B888A180179002497
:102A2000090240880C31521E5B1C9A4216DB02469A
:102A3000B1480823401F01F03DFB01460720087004
:102A40006A88521C4A8028886A798218521E8A80B5
:102A5000022048708C71CC71084607E00A46014696
:102A600003200223000301F025FB447001F034FB36
:102A700070BDFFB50E46194642881D460A310079E1
:102A80008BB201029C4881B0801C0C310A9F01F07E
:102A900011FB002181800181077046800446C580BA
:102AA0000120607020462A460A30039901F054FA4A
:102AB000204601F011FB05B0F0BD1CB56B461A7144
:102AC000120A5A710C220092022301AAFFF7D1FFC9
:102AD0001CBD70B50546002003460EE006245C438D
:102AE0000E5B002E0ED09E00B6186418F67824797E
:102AF000A64300D085205B1CDBB2AB4201D200288C
:102B0000ECD070BD9C00A418A478FF2CF3D18320D6
:102B1000F1E7F0B505460020044611E066008E5B43
:102B2000002E0BD1A600B618B778FF2F06D1F67885
:102B300006277E439E5B002E00D08320641CE4B2F7
:102B4000AC4201D20028E9D0F0BDFFB581B01546F6
:102B50000F4600240A9E26E00498A100425A71798B
:102B6000B01D01F091FB00281BD0204606223188C1
:102B700050432952728841194A8032790A712B5C7C
:102B8000019AD21A521C4A710B990978A14206D0B7
:102B900006225143285C6A5C801A491948710B98D7
:102BA0000470641CE4B2BC42D6D384E7FFB581B0A4
:102BB0001D4616460746002416E0A0008119CA7873
:102BC0000A998A420ED1325AA978E81C01F05CFBBE
:102BD000002807D002996000095A002902D1029901
:102BE0002A880A52641CE4B2BC42E6D363E7F8B513
:102BF00000240546002815D04048C069884211D9F4
:102C0000286800280ED08F00C659002E0AD0002A4E
:102C100001D030469047304601F076FA296800200E
:102C2000C85100E081242046F8BD70B581240546D6
:102C300000281DD0314EF069884219D92868002833
:102C400016D02846FFF7D3FF040011D10146F269E0
:102C500004E08B002868491CC058C9B28A4202D9D6
:102C60000028F6D004E0002802D1284600F0FBF846
:102C7000204670BD02460020002A02D0080A8000CB
:102C800010587047FFB581B007461E460D460398A1
:102C900001F038F9B0421CD038680399FFF7EAFF19
:102CA000040016D0628821880423284601F002FA25
:102CB00005460A98288060880B9A010A3846FFF773
:102CC000B4FFA870284601F007FA3146039801F0D6
:102CD0003DF9F0E6F8B50C7915460E460746FF2C8F
:102CE00021D07088010AA1420ED02102C0B2014356
:102CF0003288284604E0000007300000E001002090
:102D000001F0C8FA8C250FE01A462146384600F03B
:102D1000B4F8050008D13868A100405806223146B1
:102D200001F01AF900E089252846F8BDFFB50746ED
:102D30000068684D81B00E4600280ED0002406E0E1
:102D4000214638460A9AFFF752FF641CE4B2E8694C
:102D5000A042F5D8384600F086F8F0B2049901F0A8
:102D60009FFA002406E020023043039901F0EEF8B8
:102D7000641CE4B2E869A042F5D89CE6FFB581B0D6
:102D80001F4615460C4608460A9E01F0BBF8A842AD
:102D900008D13946204601F0D9F8210A3246019877
:102DA000FFF743FF87E6FFB581B00746039800258C
:102DB0001E460C46002800D1B5887A88284608307F
:102DC00083B23988204601F075F90446387901F05C
:102DD0006DFA20800398A07100206080A580002EED
:102DE00006D0308860802A46B11DE01D01F0B4F89D
:102DF000204601F071F95EE60A880270120A4270FC
:102E00008A788270CA78C2700A7902714A794271EE
:102E100089798171072070474278037812021A433A
:102E20000A8082788A70C278CA7002790A714279FF
:102E30004A71807988710720704710B500F04CF80E
:102E400010BDF8B504020646363417460D46204636
:102E500001F058F8002805D0EAB22346394630463A
:102E600001F02AFAF8BD10B504460068002803D026
:102E700001F04AF90020206010BDF7B50546006852
:102E80000024144E0F4600280BD1F0690121800068
:102E900001F018FA286000280BD0F169890001F0D0
:102EA0008BF8F069B84212D92868BF00C0590028D1
:102EB00001D089240CE00121029801F003FA0600F8
:102EC000F7D0029901F004FA2868C65100E0812485
:102ED0002046FEBDE001002008B50020024600901B
:102EE000234B36212348FFF721FF08BDF8B51646CE
:102EF0000C4607464A8809884A231F4801F0DAF839
:102F00000546207901F0D2F92880AE70002E0BD052
:102F1000002000900346618802221648FFF72EFF2A
:102F2000284601F0D9F8F8BD3946123146220E463E
:102F3000281D01F011F831463846FFF7EEFC608895
:102F4000012101F003F8EBE770B50E460446428814
:102F5000018809480423093001F0ACF805462079BE
:102F600001F0A4F92880AE70284601F0B5F870BDD4
:102F7000244700208483002001D800007CB51C4633
:102F800016460D46088801F0A9F901466846017108
:102F90004680048058232A4669469C48FFF79AFEDB
:102FA00002468C2804D0002A04D06946002017E08D
:102FB00001207CBD954831460068FFF75BFE00218B
:102FC0008181C18104460174A87800280BD0204675
:102FD0004622291D123000F0BFFF0022694620461C
:102FE000FFF784FF09E08A49E18021812046FFF74D
:102FF000C2FC0221304600F0A9FF00207CBD10B5C4
:1030000082480C4611460068FFF734FEC188804AAA
:10301000914206D12188418261888182C17A491C0E
:10302000C172002010BD1CB578480C4611460068DE
:10303000FFF720FE0189764A91420BD101460A3101
:1030400000940191848A0246724B16320B2120466D
:10305000FFF77BFD00201CBD70B514460D461046E1
:1030600000F050FF0646694821460068FFF702FE5F
:103070000446022E02D0012E2ED03FE068780A28A6
:1030800001D000283AD121896148814236D1E188B6
:10309000614D814210D1608A002804D0E07A012875
:1030A00003D9842213E0832211E021461231204605
:1030B000FFF795FCE58021E0A9421FD12146554A42
:1030C00016310B20FFF705FD020000D1E07221460A
:1030D0000846FFF70BFF11E02878082806D00C28D7
:1030E0000CD169782046FFF72FFF07E06A78002AA5
:1030F00004D0002349492046FFF755FE002070BD4B
:103100001CB50888454900230090491E01933F489B
:10311000FFF7B8FD00201CBD10B53C481146006803
:10312000FFF7A8FD038B828A418AFFF7E1FB0020AD
:1031300010BD08B5354811460068FFF79BFD012119
:1031400081810C2100910246018B02230C32FFF792
:1031500090FC002008BD08B52C4811460068FFF718
:1031600089FD00218181C18101740C2100910246F9
:10317000018B02230C32FFF77CFC002008BDFFB559
:10318000224881B00E461D4603990068FFF772FD84
:1031900004460079290A814235D100200746009073
:1031A000E089062250430019B188C08B814219D1B1
:1031B00001200090194821881823801F039A00F0ED
:1031C00079FF0546207901F071F82880207CA870ED
:1031D000B078E8707288B11D281D00F0BDFE284649
:1031E00000F07AFF207C401C2074E089401C80B2F3
:1031F000E0810A2801D30020E0817F1C0A2F02DA37
:1032000000980028CCD0002005B0F0BD84830020B9
:10321000A0FF0000344700200328000009D8000068
:1032200038B50124684604700C21494801F050F873
:10323000474D6946EC702A1D352001F055F80028ED
:1032400000D02C7100F016FA4249322001F028F823
:103250000021322000F07AFE00F0B2F838BD10B53F
:1032600000F0C5FA10BD10B539480223807832222B
:10327000010239480E3100F01DFF012101701321B8
:10328000417000F029FF10BD10B5044630482C23D2
:1032900080783222010230480E31801E00F00AFF91
:1032A00001462030047200224272084600F014FFEA
:1032B00010BD10B5502332220D21284800F0FAFE2F
:1032C000044600F00DFA204600F006FF02213220ED
:1032D00000F03CFE10BD214810B5012332220D2123
:1032E0000B3800F0E7FE0221017000F0F5FE10BD82
:1032F00010B500F088FA10BD194B10B59A4201D9EB
:103300001A4602E0002A00D1012200F0F3FF10BDAE
:10331000F8B50646114815460F46252332220D21E1
:10332000C01C00F0C7FE044601202077204606227C
:1033300039461D3000F010FE232006556582258297
:10334000204600F08EFA204600F0C6FEF8BD0000D0
:103350008E830020C8470020043800000E3400008F
:103360003075000010B500F0CBFF254900F0CEFF0E
:103370002448081810BDF8B5234D0646A876002449
:1033800000F0BEFF2919641CE4B20874082CF7D3BE
:1033900000241027381BB04201DD002007E000F0B8
:1033A000AFFFC117090E0918090A0902401A28556A
:1033B000641CE4B2102CEDD300F0A2FF2883F8BD0A
:1033C00010B52421104800F083FF00F054F910BD1F
:1033D00010B50E4802238078322201020C480E31CB
:1033E00000F068FE0D210170074920318978417095
:1033F00000F072FE0321322000F0A8FD10BD000095
:10340000A0BB0D00A08601009A8300208E830020BF
:103410001A38000010B5084609781C460B0000F069
:1034200077FD080520202008181B1E2000F05AFAFE
:1034300017E04178012904D0002902D0022903D0E5
:103440000FE000F050FA0CE01146204600F054FA6C
:1034500007E000F049FA04E000F047FA01E000F06C
:1034600045FA002010BD10B50878304C801E0300CE
:1034700000F04EFD020214188878A070C0070AD030
:103480002B492A4A4879203AD07628480622001F3C
:10349000891D00F061FD00F02AFA03E0FFF7E3FE6A
:1034A0000020A070002010BDF8B518460D4601465A
:1034B0001223204800F0FEFD0446284600F018FACA
:1034C0000027002821D0194EB078C0071DD0304603
:1034D0000822A91C103800F065FE002815D13046DE
:1034E0002038018B2A8891420FD101212170807EE2
:1034F0006074314610222039601C00F02DFDB07838
:10350000FFF7C2FE00F0F7F900E02770204600F058
:10351000E3FD2078002801D1FFF7A5FE0020F8BDCB
:1035200010B500F0E7F9002010BD0000BA830020BC
:103530008E8300201838000010B5104600F0E2FC21
:10354000002809D1012332220D21484800F0B2FDA4
:103550000121017000F0C0FD002010BD70B5087899
:1035600015460F282DD008DC01280DD0022834D0B4
:1035700003281CD00E2830D11FE0102825D0112898
:1035800023D0122829D123E04878002825D13748B4
:10359000222332220D21801C00F08CFD04460146BE
:1035A000284600F031F9204600F096FD15E04878F5
:1035B000002812D100F033F90FE0487800F040F90C
:1035C0000BE0487800F03DF907E000F03FF904E037
:1035D0004878442801D100F072F9002070BD70B520
:1035E0001C4610460D4600F08DFC022805D12049EE
:1035F000200A8870284600F03FF8002070BD70B5A2
:10360000087815460C460A2810D1104600F07AFCBE
:1036100004280BD16078002802D000F00FF905E0F3
:103620000521284600F092FC00F009F9002070BD49
:1036300010B5104600F0BEF8002010BD10B51046C1
:103640000C4600F05FFC012808D12078002805D145
:10365000FFF705FE002801D000F0F4F8002010BDAF
:1036600010B5084600F016F9002010BD0234000025
:103670008E8300207047704770B50446FE488078FE
:10368000FF282AD03221FD4800F0BAFC0521322063
:1036900000F05CFCF948092332223F21401F00F072
:1036A00009FD0546012028702078A870607A6870AE
:1036B000214606220A31E81C00F04EFC284600F0A4
:1036C0000BFD608800F02CFA00F03CFA00F0FEF9E7
:1036D000EB488078FFF7D8FD70BDFFF7EAFD70BDBD
:1036E000F0B5044693B00E20207000256570E548C3
:1036F000A081E08107202074012060741C20E07408
:10370000274622461F202037143238741646511E91
:103710000B2000F0E9FD002805D02A46E574DAA167
:10372000304600F019FC22463132511E0C20119215
:1037300000F0DAFD002805D03D742A46D4A1119886
:1037400000F00AFCE07C1A21081A45B2002D2FDD9A
:103750003E206946087001AA022000F0C5FD00283D
:1037600006D00D2268460270CAA101A800F0D4FD5F
:103770006846007800281BD0A84200D2054668465B
:103780000570E07C6D1C8555E27C204609211530D2
:103790001154E17C401C0B186846027801A91846B8
:1037A00000F0DAFB68460078E17C801C0818E074C1
:1037B00013B0F0BD10B50C4600F0A4FB032803D0F5
:1037C000052801D0042811D10221322000F0BEFBCF
:1037D000B44900200870A948092332223F21C01EA5
:1037E00000F068FC2178817000F076FC10BD0020AC
:1037F000AD4A01211170A04AD378002B01D00120DD
:103800007047D170704770470320087005204870DA
:1038100000204882087548751720C882704710B587
:103820000221322000F092FB9448042332223F21EF
:103830000A3800F03FFC00F04FFC10BD70477047A5
:103840007047704710B5FFF734FD10BD8B4810B5B9
:10385000002332223F21C01F00F02CFC00F03CFC72
:1038600010BD10B520210183418300218182417068
:10387000FF21F531C182FF2181318181FF21613139
:10388000C18112210170AF22920032217B48FFF7E3
:1038900033FD10BD70B504467848072332223F211E
:1038A000083800F007FC0546607828700622A11C45
:1038B000681C00F051FB284600F00EFC70BD6F48FC
:1038C00010B5092332223F21401F00F0F3FB0446CC
:1038D000002020700821601C00F0FAFC204600F057
:1038E000FBFB10BD704770477047704770477047CB
:1038F0000120704770477047704710B5142332227B
:103900000D216A4800F0D6FB0021017411220270DB
:103910004170012181740A2181810521C18100F05A
:10392000DBFB10BD614810B5012332220D210C389C
:1039300000F0C0FB0221017000F0CEFB002010BDA2
:1039400010B518460C4601464C48012332220B386C
:1039500000F0B0FB2178491C017000F0BDFB002095
:1039600010BD10B5FFF7C9FF002010BD10B50A89C2
:103970000878491CFFF7CCFC002010BD10B5087872
:1039800000F0ACFC01020223322249480E3100F063
:1039900091FB012101701321417000F09DFB00207B
:1039A00010BD70B50024404D26460C3514206043F0
:1039B0004019068022461221801C00F0B3FC641CD2
:1039C000202CF3DB3B4838490088886070BD10B577
:1039D0004878344C012801D0002005E020780128E7
:1039E00001D0FFF7DEFF01202070002010BD10B5D0
:1039F000322000F087FA052814D120480E23322205
:103A00003F21401E00F056FB0446002020701A485B
:103A10000C22007860702849A01C00F09DFA204616
:103A200000F05AFB10BD0188491C01807047F8B5B1
:103A30001C481D4C0078012846D1204F204D2646B9
:103A40000C36009560681421484380195223A268FF
:103A500000F0CBF8002837DB6068401C606020284D
:103A600001DB00206060A068001DA06039888842EA
:103A7000E7DD1048008825E08E8300200DC8000097
:103A8000BA8300204C040000070103180000000066
:103A900002FF0000444131343538302054454D5048
:103AA0004C000000BF830020BC8000200F340000C9
:103AB0000438000028900020D29100202A90002095
:103AC000273A0020A060BCE7F8BD000010B5362101
:103AD0004A233222880200F0EDFA04490988018065
:103AE0000021817000F0F8FA10BD00008E830020E4
:103AF00010B588780C46002801D0FFF7B4FB218A66
:103B0000064840340180E1884180002010BD10B596
:103B1000C87800F028F8002010BD00002890002090
:103B20001121821F0C2A05D2A34A41008A18403A6B
:103B30003421515EA14A508088B21080411C083A5D
:103B40001160704710B512219D4800F0C1FB9D48DF
:103B50009B498088888110BD002803D098494889F6
:103B6000401C488170479649CA88521CCA800A89FD
:103B700010180881704770B5914CE089401CE081B5
:103B8000E0898E494D88FF216843913188421FDBCF
:103B900012222146881800F0DFF91221204600F099
:103BA00097FB214612318889A081A089C8891222F9
:103BB00068430880A089101A4A88121A4A808B88A4
:103BC000142242439B1A8B806080A28001200874DB
:103BD00070BD10B5FF2191317B4800F0EDF97A48B6
:103BE0000021001F4170017010BDF0B5764D964662
:103BF00002462D1F68782E1D07018C46BC19E17BFB
:103C0000002902D00020C043F0BD0121E173F25130
:103C10006146A17371466160A3810599A160411C51
:103C2000C9B269701929EFD300216970F0BD192854
:103C300002D30020C0437047634900014018C07B95
:103C4000704770B5044661482C2380783222010207
:103C500005208002491D00F02DFA050019D004202E
:103C6000A880207BA871A0882881A27B6A81284631
:103C70000C30216800F070F9284600F02DFAA07B86
:103C800000F066FB0020E073A268002A01D003CC9C
:103C9000904770BDF8B54C4C0146241F2078251D77
:103CA00000014019C07B002700281CD045488088AF
:103CB000012818DD461A14E0207800014019FFF7AA
:103CC000C0FF2078761E401CC0B27F1C20701928CF
:103CD00001D3002020700006000D4019C07B002891
:103CE00001D0002EE8DC3846F8BD70B535493348C0
:103CF0008C8812210B1B3449304A091F08388D78F3
:103D0000083A40681268002D01D0A01A401C012812
:103D100000DA0120934201DD012200E000228A70D6
:103D2000C0B2FFF7B7FF264A211A918170BD70B566
:103D30002449244A8C882149122608390968928826
:103D40000020331B1E4D92B28B4209DA112C04DA8B
:103D50001D4B1B1F9B78012B02D0701A02D004E070
:103D6000AA8170BD122900D00120C0B2FFF792FFD6
:103D7000211AA98170BDF8B5154C00272078154E81
:103D80003D46012803D03168012909D012E0FFF730
:103D9000CEFF0746022035602070FFF7ECFE09E0F9
:103DA000022807D1FFF7A1FF0746356020780228D7
:103DB00000D125703846F8BD78480020CC48002056
:103DC000C09100201E050800309000208E83002046
:103DD0002090002024900020064C0125064E05E08E
:103DE000E36807CC2B430C3C98471034B442F7D31C
:103DF000FCF72AFB90480020C048002003B401488B
:103E0000019001BD551B020003B40148019001BDA2
:103E1000CF2B030003B40148019001BD0F3B030009
:103E200003B40148019001BDCB2C030003B4014849
:103E3000019001BD0990020003B40148019001BD49
:103E4000C12D030003B40148019001BD0921030005
:103E500003B40148019001BDC92D030003B401481A
:103E6000019001BD2B69020003B40148019001BD1E
:103E7000EB31030003B40148019001BD3D32030062
:103E800003B40148019001BDD721030003B40148E8
:103E9000019001BD1F21020003B40148019001BD42
:103EA0005D80020003B40148019001BD2F2F030083
:103EB00003B40148019001BD998F020003B4014889
:103EC000019001BD938F020003B40148019001BD30
:103ED000CD8C020003B40148019001BD418F020066
:103EE00003B40148019001BD2768020003B40148F2
:103EF000019001BD3968020003B40148019001BD81
:103F0000B780020003B40148019001BDB32603004D
:103F100003B40148019001BDFD3D030003B4014815
:103F2000019001BD197D020003B40148019001BD5B
:103F30000522020003B40148019001BD2F220200B6
:103F400003B40148019001BD0B91020003B4014884
:103F5000019001BD3126030003B40148019001BD69
:103F6000213B030003B40148019001BD8D3D0300D6
:103F700003B40148019001BDF38E020003B401486F
:103F8000019001BD218E020003B40148019001BDE2
:103F9000BF22020003B40148019001BDEB260300DB
:103FA00003B40148019001BD3524030003B4014866
:103FB000019001BDDD20030003B40148019001BD63
:103FC000533B030003B40148019001BD9D20030051
:103FD00003B40148019001BD3350020003B401480D
:103FE000019001BDA73A030003B40148019001BD4F
:103FF0005548020003B40148019001BD1F50020062
:1040000003B40148019001BDA528030003B4014891
:10401000019001BDD5AF020003B40148019001BD7C
:10402000A1A5020003B40148019001BDE3A502006F
:1040300003B40148019001BD87A8020003B4014800
:10404000019001BDA7A9020003B40148019001BD80
:1040500093AA020003B40148019001BD95AB020090
:1040600003B40148019001BDF9AB020003B401485B
:10407000019001BD69AC020003B40148019001BD8B
:1040800017AD020003B40148019001BD77AD0200F5
:1040900003B40148019001BDF1AD020003B4014831
:1040A000019001BD85AE020003B40148019001BD3D
:1040B00011AF020003B40148019001BDB123030018
:1040C00003B40148019001BD49E5020003B4014871
:1040D000019001BDF9E3020003B40148019001BD64
:1040E000E123030003B40148019001BDB938020087
:1040F00003B40148019001BDCD44020003B401485E
:10410000019001BD7758020003B40148019001BD40
:10411000D722030003B40148019001BD2D420200E3
:1041200003B40148019001BD4BCD020003B4014826
:10413000019001BD99D1020003B40148019001BD75
:10414000ABD0020003B40148019001BD69D0020068
:1041500003B40148019001BD77CF020003B40148C8
:10416000019001BD01CC020003B40148019001BDE2
:1041700029CC020003B40148019001BD15D2020010
:1041800003B40148019001BD8DD2020003B401487F
:10419000019001BD7F0C030003B40148019001BDF3
:1041A000AB0C030003B40148019001BD773B030051
:1041B00003B40148019001BDD729030003B40148AD
:1041C000019001BD7920030003B40148019001BDB5
:1041D0002129030003B40148019001BDD9900200D8
:1041E00003B40148019001BDF793020003B40148F4
:1041F000019001BDC768020003B40148019001BDF0
:104200000D2C030003B40148019001BD4975020063
:1042100003B40148019001BD652C030003B40148BB
:10422000019001BDDB2E030003B40148019001BDE4
:10423000231D020003B40148019001BDC32C0300FB
:1042400003B40148019001BD1531030003B40148D6
:10425000019001BD3B66020003B40148019001BD1D
:104260002B66020003B40148019001BD038D0200DA
:1042700003B40148019001BDCF8F020003B401488F
:10428000019001BD1B66020003B40148019001BD0D
:104290001D98020003B40148019001BD1B240300D6
:1042A00003B40148019001BD8725030003B4014810
:1042B000019001BDE3E3020003B40148019001BD98
:1042C00095E3020003B40148019001BD15220300EB
:1042D00003B40148019001BD533B030003B40148FE
:1042E000019001BDB7E3020003B40148019001BD94
:1042F000D129030003B40148019001BD2528030022
:1043000003B40148019001BDFD3A030003B4014824
:10431000019001BDD33A030003B40148019001BDEF
:10432000213B030003B40148019001BD453B03005C
:1043300002E008C8121F08C1002AFAD1704770476E
:10434000002001E001C1121F002AFBD170470000CC
:1043500003494A88521C4A808A881018888070470E
:10436000C09100200101000A04280A040203AA00E7
:1043700055032A00A001FFFF2C0100000A000000E5
:10438000857502000B0000006B7A02000C00000033
:10439000CB7902000D000000A17502000E000000A4
:1043A000D37502000F000000F37902001000000036
:1043B000FD750200120000001776020011000000D7
:1043C0005D760200130000008776020014000000F2
:1043D000B176020015000000D77802001600000038
:1043E000097902001B000000F77602004D00000072
:1043F0005779020017000000217A0200180000001F
:104400001378020019000000537802001A0000001F
:10441000957802001C0000008D7A02001D0000004B
:10442000AD7A02001E000000437A02001F00000067
:104430007377020020000000C37702002100000013
:10444000F37A020049000000317B020000080000FE
:10445000450D0020010000003B7B02000900000028
:10446000537B0200050000007D7B02000600000077
:10447000A77B0200020000000B7C02000700000086
:10448000CF7B020000000000F97B02000300000067
:104490006B7C0200040000008D7C0200080000001C
:1044A000F77C02004C0000006D7E02007C4300207F
:1044B0002600000054430300AC44002032040800EE
:1044C00006000100000000000C450020A4040800C4
:1044D00002000100510E0020891D0020751E0020E1
:1044E000331F002029200020C51C0020291D00208A
:1044F0003D220020FFFF0000E30D002002FC000031
:104500007D92020003FC000089920200F444002026
:1045100003000000FF003F00FF03FF01050400004F
:10452000611F002006040000933902000704000008
:10453000D9390200080400001F3A020002040000FA
:10454000B73B020000040000093C02000404000024
:104550006F3C020003040000D93C0200010400008B
:104560004B3D020009040000D73A02000A04000093
:10457000413B02000B0400004D3F020021040000FB
:104580009942020026040000EB47020000080000E8
:10459000EF3F02003F000000CF4102004B0000004F
:1045A000C93D02004E000000213E0200230400002D
:1045B0007F3E020024040000B93E020027040000F0
:1045C0009B43020028040000C543020025040000AC
:1045D0003D4302002B040000F143020031040000BF
:1045E0001144020032040000594402003504000066
:1045F0008D440200290400007F1F00202A040000CF
:10460000254502002C0400006D4502002D04000029
:10461000F74502002E0400002B4602002F04000084
:104620006346020033040000934602003404000095
:104630001547020036040000454702003004000020
:1046400097470200010800002D4202000108000007
:104650009D1F002000080000EF3F02000000000046
:10466000000000000000000000000000000000004A
:10467000000000000000000000000000000000003A
:10468000000000000000000000000000000000002A
:10469000000000000000000000000000000000001A
:1046A000000000000000000000000000000000000A
:1046B00000000000000000000000000000000000FA
:1046C00000000000000000000000000000000000EA
:1046D00000000000000000000000000000000000DA
:1046E00000000000000000000000000000000000CA
:1046F0000000000000000000000000004C46002008
:104700000200000000000000000000001C45002026
:10471000260000005C4600200C47002064030800CF
:1047200016000600A8470020C0470020888300200C
:1047300003000600A1FFFF06A2FFFF16A3FFFF165E
:10474000A4FFFF16A5FFFF16A6FFFF16A7FFFF1683
:10475000A8FFFF16A9FFFF16AAFFFF16ABFFFF1663
:1047600002D800001931002004D8000033310020A5
:1047700006D80000573100200B3000007F310020A8
:1047800003300000FF2F00200530000027300020FC
:10479000003000005930002000D800007D2F00209C
:1047A000033800000131002000000000000000007C
:1047B0006047002004000000804700200300000044
:1047C0009847002002000000000000007048002010
:1047D000BE830020060001000134000039350020AE
:1047E000003400005D35002000380000FF35002057
:1047F00001380000DF35002003380000313600208A
:1048000000C800003D360020103400006136002052
:1048100013380000153400201538000067340020DC
:1048200017380000A9340020193800002135002075
:1048300001C800004139002004C80000633900208D
:1048400007C800006D39002009C800007D3900202C
:104850000BC80000CF3900200DC80000253900200A
:1048600001D80000F13A002003D800000F3B0020DF
:10487000D8470020130000000700080009000A00C4
:104880000A000C000D000D000F000F0010001100B9
:10489000D048002000800020C003000040430020DA
:1048A000D048002020900020C40100004043002098
:1048B00068070800202A0800E005000040430020A7
:1048C000800C000008000000010000000700060046
:040000052000044192
:00000001FF
